{"abi":[{"type":"constructor","inputs":[{"name":"layerZeroEndpoint","type":"address","internalType":"address"},{"name":"bridgeOperator","type":"address","internalType":"address"}],"stateMutability":"nonpayable"},{"type":"function","name":"SEND","inputs":[],"outputs":[{"name":"","type":"uint16","internalType":"uint16"}],"stateMutability":"view"},{"type":"function","name":"SEND_AND_CALL","inputs":[],"outputs":[{"name":"","type":"uint16","internalType":"uint16"}],"stateMutability":"view"},{"type":"function","name":"allowInitializePath","inputs":[{"name":"origin","type":"tuple","internalType":"struct Origin","components":[{"name":"srcEid","type":"uint32","internalType":"uint32"},{"name":"sender","type":"bytes32","internalType":"bytes32"},{"name":"nonce","type":"uint64","internalType":"uint64"}]}],"outputs":[{"name":"","type":"bool","internalType":"bool"}],"stateMutability":"view"},{"type":"function","name":"allowance","inputs":[{"name":"owner","type":"address","internalType":"address"},{"name":"spender","type":"address","internalType":"address"}],"outputs":[{"name":"","type":"uint256","internalType":"uint256"}],"stateMutability":"view"},{"type":"function","name":"approvalRequired","inputs":[],"outputs":[{"name":"","type":"bool","internalType":"bool"}],"stateMutability":"pure"},{"type":"function","name":"approve","inputs":[{"name":"spender","type":"address","internalType":"address"},{"name":"amount","type":"uint256","internalType":"uint256"}],"outputs":[{"name":"","type":"bool","internalType":"bool"}],"stateMutability":"nonpayable"},{"type":"function","name":"balanceOf","inputs":[{"name":"account","type":"address","internalType":"address"}],"outputs":[{"name":"","type":"uint256","internalType":"uint256"}],"stateMutability":"view"},{"type":"function","name":"combineOptions","inputs":[{"name":"_eid","type":"uint32","internalType":"uint32"},{"name":"_msgType","type":"uint16","internalType":"uint16"},{"name":"_extraOptions","type":"bytes","internalType":"bytes"}],"outputs":[{"name":"","type":"bytes","internalType":"bytes"}],"stateMutability":"view"},{"type":"function","name":"composeMsgSender","inputs":[],"outputs":[{"name":"sender","type":"address","internalType":"address"}],"stateMutability":"view"},{"type":"function","name":"decimalConversionRate","inputs":[],"outputs":[{"name":"","type":"uint256","internalType":"uint256"}],"stateMutability":"view"},{"type":"function","name":"decimals","inputs":[],"outputs":[{"name":"","type":"uint8","internalType":"uint8"}],"stateMutability":"view"},{"type":"function","name":"decreaseAllowance","inputs":[{"name":"spender","type":"address","internalType":"address"},{"name":"subtractedValue","type":"uint256","internalType":"uint256"}],"outputs":[{"name":"","type":"bool","internalType":"bool"}],"stateMutability":"nonpayable"},{"type":"function","name":"endpoint","inputs":[],"outputs":[{"name":"","type":"address","internalType":"contract ILayerZeroEndpointV2"}],"stateMutability":"view"},{"type":"function","name":"enforcedOptions","inputs":[{"name":"eid","type":"uint32","internalType":"uint32"},{"name":"msgType","type":"uint16","internalType":"uint16"}],"outputs":[{"name":"enforcedOption","type":"bytes","internalType":"bytes"}],"stateMutability":"view"},{"type":"function","name":"increaseAllowance","inputs":[{"name":"spender","type":"address","internalType":"address"},{"name":"addedValue","type":"uint256","internalType":"uint256"}],"outputs":[{"name":"","type":"bool","internalType":"bool"}],"stateMutability":"nonpayable"},{"type":"function","name":"isPeer","inputs":[{"name":"_eid","type":"uint32","internalType":"uint32"},{"name":"_peer","type":"bytes32","internalType":"bytes32"}],"outputs":[{"name":"","type":"bool","internalType":"bool"}],"stateMutability":"view"},{"type":"function","name":"lzReceive","inputs":[{"name":"_origin","type":"tuple","internalType":"struct Origin","components":[{"name":"srcEid","type":"uint32","internalType":"uint32"},{"name":"sender","type":"bytes32","internalType":"bytes32"},{"name":"nonce","type":"uint64","internalType":"uint64"}]},{"name":"_guid","type":"bytes32","internalType":"bytes32"},{"name":"_message","type":"bytes","internalType":"bytes"},{"name":"_executor","type":"address","internalType":"address"},{"name":"_extraData","type":"bytes","internalType":"bytes"}],"outputs":[],"stateMutability":"payable"},{"type":"function","name":"lzReceiveAndRevert","inputs":[{"name":"_packets","type":"tuple[]","internalType":"struct InboundPacket[]","components":[{"name":"origin","type":"tuple","internalType":"struct Origin","components":[{"name":"srcEid","type":"uint32","internalType":"uint32"},{"name":"sender","type":"bytes32","internalType":"bytes32"},{"name":"nonce","type":"uint64","internalType":"uint64"}]},{"name":"dstEid","type":"uint32","internalType":"uint32"},{"name":"receiver","type":"address","internalType":"address"},{"name":"guid","type":"bytes32","internalType":"bytes32"},{"name":"value","type":"uint256","internalType":"uint256"},{"name":"executor","type":"address","internalType":"address"},{"name":"message","type":"bytes","internalType":"bytes"},{"name":"extraData","type":"bytes","internalType":"bytes"}]}],"outputs":[],"stateMutability":"payable"},{"type":"function","name":"lzReceiveSimulate","inputs":[{"name":"_origin","type":"tuple","internalType":"struct Origin","components":[{"name":"srcEid","type":"uint32","internalType":"uint32"},{"name":"sender","type":"bytes32","internalType":"bytes32"},{"name":"nonce","type":"uint64","internalType":"uint64"}]},{"name":"_guid","type":"bytes32","internalType":"bytes32"},{"name":"_message","type":"bytes","internalType":"bytes"},{"name":"_executor","type":"address","internalType":"address"},{"name":"_extraData","type":"bytes","internalType":"bytes"}],"outputs":[],"stateMutability":"payable"},{"type":"function","name":"msgInspector","inputs":[],"outputs":[{"name":"","type":"address","internalType":"address"}],"stateMutability":"view"},{"type":"function","name":"name","inputs":[],"outputs":[{"name":"","type":"string","internalType":"string"}],"stateMutability":"view"},{"type":"function","name":"nextNonce","inputs":[{"name":"","type":"uint32","internalType":"uint32"},{"name":"","type":"bytes32","internalType":"bytes32"}],"outputs":[{"name":"nonce","type":"uint64","internalType":"uint64"}],"stateMutability":"view"},{"type":"function","name":"oApp","inputs":[],"outputs":[{"name":"","type":"address","internalType":"address"}],"stateMutability":"view"},{"type":"function","name":"oAppVersion","inputs":[],"outputs":[{"name":"senderVersion","type":"uint64","internalType":"uint64"},{"name":"receiverVersion","type":"uint64","internalType":"uint64"}],"stateMutability":"pure"},{"type":"function","name":"oftVersion","inputs":[],"outputs":[{"name":"interfaceId","type":"bytes4","internalType":"bytes4"},{"name":"version","type":"uint64","internalType":"uint64"}],"stateMutability":"pure"},{"type":"function","name":"owner","inputs":[],"outputs":[{"name":"","type":"address","internalType":"address"}],"stateMutability":"view"},{"type":"function","name":"peers","inputs":[{"name":"eid","type":"uint32","internalType":"uint32"}],"outputs":[{"name":"peer","type":"bytes32","internalType":"bytes32"}],"stateMutability":"view"},{"type":"function","name":"preCrime","inputs":[],"outputs":[{"name":"","type":"address","internalType":"address"}],"stateMutability":"view"},{"type":"function","name":"quoteOFT","inputs":[{"name":"_sendParam","type":"tuple","internalType":"struct SendParam","components":[{"name":"dstEid","type":"uint32","internalType":"uint32"},{"name":"to","type":"bytes32","internalType":"bytes32"},{"name":"amountLD","type":"uint256","internalType":"uint256"},{"name":"minAmountLD","type":"uint256","internalType":"uint256"},{"name":"extraOptions","type":"bytes","internalType":"bytes"},{"name":"composeMsg","type":"bytes","internalType":"bytes"},{"name":"oftCmd","type":"bytes","internalType":"bytes"}]}],"outputs":[{"name":"oftLimit","type":"tuple","internalType":"struct OFTLimit","components":[{"name":"minAmountLD","type":"uint256","internalType":"uint256"},{"name":"maxAmountLD","type":"uint256","internalType":"uint256"}]},{"name":"oftFeeDetails","type":"tuple[]","internalType":"struct OFTFeeDetail[]","components":[{"name":"feeAmountLD","type":"int256","internalType":"int256"},{"name":"description","type":"string","internalType":"string"}]},{"name":"oftReceipt","type":"tuple","internalType":"struct OFTReceipt","components":[{"name":"amountSentLD","type":"uint256","internalType":"uint256"},{"name":"amountReceivedLD","type":"uint256","internalType":"uint256"}]}],"stateMutability":"view"},{"type":"function","name":"quoteSend","inputs":[{"name":"_sendParam","type":"tuple","internalType":"struct SendParam","components":[{"name":"dstEid","type":"uint32","internalType":"uint32"},{"name":"to","type":"bytes32","internalType":"bytes32"},{"name":"amountLD","type":"uint256","internalType":"uint256"},{"name":"minAmountLD","type":"uint256","internalType":"uint256"},{"name":"extraOptions","type":"bytes","internalType":"bytes"},{"name":"composeMsg","type":"bytes","internalType":"bytes"},{"name":"oftCmd","type":"bytes","internalType":"bytes"}]},{"name":"_payInLzToken","type":"bool","internalType":"bool"}],"outputs":[{"name":"msgFee","type":"tuple","internalType":"struct MessagingFee","components":[{"name":"nativeFee","type":"uint256","internalType":"uint256"},{"name":"lzTokenFee","type":"uint256","internalType":"uint256"}]}],"stateMutability":"view"},{"type":"function","name":"renounceOwnership","inputs":[],"outputs":[],"stateMutability":"nonpayable"},{"type":"function","name":"send","inputs":[{"name":"_sendParam","type":"tuple","internalType":"struct SendParam","components":[{"name":"dstEid","type":"uint32","internalType":"uint32"},{"name":"to","type":"bytes32","internalType":"bytes32"},{"name":"amountLD","type":"uint256","internalType":"uint256"},{"name":"minAmountLD","type":"uint256","internalType":"uint256"},{"name":"extraOptions","type":"bytes","internalType":"bytes"},{"name":"composeMsg","type":"bytes","internalType":"bytes"},{"name":"oftCmd","type":"bytes","internalType":"bytes"}]},{"name":"_fee","type":"tuple","internalType":"struct MessagingFee","components":[{"name":"nativeFee","type":"uint256","internalType":"uint256"},{"name":"lzTokenFee","type":"uint256","internalType":"uint256"}]},{"name":"_refundAddress","type":"address","internalType":"address"}],"outputs":[{"name":"msgReceipt","type":"tuple","internalType":"struct MessagingReceipt","components":[{"name":"guid","type":"bytes32","internalType":"bytes32"},{"name":"nonce","type":"uint64","internalType":"uint64"},{"name":"fee","type":"tuple","internalType":"struct MessagingFee","components":[{"name":"nativeFee","type":"uint256","internalType":"uint256"},{"name":"lzTokenFee","type":"uint256","internalType":"uint256"}]}]},{"name":"oftReceipt","type":"tuple","internalType":"struct OFTReceipt","components":[{"name":"amountSentLD","type":"uint256","internalType":"uint256"},{"name":"amountReceivedLD","type":"uint256","internalType":"uint256"}]}],"stateMutability":"payable"},{"type":"function","name":"setDelegate","inputs":[{"name":"_delegate","type":"address","internalType":"address"}],"outputs":[],"stateMutability":"nonpayable"},{"type":"function","name":"setEnforcedOptions","inputs":[{"name":"_enforcedOptions","type":"tuple[]","internalType":"struct EnforcedOptionParam[]","components":[{"name":"eid","type":"uint32","internalType":"uint32"},{"name":"msgType","type":"uint16","internalType":"uint16"},{"name":"options","type":"bytes","internalType":"bytes"}]}],"outputs":[],"stateMutability":"nonpayable"},{"type":"function","name":"setMsgInspector","inputs":[{"name":"_msgInspector","type":"address","internalType":"address"}],"outputs":[],"stateMutability":"nonpayable"},{"type":"function","name":"setPeer","inputs":[{"name":"_eid","type":"uint32","internalType":"uint32"},{"name":"_peer","type":"bytes32","internalType":"bytes32"}],"outputs":[],"stateMutability":"nonpayable"},{"type":"function","name":"setPreCrime","inputs":[{"name":"_preCrime","type":"address","internalType":"address"}],"outputs":[],"stateMutability":"nonpayable"},{"type":"function","name":"sharedDecimals","inputs":[],"outputs":[{"name":"","type":"uint8","internalType":"uint8"}],"stateMutability":"pure"},{"type":"function","name":"symbol","inputs":[],"outputs":[{"name":"","type":"string","internalType":"string"}],"stateMutability":"view"},{"type":"function","name":"token","inputs":[],"outputs":[{"name":"","type":"address","internalType":"address"}],"stateMutability":"view"},{"type":"function","name":"totalSupply","inputs":[],"outputs":[{"name":"","type":"uint256","internalType":"uint256"}],"stateMutability":"view"},{"type":"function","name":"transfer","inputs":[{"name":"to","type":"address","internalType":"address"},{"name":"amount","type":"uint256","internalType":"uint256"}],"outputs":[{"name":"","type":"bool","internalType":"bool"}],"stateMutability":"nonpayable"},{"type":"function","name":"transferFrom","inputs":[{"name":"from","type":"address","internalType":"address"},{"name":"to","type":"address","internalType":"address"},{"name":"amount","type":"uint256","internalType":"uint256"}],"outputs":[{"name":"","type":"bool","internalType":"bool"}],"stateMutability":"nonpayable"},{"type":"function","name":"transferOwnership","inputs":[{"name":"newOwner","type":"address","internalType":"address"}],"outputs":[],"stateMutability":"nonpayable"},{"type":"event","name":"Approval","inputs":[{"name":"owner","type":"address","indexed":true,"internalType":"address"},{"name":"spender","type":"address","indexed":true,"internalType":"address"},{"name":"value","type":"uint256","indexed":false,"internalType":"uint256"}],"anonymous":false},{"type":"event","name":"EnforcedOptionSet","inputs":[{"name":"_enforcedOptions","type":"tuple[]","indexed":false,"internalType":"struct EnforcedOptionParam[]","components":[{"name":"eid","type":"uint32","internalType":"uint32"},{"name":"msgType","type":"uint16","internalType":"uint16"},{"name":"options","type":"bytes","internalType":"bytes"}]}],"anonymous":false},{"type":"event","name":"MsgInspectorSet","inputs":[{"name":"inspector","type":"address","indexed":false,"internalType":"address"}],"anonymous":false},{"type":"event","name":"OFTReceived","inputs":[{"name":"guid","type":"bytes32","indexed":true,"internalType":"bytes32"},{"name":"srcEid","type":"uint32","indexed":false,"internalType":"uint32"},{"name":"toAddress","type":"address","indexed":true,"internalType":"address"},{"name":"amountReceivedLD","type":"uint256","indexed":false,"internalType":"uint256"}],"anonymous":false},{"type":"event","name":"OFTSent","inputs":[{"name":"guid","type":"bytes32","indexed":true,"internalType":"bytes32"},{"name":"dstEid","type":"uint32","indexed":false,"internalType":"uint32"},{"name":"fromAddress","type":"address","indexed":true,"internalType":"address"},{"name":"amountSentLD","type":"uint256","indexed":false,"internalType":"uint256"},{"name":"amountReceivedLD","type":"uint256","indexed":false,"internalType":"uint256"}],"anonymous":false},{"type":"event","name":"OwnershipTransferred","inputs":[{"name":"previousOwner","type":"address","indexed":true,"internalType":"address"},{"name":"newOwner","type":"address","indexed":true,"internalType":"address"}],"anonymous":false},{"type":"event","name":"PeerSet","inputs":[{"name":"eid","type":"uint32","indexed":false,"internalType":"uint32"},{"name":"peer","type":"bytes32","indexed":false,"internalType":"bytes32"}],"anonymous":false},{"type":"event","name":"PreCrimeSet","inputs":[{"name":"preCrimeAddress","type":"address","indexed":false,"internalType":"address"}],"anonymous":false},{"type":"event","name":"Transfer","inputs":[{"name":"from","type":"address","indexed":true,"internalType":"address"},{"name":"to","type":"address","indexed":true,"internalType":"address"},{"name":"value","type":"uint256","indexed":false,"internalType":"uint256"}],"anonymous":false},{"type":"error","name":"InvalidDelegate","inputs":[]},{"type":"error","name":"InvalidEndpointCall","inputs":[]},{"type":"error","name":"InvalidLocalDecimals","inputs":[]},{"type":"error","name":"InvalidOptions","inputs":[{"name":"options","type":"bytes","internalType":"bytes"}]},{"type":"error","name":"LzTokenUnavailable","inputs":[]},{"type":"error","name":"NoPeer","inputs":[{"name":"eid","type":"uint32","internalType":"uint32"}]},{"type":"error","name":"NotEnoughNative","inputs":[{"name":"msgValue","type":"uint256","internalType":"uint256"}]},{"type":"error","name":"OnlyEndpoint","inputs":[{"name":"addr","type":"address","internalType":"address"}]},{"type":"error","name":"OnlyPeer","inputs":[{"name":"eid","type":"uint32","internalType":"uint32"},{"name":"sender","type":"bytes32","internalType":"bytes32"}]},{"type":"error","name":"OnlySelf","inputs":[]},{"type":"error","name":"SimulationResult","inputs":[{"name":"result","type":"bytes","internalType":"bytes"}]},{"type":"error","name":"SlippageExceeded","inputs":[{"name":"amountLD","type":"uint256","internalType":"uint256"},{"name":"minAmountLD","type":"uint256","internalType":"uint256"}]}],"bytecode":{"object":"0x60c080604052346104755760006040826130928038038091610021828561047a565b833981010312610472576100406020610039846104b3565b93016104b3565b906040519261005060408561047a565b600d84526c29ba30b5b2aab8102a37b5b2b760991b60208501526040519261007960408561047a565b600384526205355560ec1b60208501528254336001600160a01b031982168117855560405193916001600160a01b03167f8be0079c531659141344cd1fd0a4f28419497f9722a3daafe3b4186f6b6457e08680a36001600160a01b0390811660808190529116801561046357813b1561045f57602483858094829463ca5eb5e160e01b845260048401525af18015610454578290610444575b505064e8d4a5100060a05282516001600160401b03811161043057600854600181811c91168015610426575b602082101461041257601f81116103af575b506020601f821160011461034c57829394829392610341575b50508160011b916000199060031b1c1916176008555b8151906001600160401b03821161032d57600954600181811c91168015610323575b602082101461030f57601f81116102ac575b50602090601f831160011461024b57919283610240575b50508160011b916000199060031b1c1916176009555b604051612bca90816104c88239608051818181610582015281816106c5015281816108ef01528181610a60015281816116a50152818161185b0152611b47015260a05181818161042b015281816107bf0152818161143301526128510152f35b0151905038806101ca565b90601f1983169360098352818320925b8581106102945750836001951061027b575b505050811b016009556101e0565b015160001960f88460031b161c1916905538808061026d565b9192602060018192868501518155019401920161025b565b600982527f6e1540171b6c0c960b71a7020d9f60077f6af931a8bbf590da0223dacf75c7af601f840160051c81019160208510610305575b601f0160051c01905b8181106102fa57506101b3565b8281556001016102ed565b90915081906102e4565b634e487b7160e01b82526022600452602482fd5b90607f16906101a1565b634e487b7160e01b81526041600452602490fd5b015190503880610169565b6008835280832090601f198316845b8181106103975750958360019596971061037e575b505050811b0160085561017f565b015160001960f88460031b161c19169055388080610370565b9192602060018192868b01518155019401920161035b565b600883527ff3f7a9fe364faab93b216da50a3214154f22a0a2b415b23a84c8169e8b636ee3601f830160051c81019160208410610408575b601f0160051c01905b8181106103fd5750610150565b8381556001016103f0565b90915081906103e7565b634e487b7160e01b83526022600452602483fd5b90607f169061013e565b634e487b7160e01b82526041600452602482fd5b61044d9161047a565b3881610112565b6040513d84823e3d90fd5b8380fd5b632d618d8160e21b8452600484fd5b80fd5b600080fd5b601f909101601f19168101906001600160401b0382119082101761049d57604052565b634e487b7160e01b600052604160045260246000fd5b51906001600160a01b03821682036104755756fe608080604052600436101561001357600080fd5b600090813560e01c90816306fdde0314611f2e57508063095ea7b314611f075780630d35b41514611db8578063111ecdad14611d8f57806313137d6514611b39578063134d4f2514611b1d578063156a0d0f14611af657806317442b7014611ad457806318160ddd14611ab65780631f5e133414611a9a57806323b872dd146119d7578063313ce567146119bb5780633400288b1461195057806339509351146118fe5780633b6f743b1461177957806352ae28791461024b5780635535d461146117195780635a0dfe4d146116d45780635e280f111461168f5780636fc1b31e1461162157806370a08231146115e8578063715018a61461158e5780637d25a05e14611568578063857749b01461154c5780638da5cb5b1461152557806395d89b4114611456578063963efcaa1461141b5780639f68b964146113ff578063a457c2d71461135a578063a9059cbb14611328578063b731ea0a146112ff578063b92d0eff1461024b578063b98bd07014611016578063bb0b6a5314610fe1578063bc70b35414610f77578063bd815db014610d19578063c7c7f5b314610742578063ca5eb5e1146106a0578063d045a0dc146103d9578063d42438851461036b578063dd62ed3e14610316578063f2fde38b14610250578063fc0c546a1461024b5763ff7bd03d1461020557600080fd5b346102485760603660031901126102485760043563ffffffff811690818103610244579160409160209350815260018352205460405190602435148152f35b8280fd5b80fd5b61210e565b50346102485760203660031901126102485761026a612018565b6102726127d1565b6001600160a01b031680156102c25781546001600160a01b03198116821783556001600160a01b03167f8be0079c531659141344cd1fd0a4f28419497f9722a3daafe3b4186f6b6457e08380a380f35b60405162461bcd60e51b815260206004820152602660248201527f4f776e61626c653a206e6577206f776e657220697320746865207a65726f206160448201526564647265737360d01b6064820152608490fd5b5034610248576040366003190112610248576040610332612018565b9161033b612033565b9260018060a01b031681526006602052209060018060a01b03166000526020526020604060002054604051908152f35b5034610248576020366003190112610248577fd48d879cef83a1c0bdda516f27b13ddb1b3f8bbac1c9e1511bb2a659c242776060206103a8612018565b6103b06127d1565b600280546001600160a01b0319166001600160a01b03929092169182179055604051908152a180f35b506103e336612076565b5050509230330361069157836020116106195781356001600160a01b03169361045361040f82856123d9565b6001600160c01b031991359182169160088210610671575b50507f00000000000000000000000000000000000000000000000000000000000000009060c01c612ac8565b9261045d836122c8565b50851561062c578691610472856007546122d9565b6007558683526005602052604083208581540190558683600080516020612b758339815191526020604051898152a3602881116104ef575b5050507fefed6d3500546b29533b128a29e3a94d70788727f0507505ac12eaf2e578fd9c916104da6040926122c8565b9063ffffffff8351921682526020820152a380f35b6040840135906001600160401b0382168203610628576105809161052961052283604c9461051c8a6122c8565b976123ea565b36916123a2565b6040519485926001600160401b0360c01b9060c01b16602084015263ffffffff60e01b9060e01b16602883015287602c83015261056f8151809260208686019101611fd0565b81010301601f19810183528261225e565b7f00000000000000000000000000000000000000000000000000000000000000006001600160a01b0316803b15610244576105ef8392918392604051948580948193633e5ac80960e11b83528d60048401528c6024840152836044840152608060648401526084830190611ff3565b03925af1801561061d57610604575b806104aa565b8161060e9161225e565b6106195784386105fe565b8480fd5b6040513d84823e3d90fd5b8380fd5b60405162461bcd60e51b815260206004820152601f60248201527f45524332303a206d696e7420746f20746865207a65726f2061646472657373006044820152606490fd5b6001600160c01b031960089290920360031b82901b161690503880610427565b63029a949d60e31b8552600485fd5b503461024857602036600319011261024857806106bb612018565b6106c36127d1565b7f00000000000000000000000000000000000000000000000000000000000000006001600160a01b031690813b1561073e5760405163ca5eb5e160e01b81526001600160a01b0390911660048201529082908290602490829084905af1801561061d5761072d5750f35b816107379161225e565b6102485780f35b5050fd5b50608036600319011261024857600435906001600160401b038211610248578160040160e06003198436030112610a34576040366023190112610a3457606435926001600160a01b03841684036102445761079b6124f2565b506107a46122af565b506107ed60446107e86064840135936107bc866122c8565b507f00000000000000000000000000000000000000000000000000000000000000009283910135612aa8565b612ac8565b90808210610d0157503315610cb25733835260056020526040832054818110610c625781903385526005602052036040842055806007540360075582604051828152600080516020612b7583398151915260203392a361084d8183612841565b9490610858846122c8565b604051610864816121f7565b60243581526020810190604435825261087b6124f2565b505192833403610c4f57815180610a4b575b50906108eb9883926108a26080979695612630565b925115159263ffffffff604051956108b987612228565b168552602085015260408401526060830152848201526040518098819482936302637a4560e41b8452600484016129fd565b03917f00000000000000000000000000000000000000000000000000000000000000006001600160a01b03165af1928315610a3f5780936109c7575b5060c0935060405190610939826121f7565b808252602082019281845261094f8551916122c8565b9163ffffffff6040519316835280602084015260408301527f85496b760a4b7f8d66384b9df21b381f5d1b1e79f229a47aaf4c232edc2fe59a60603393a360206040805194805186526001600160401b03838201511683870152015180516040860152015160608401525160808301525160a0820152f35b90925060803d608011610a38575b6109df818661225e565b840193608081860312610a3457604051916109f983612243565b815183526020820151906001600160401b03821682036102485750602083015260c094610a28916040016129d5565b60408201529138610927565b5080fd5b503d6109d5565b604051903d90823e3d90fd5b60405163393f876560e21b81529195949392917f00000000000000000000000000000000000000000000000000000000000000006001600160a01b031690602081600481855afa908115610c44578b91610bfe575b506001600160a01b0316908115610bef57908a80610b5794936040519460208601916323b872dd60e01b83523360248801526044870152606486015260648552610aeb60848661225e565b60405194610afa60408761225e565b602086527f5361666545524332303a206c6f772d6c6576656c2063616c6c206661696c65646020870152519082855af13d15610be7573d91610b3b83612387565b92610b49604051948561225e565b83523d8d602085013e612adb565b8051908115918215610bcd575b505015610b7557909192933861088d565b60405162461bcd60e51b815260206004820152602a60248201527f5361666545524332303a204552433230206f7065726174696f6e20646964206e6044820152691bdd081cdd58d8d9595960b21b6064820152608490fd5b610be09250602080918301019101612829565b3880610b64565b606091612adb565b6329b99a9560e11b8b5260048bfd5b90506020813d602011610c3c575b81610c196020938361225e565b81010312610c3857516001600160a01b0381168103610c385738610aa0565b8a80fd5b3d9150610c0c565b6040513d8d823e3d90fd5b6304fb820960e51b885234600452602488fd5b60405162461bcd60e51b815260206004820152602260248201527f45524332303a206275726e20616d6f756e7420657863656564732062616c616e604482015261636560f01b6064820152608490fd5b60405162461bcd60e51b815260206004820152602160248201527f45524332303a206275726e2066726f6d20746865207a65726f206164647265736044820152607360f81b6064820152608490fd5b6371c4efed60e01b8452600491909152602452604482fd5b506020366003190112610248576004356001600160401b038111610a3457610d4590369060040161227f565b903681900361013e190190835b83811015610eae57848160051b83013584811215610a34578301610d75816122c8565b90610d986020820135809363ffffffff1660005260016020526040600020541490565b15610ea357610dab610100820182612334565b60e08301356001600160a01b03811693919290849003610e9f57610dd3610120830183612334565b939091303b15610e9b57604051633411683760e21b81529663ffffffff610df9866120fd565b16600489015260248801526040840135916001600160401b038316809303610e9757889688968795610e4d8795610e649560c098604489015260a08b0135606489015260e0608489015260e4880191612366565b9260a48601526003198584030160c4860152612366565b03920135305af1801561061d57610e82575b50506001905b01610d52565b81610e8c9161225e565b610619578438610e76565b8880fd5b8780fd5b8580fd5b505050600190610e7c565b604051638e9e709960e01b815285908181600481335afa90811561061d578291610ef9575b604051638351eea760e01b81526020600482015280610ef56024820185611ff3565b0390fd5b90503d8083833e610f0a818361225e565b810190602081830312610244578051906001600160401b038211610628570181601f8201121561024457805192610f4084612387565b92610f4e604051948561225e565b848452602085840101116102485750610ef592610f719160208085019101611fd0565b82610ed3565b503461024857606036600319011261024857610f916120ea565b610f99612129565b91604435906001600160401b03821161024857610fdd610fc98585610fc13660048801612049565b929091612407565b604051918291602083526020830190611ff3565b0390f35b503461024857602036600319011261024857604060209163ffffffff6110056120ea565b168152600183522054604051908152f35b5034610248576020366003190112610248576004356001600160401b038111610a345761104790369060040161227f565b61104f6127d1565b825b818110611151575060405191816020840160208552526040830160408360051b85010192828690605e19813603015b8383106110b157887fbe4864a8e820971c0247f5992e2da559595f7bf076a21cb5928d443d2a13b6748989038aa180f35b909192939495603f1988820301865286358281121561114d57830163ffffffff6110da826120fd565b168252602081013561ffff8116809103610c385760208301526040810135601e1982360301811215610c385701602081359101906001600160401b038111610c38578036038213610c385761113f602092839260608681604060019901520191612366565b980196019493019190611080565b8980fd5b92919061117561116f6111658684866122fc565b6040810190612334565b90612a6b565b6111836111658583856122fc565b63ffffffff61119e6111998886889a969a6122fc565b6122c8565b16855260036020526040852060206111b78486886122fc565b01359061ffff821682036112fb579060409161ffff60009216825260205220906001600160401b0381116112e7576111ef825461213a565b601f81116112a2575b508596601f821160011461123a578697829160019697989261122f575b5050600019600383901b1c191690841b1790555b01611051565b013590503880611215565b8287526020872090601f198316885b81811061128a575090600196979899848895949310611270575b505050811b019055611229565b0135600019600384901b60f8161c19169055388080611263565b99926020600181928686013581550194019a01611249565b82875260208720601f830160051c810191602084106112dd575b601f0160051c01905b8181106112d257506111f8565b8781556001016112c5565b90915081906112bc565b634e487b7160e01b86526041600452602486fd5b8680fd5b50346102485780600319360112610248576002546040516001600160a01b039091168152602090f35b50346102485760403660031901126102485761134f611345612018565b6024359033612664565b602060405160018152f35b503461024857604036600319011261024857611374612018565b60406024359233815260066020522060018060a01b038216600052602052604060002054918083106113ac5761134f92039033612528565b60405162461bcd60e51b815260206004820152602560248201527f45524332303a2064656372656173656420616c6c6f77616e63652062656c6f77604482015264207a65726f60d81b6064820152608490fd5b5034610248578060031936011261024857602090604051908152f35b503461024857806003193601126102485760206040517f00000000000000000000000000000000000000000000000000000000000000008152f35b50346102485780600319360112610248576040519080600954906114798261213a565b80855291600181169081156114fe57506001146114a1575b610fdd84610fc98186038261225e565b600981527f6e1540171b6c0c960b71a7020d9f60077f6af931a8bbf590da0223dacf75c7af939250905b8082106114e457509091508101602001610fc982611491565b9192600181602092548385880101520191019092916114cb565b60ff191660208087019190915292151560051b85019092019250610fc99150839050611491565b5034610248578060031936011261024857546040516001600160a01b039091168152602090f35b5034610248578060031936011261024857602060405160068152f35b5034610248576040366003190112610248576020906115856120ea565b50604051908152f35b50346102485780600319360112610248576115a76127d1565b80546001600160a01b03198116825581906001600160a01b03167f8be0079c531659141344cd1fd0a4f28419497f9722a3daafe3b4186f6b6457e08280a380f35b5034610248576020366003190112610248576020906040906001600160a01b03611610612018565b168152600583522054604051908152f35b5034610248576020366003190112610248577ff0be4f1e87349231d80c36b33f9e8639658eeaf474014dee15a3e6a4d4414197602061165e612018565b6116666127d1565b600480546001600160a01b0319166001600160a01b03929092169182179055604051908152a180f35b50346102485780600319360112610248576040517f00000000000000000000000000000000000000000000000000000000000000006001600160a01b03168152602090f35b503461024857604036600319011261024857602061170f6116f36120ea565b6024359063ffffffff1660005260016020526040600020541490565b6040519015158152f35b50346102485760403660031901126102485761ffff60406117386120ea565b9263ffffffff611746612129565b941681526003602052209116600052602052610fdd611772610fc9604060002060405192838092612174565b038261225e565b5034610248576040366003190112610248576004356001600160401b038111610a3457806004019060e060031982360301126102445760243590811515809203610628576117c56122af565b506117dd60446107e86064840135936107bc876122c8565b908082106118e65750916040916118026117fa6118579584612841565b9190936122c8565b9261180b6122af565b5061181584612630565b63ffffffff86519561182687612228565b16855260208501528484015260608301526080820152815180938192631bb8518b60e31b83523090600484016129fd565b03817f00000000000000000000000000000000000000000000000000000000000000006001600160a01b03165afa90811561061d5782916118a8575b60408260208251918051835201516020820152f35b905060403d6040116118df575b6118bf818361225e565b81019160408284031261024857506040916118d9916129d5565b38611893565b503d6118b5565b6371c4efed60e01b8552600491909152602452604483fd5b50346102485760403660031901126102485761134f90604061191e612018565b9133815260066020522060018060a01b038216600052602052611949604060002060243590546122d9565b9033612528565b5034610248576040366003190112610248577f238399d427b947898edb290f5ff0f9109849b1c3ba196a42e35f00c50a54b98b604061198d6120ea565b63ffffffff6024359161199e6127d1565b16908185526001602052808386205582519182526020820152a180f35b5034610248578060031936011261024857602060405160128152f35b5034610248576060366003190112610248576119f1612018565b906119fa612033565b6001600160a01b0383168252600660209081526040928390203360009081529152919091205491604435919060018401611a39575b61134f9350612664565b828410611a5557611a508361134f95033383612528565b611a2f565b60405162461bcd60e51b815260206004820152601d60248201527f45524332303a20696e73756666696369656e7420616c6c6f77616e63650000006044820152606490fd5b5034610248578060031936011261024857602060405160018152f35b50346102485780600319360112610248576020600754604051908152f35b5034610248578060031936011261024857604080516001815260016020820152f35b50346102485780600319360112610248576040805162b9270b60e21b815260016020820152f35b5034610248578060031936011261024857602060405160028152f35b50611b4336612076565b50507f00000000000000000000000000000000000000000000000000000000000000006001600160a01b031694919050338503611d7c57611b8b611b86836122c8565b612630565b6020830135809103611d57575080602011610e9f5782356001600160a01b031694611bb961040f83866123d9565b93611bc3846122c8565b50861561062c578792611bd8866007546122d9565b6007558784526005602052604084208681540190558784600080516020612b7583398151915260206040518a8152a360288111611c41575b505050507fefed6d3500546b29533b128a29e3a94d70788727f0507505ac12eaf2e578fd9c916104da6040926122c8565b6040850135906001600160401b038216820361061957611cb491611c6e61052283604c9461051c8b6122c8565b6040519485926001600160401b0360c01b9060c01b16602084015263ffffffff60e01b9060e01b16602883015288602c83015261056f8151809260208686019101611fd0565b813b15610244578291611cf791604051948580948193633e5ac80960e11b83528c60048401528b6024840152836044840152608060648401526084830190611ff3565b03925af18015611d4c57611d0f575b80808792611c10565b916104da86611d42604094987fefed6d3500546b29533b128a29e3a94d70788727f0507505ac12eaf2e578fd9c9661225e565b9692505091611d06565b6040513d88823e3d90fd5b8660449163ffffffff611d69866122c8565b63309afaf360e21b845216600452602452fd5b6391ac5e4f60e01b865233600452602486fd5b50346102485780600319360112610248576004546040516001600160a01b039091168152602090f35b5034610248576020366003190112610248576004356001600160401b038111610a345760e06003198236030112610a3457611df16122af565b50611dfa6122af565b50604051611e07816121f7565b82815260208101916001600160401b03835260209160405192611e2a818561225e565b858452611e4760446107e86064860135956107bc816004016122c8565b92808410611ef05750949060405195611e5f876121f7565b8387528087019384526040519560a0870192518752518187015260a06040870152845180925260c086018160c08460051b890101960193905b838210611eb357885160608901528551608089015287870388f35b90919293958380611ee160019360bf198c82030186526040838c518051845201519181858201520190611ff3565b98019201920190939291611e98565b6371c4efed60e01b87526004849052602452604486fd5b50346102485760403660031901126102485761134f611f24612018565b6024359033612528565b823461024857806003193601126102485760085481611f4c8261213a565b80855291600181169081156114fe5750600114611f7357610fdd84610fc98186038261225e565b600881527ff3f7a9fe364faab93b216da50a3214154f22a0a2b415b23a84c8169e8b636ee3939250905b808210611fb657509091508101602001610fc982611491565b919260018160209254838588010152019101909291611f9d565b60005b838110611fe35750506000910152565b8181015183820152602001611fd3565b9060209161200c81518092818552858086019101611fd0565b601f01601f1916010190565b600435906001600160a01b038216820361202e57565b600080fd5b602435906001600160a01b038216820361202e57565b9181601f8401121561202e578235916001600160401b03831161202e576020838186019501011161202e57565b90600319820160e0811261202e5760601361202e57600491606435916084356001600160401b03811161202e57826120b091600401612049565b9092909160a4356001600160a01b038116810361202e579160c435906001600160401b03821161202e576120e691600401612049565b9091565b6004359063ffffffff8216820361202e57565b359063ffffffff8216820361202e57565b3461202e57600036600319011261202e576020604051308152f35b6024359061ffff8216820361202e57565b90600182811c9216801561216a575b602083101461215457565b634e487b7160e01b600052602260045260246000fd5b91607f1691612149565b600092918154916121848361213a565b80835292600181169081156121da57506001146121a057505050565b60009081526020812093945091925b8383106121c0575060209250010190565b6001816020929493945483858701015201910191906121af565b915050602093945060ff929192191683830152151560051b010190565b604081019081106001600160401b0382111761221257604052565b634e487b7160e01b600052604160045260246000fd5b60a081019081106001600160401b0382111761221257604052565b606081019081106001600160401b0382111761221257604052565b90601f801991011681019081106001600160401b0382111761221257604052565b9181601f8401121561202e578235916001600160401b03831161202e576020808501948460051b01011161202e57565b604051906122bc826121f7565b60006020838281520152565b3563ffffffff8116810361202e5790565b919082018092116122e657565b634e487b7160e01b600052601160045260246000fd5b919081101561231e5760051b81013590605e198136030182121561202e570190565b634e487b7160e01b600052603260045260246000fd5b903590601e198136030182121561202e57018035906001600160401b03821161202e5760200191813603831361202e57565b908060209392818452848401376000828201840152601f01601f1916010190565b6001600160401b03811161221257601f01601f191660200190565b9291926123ae82612387565b916123bc604051938461225e565b82948184528183011161202e578281602093846000960137010152565b9060281161202e5760200190600890565b909291928360281161202e57831161202e57602801916027190190565b63ffffffff9094929416600052600360205261ffff60406000209116600052602052611772612440604060002060405192838092612174565b8051156124e55782156124df57600283101561247c575050610ef5604051928392639a6d49cd60e01b8452602060048501526024840191612366565b9190926124898282612a6b565b8160021161202e576124dc91602091604051946124ae8151809286808a019101611fd0565b850190600119830190600201848301370101600060011982015282600119910301601f19810183528261225e565b90565b92509050565b50916124dc9136916123a2565b604051906124ff82612243565b8160008152600060208201526040805191612519836121f7565b60008352600060208401520152565b6001600160a01b03169081156125df576001600160a01b031691821561258f5760207f8c5be1e5ebec7d5bd14f71427d1e84f3dd0314c0f7b2291e5b200ac8c7c3b925918360005260068252604060002085600052825280604060002055604051908152a3565b60405162461bcd60e51b815260206004820152602260248201527f45524332303a20617070726f766520746f20746865207a65726f206164647265604482015261737360f01b6064820152608490fd5b60405162461bcd60e51b8152602060048201526024808201527f45524332303a20617070726f76652066726f6d20746865207a65726f206164646044820152637265737360e01b6064820152608490fd5b63ffffffff16806000526001602052604060002054908115612650575090565b63f6ff4fb760e01b60005260045260246000fd5b6001600160a01b031690811561277e576001600160a01b031691821561272d578160005260056020526040600020548181106126d95781600080516020612b758339815191529260209285600052600584520360406000205584600052600582526040600020818154019055604051908152a3565b60405162461bcd60e51b815260206004820152602660248201527f45524332303a207472616e7366657220616d6f756e7420657863656564732062604482015265616c616e636560d01b6064820152608490fd5b60405162461bcd60e51b815260206004820152602360248201527f45524332303a207472616e7366657220746f20746865207a65726f206164647260448201526265737360e81b6064820152608490fd5b60405162461bcd60e51b815260206004820152602560248201527f45524332303a207472616e736665722066726f6d20746865207a65726f206164604482015264647265737360d81b6064820152608490fd5b6000546001600160a01b031633036127e557565b606460405162461bcd60e51b815260206004820152602060248201527f4f776e61626c653a2063616c6c6572206973206e6f7420746865206f776e65726044820152fd5b9081602091031261202e5751801515810361202e5790565b90916128f86128766020840135947f000000000000000000000000000000000000000000000000000000000000000090612aa8565b61288661052260a0860186612334565b80511580159691906129a0576128d29160689160405194859260208401526001600160401b0360c01b9060c01b16604083015233604883015261056f8151809260208686019101611fd0565b925b8394600014612998576002905b610fc16128ed826122c8565b916080810190612334565b6004549092906001600160a01b031680612910575050565b61293e6020916129509360405180958194829363043a78eb60e01b8452604060048501526044840190611ff3565b82810360031901602484015289611ff3565b03915afa801561298c576129615750565b6129829060203d602011612985575b61297a818361225e565b810190612829565b50565b503d612970565b6040513d6000823e3d90fd5b6001906128e1565b50906040519160208301526001600160401b0360c01b9060c01b166040820152602881526129cf60488261225e565b926128d4565b919082604091031261202e576040516129ed816121f7565b6020808294805184520151910152565b906020909392936040835263ffffffff81511660408401528181015160608401526080612a51612a3b604084015160a08488015260e0870190611ff3565b6060840151868203603f190160a0880152611ff3565b910151151560c08401526001600160a01b03909416910152565b908060021161202e576003823560f01c03612a84575050565b610ef5604051928392639a6d49cd60e01b8452602060048501526024840191612366565b8115612ab2570490565b634e487b7160e01b600052601260045260246000fd5b818102929181159184041417156122e657565b91929015612b3d5750815115612aef575090565b3b15612af85790565b60405162461bcd60e51b815260206004820152601d60248201527f416464726573733a2063616c6c20746f206e6f6e2d636f6e74726163740000006044820152606490fd5b825190915015612b505750805190602001fd5b60405162461bcd60e51b815260206004820152908190610ef5906024830190611ff356feddf252ad1be2c89b69c2b068fc378daa952ba7f163c4a11628f55a4df523b3efa2646970667358221220cddf6529cae6c1995e6e7f1291ada9aa1000c321b54939648502c44a57cfa98764736f6c634300081a0033","linkReferences":{}},"methodIdentifiers":{"SEND()":"1f5e1334","SEND_AND_CALL()":"134d4f25","allowInitializePath((uint32,bytes32,uint64))":"ff7bd03d","allowance(address,address)":"dd62ed3e","approvalRequired()":"9f68b964","approve(address,uint256)":"095ea7b3","balanceOf(address)":"70a08231","combineOptions(uint32,uint16,bytes)":"bc70b354","composeMsgSender()":"b92d0eff","decimalConversionRate()":"963efcaa","decimals()":"313ce567","decreaseAllowance(address,uint256)":"a457c2d7","endpoint()":"5e280f11","enforcedOptions(uint32,uint16)":"5535d461","increaseAllowance(address,uint256)":"39509351","isPeer(uint32,bytes32)":"5a0dfe4d","lzReceive((uint32,bytes32,uint64),bytes32,bytes,address,bytes)":"13137d65","lzReceiveAndRevert(((uint32,bytes32,uint64),uint32,address,bytes32,uint256,address,bytes,bytes)[])":"bd815db0","lzReceiveSimulate((uint32,bytes32,uint64),bytes32,bytes,address,bytes)":"d045a0dc","msgInspector()":"111ecdad","name()":"06fdde03","nextNonce(uint32,bytes32)":"7d25a05e","oApp()":"52ae2879","oAppVersion()":"17442b70","oftVersion()":"156a0d0f","owner()":"8da5cb5b","peers(uint32)":"bb0b6a53","preCrime()":"b731ea0a","quoteOFT((uint32,bytes32,uint256,uint256,bytes,bytes,bytes))":"0d35b415","quoteSend((uint32,bytes32,uint256,uint256,bytes,bytes,bytes),bool)":"3b6f743b","renounceOwnership()":"715018a6","send((uint32,bytes32,uint256,uint256,bytes,bytes,bytes),(uint256,uint256),address)":"c7c7f5b3","setDelegate(address)":"ca5eb5e1","setEnforcedOptions((uint32,uint16,bytes)[])":"b98bd070","setMsgInspector(address)":"6fc1b31e","setPeer(uint32,bytes32)":"3400288b","setPreCrime(address)":"d4243885","sharedDecimals()":"857749b0","symbol()":"95d89b41","token()":"fc0c546a","totalSupply()":"18160ddd","transfer(address,uint256)":"a9059cbb","transferFrom(address,address,uint256)":"23b872dd","transferOwnership(address)":"f2fde38b"},"id":102}