{"abi":[{"type":"constructor","inputs":[{"name":"stakeupToken_","type":"address","internalType":"address"},{"name":"stUsdc_","type":"address","internalType":"address"}],"stateMutability":"nonpayable"},{"type":"function","name":"availableTokens","inputs":[{"name":"account","type":"address","internalType":"address"}],"outputs":[{"name":"","type":"uint256","internalType":"uint256"}],"stateMutability":"view"},{"type":"function","name":"claimAvailableTokens","inputs":[],"outputs":[{"name":"","type":"uint256","internalType":"uint256"}],"stateMutability":"nonpayable"},{"type":"function","name":"claimableRewards","inputs":[{"name":"account","type":"address","internalType":"address"}],"outputs":[{"name":"","type":"uint256","internalType":"uint256"}],"stateMutability":"view"},{"type":"function","name":"currentBalance","inputs":[{"name":"account","type":"address","internalType":"address"}],"outputs":[{"name":"","type":"uint256","internalType":"uint256"}],"stateMutability":"view"},{"type":"function","name":"harvest","inputs":[],"outputs":[],"stateMutability":"nonpayable"},{"type":"function","name":"lastRewardBlock","inputs":[],"outputs":[{"name":"","type":"uint256","internalType":"uint256"}],"stateMutability":"view"},{"type":"function","name":"processFees","inputs":[],"outputs":[],"stateMutability":"payable"},{"type":"function","name":"rewardData","inputs":[],"outputs":[{"name":"","type":"tuple","internalType":"struct IStakeUpStaking.RewardData","components":[{"name":"index","type":"uint128","internalType":"uint128"},{"name":"lastShares","type":"uint128","internalType":"uint128"}]}],"stateMutability":"view"},{"type":"function","name":"stUsdc","inputs":[],"outputs":[{"name":"","type":"address","internalType":"contract IStUsdc"}],"stateMutability":"view"},{"type":"function","name":"stake","inputs":[{"name":"stakeupAmount","type":"uint256","internalType":"uint256"}],"outputs":[],"stateMutability":"nonpayable"},{"type":"function","name":"stakupToken","inputs":[],"outputs":[{"name":"","type":"address","internalType":"contract IStakeUpToken"}],"stateMutability":"view"},{"type":"function","name":"totalStakeUpStaked","inputs":[],"outputs":[{"name":"","type":"uint256","internalType":"uint256"}],"stateMutability":"view"},{"type":"function","name":"unstake","inputs":[{"name":"stakeupAmount","type":"uint256","internalType":"uint256"},{"name":"harvestRewards","type":"bool","internalType":"bool"}],"outputs":[],"stateMutability":"nonpayable"},{"type":"function","name":"userStakingData","inputs":[{"name":"user","type":"address","internalType":"address"}],"outputs":[{"name":"","type":"tuple","internalType":"struct IStakeUpStaking.StakingData","components":[{"name":"amountStaked","type":"uint256","internalType":"uint256"},{"name":"index","type":"uint128","internalType":"uint128"},{"name":"rewardsAccrued","type":"uint128","internalType":"uint128"}]}],"stateMutability":"view"},{"type":"function","name":"vestTokens","inputs":[{"name":"account","type":"address","internalType":"address"},{"name":"amount","type":"uint256","internalType":"uint256"}],"outputs":[],"stateMutability":"nonpayable"},{"type":"event","name":"RewardsHarvested","inputs":[{"name":"user","type":"address","indexed":true,"internalType":"address"},{"name":"shares","type":"uint256","indexed":false,"internalType":"uint256"}],"anonymous":false},{"type":"event","name":"StakeUpStaked","inputs":[{"name":"user","type":"address","indexed":true,"internalType":"address"},{"name":"amount","type":"uint256","indexed":false,"internalType":"uint256"}],"anonymous":false},{"type":"event","name":"StakeUpUnstaked","inputs":[{"name":"user","type":"address","indexed":true,"internalType":"address"},{"name":"amount","type":"uint256","indexed":false,"internalType":"uint256"}],"anonymous":false},{"type":"error","name":"NoRewardsToClaim","inputs":[]},{"type":"error","name":"UnauthorizedCaller","inputs":[]},{"type":"error","name":"UserHasNoStake","inputs":[]},{"type":"error","name":"ZeroAddress","inputs":[]},{"type":"error","name":"ZeroTokensStaked","inputs":[]}],"bytecode":{"object":"0x60c03460b857601f61116038819003918201601f19168301916001600160401b0383118484101760bd57808492604094855283398101031260b857604b602060458360d3565b920160d3565b6001600160a01b0391821660805260016002551660a0524360055560405161107990816100e78239608051818181610313015281816104370152818161053e0152818161058c01526107a0015260a05181818161016f015281816101ac01528181610a8c0152610d590152f35b600080fd5b634e487b7160e01b600052604160045260246000fd5b51906001600160a01b038216820360b85756fe6080604052600436101561001257600080fd5b60003560e01c8063252ffe64146107355780634641257d146106b75780636061ffc31461065b578063632a3e521461056d57806393a0ecd01461052857806394cb0947146105055780639e546c38146104cb5780639ebea88c146103a9578063a694fc3a1461029a578063a9f8d1811461027c578063b72e6e0314610203578063ba69ebed1461019e578063d7ba31d214610159578063dc01f60d146100e45763f9f0391a146100c157600080fd5b346100df5760003660031901126100df576020600454604051908152f35b600080fd5b346100df5760203660031901126100df5760206101516101026107ed565b61014b60018060a01b03821691826000526006855260016040600020015460801c92600052600685526040600020906101466001600160801b03600354169261095f565b610dbb565b90610896565b604051908152f35b346100df5760003660031901126100df576040517f00000000000000000000000000000000000000000000000000000000000000006001600160a01b03168152602090f35b60003660031901126100df577f00000000000000000000000000000000000000000000000000000000000000006001600160a01b031633036101f2576101e26109d1565b6101ea610a54565b506001600255005b635c427cd960e01b60005260046000fd5b346100df5760203660031901126100df5761021c6107ed565b60006040805161022b81610858565b828152826020820152015260018060a01b031660005260066020526060610255604060002061095f565b6001600160801b036040805192805184528260208201511660208501520151166040820152f35b346100df5760003660031901126100df576020600554604051908152f35b346100df5760203660031901126100df576004356102b6610a54565b506102c033610bf6565b506102c96109d1565b33600052600660205260406000208115610398576103406040516323b872dd60e01b602082015233602482015230604482015283606482015260648152610311608482610874565b7f00000000000000000000000000000000000000000000000000000000000000006001600160a01b0316610e49565b6103546001600160801b0383168254610896565b905561036281600454610896565b6004556040519081527f7d0615d83b63316da7b0f592cc1a04f93c94282957033b2df243e0ee282f4cf860203392a26001600255005b634dcd07bd60e11b60005260046000fd5b346100df5760403660031901126100df5760243560043581151582036100df576103d16109d1565b6103d9610a54565b506103e333610bf6565b50809133600052600660205260406000209182549081156104ba5781106104b2575b50610497575b61041f6001600160801b0383168254610803565b905561042d81600454610803565b60045561046481337f00000000000000000000000000000000000000000000000000000000000000006001600160a01b031661098f565b6040519081527fd37e7963f9f1ab4a8699bdc05a3effc6f5c79b60b476e0762c5f03fcbae1d12760203392a26001600255005b600181015460801c1561040b576104ad33610cc7565b61040b565b925083610405565b632fba68c360e21b60005260046000fd5b346100df5760203660031901126100df5760206101516104e96107ed565b60018060a01b0316600052600160205260016040600020015490565b346100df5760203660031901126100df5760206101516105236107ed565b6108a3565b346100df5760003660031901126100df576040517f00000000000000000000000000000000000000000000000000000000000000006001600160a01b03168152602090f35b346100df5760403660031901126100df576105866107ed565b602435907f00000000000000000000000000000000000000000000000000000000000000006001600160a01b031633036101f2576105c2610a54565b506105cc81610bf6565b506001600160a01b0316600081815260016020526040812090546105f1908490610896565b600055600281015461061c575060009081526001602081905260409091204260028201558281550155005b9160018361062f83610644959654610896565b85600052826020526040600020550154610896565b906000526001602052600160406000200155600080f35b346100df5760003660031901126100df576000602060405161067c81610826565b82815201526040805161068e81610826565b6001600160801b03600354602082821693848152019060801c8152835192835251166020820152f35b346100df5760003660031901126100df576106d06109d1565b6106d8610a54565b506106e233610bf6565b8015610724576106f133610cc7565b6040519081527fbc8fb63d817de4fabea2108e9b7eefca87245899f4b357636c26b5cad02ec5b460203392a26001600255005b6373380d9960e01b60005260046000fd5b346100df5760003660031901126100df5761074e610a54565b5061075833610bf6565b50336000526001602052602060406000206001610774336108a3565b9161078183600054610803565b60005501610790828254610803565b809155156107cd575b61015181337f00000000000000000000000000000000000000000000000000000000000000006001600160a01b031661098f565b336000526001825260006002604082208281558260018201550155610799565b600435906001600160a01b03821682036100df57565b9190820391821161081057565b634e487b7160e01b600052601160045260246000fd5b6040810190811067ffffffffffffffff82111761084257604052565b634e487b7160e01b600052604160045260246000fd5b6060810190811067ffffffffffffffff82111761084257604052565b90601f8019910116810190811067ffffffffffffffff82111761084257604052565b9190820180921161081057565b6001600160a01b03166000908152600160205260408082209051919291906108ca82610858565b805482526108ee600260018301549260208501938452015480604085015242610803565b63059fa6009190828110156109545761090d90915b8451905190610803565b926301dfe2008210156109205750505050565b518181029181830414901517156109405761093d93945004610803565b90565b634e487b7160e01b85526011600452602485fd5b5061090d8291610903565b9060405161096c81610858565b6040600182948054845201546001600160801b038116602084015260801c910152565b60405163a9059cbb60e01b60208201526001600160a01b0390921660248301526044808301939093529181526109cf916109ca606483610874565b610e49565b565b60028054146109e05760028055565b60405162461bcd60e51b815260206004820152601f60248201527f5265656e7472616e637947756172643a207265656e7472616e742063616c6c006044820152606490fd5b908160209103126100df575190565b906001600160801b03809116911601906001600160801b03821161081057565b6005544314610be75743600555610a7060045460005490610896565b604051633d7ad0b760e21b8152306004820152906020826024817f00000000000000000000000000000000000000000000000000000000000000006001600160a01b03165afa918215610bdb57600092610ba7575b50610ad7600354928360801c90610803565b916001600160801b03811615610b91575b5080610b1a575b506001600160801b0360035491610b0b8219918460801c610896565b60801b16911690811760035590565b7812725dd1d243aba0e75fe645cc4873f9e65afe688c928e1f218211670de0b6b3a76400000215810215610b83576001600160801b03610b6d8160035493670de0b6b3a764000086020416828416610a34565b16906001600160801b0319161760035538610aef565b637c5f487d6000526004601cfd5b6001600160801b03191660011760035538610ae8565b9091506020813d602011610bd3575b81610bc360209383610874565b810103126100df57519038610ac5565b3d9150610bb6565b6040513d6000823e3d90fd5b6001600160801b036003541690565b6001600160a01b0381168015610cb657600052600660205260406000209060018201916001600160801b0383541615610ca0575b6001600160801b03600354166001600160801b038454168114610c9757610c6081610c74946101466001600160801b039561095f565b90821985541617845516825460801c610a34565b81546001600160801b0316608091821b6001600160801b03191617918290551c90565b50505050600090565b82546001600160801b0319166001178355610c2a565b63d92e233d60e01b60005260046000fd5b6001600160a01b03166000818152600660205260409020600101805460801c9081610cf157505050565b6001600160801b038154169055600354818160801c036001600160801b038111610810576001600160801b039190911660809190911b6001600160801b03191617600355604051638fcb4e5b60e01b81526004810192909252602482015260208160448160007f00000000000000000000000000000000000000000000000000000000000000006001600160a01b03165af18015610bdb57610d905750565b610db19060203d602011610db4575b610da98183610874565b810190610a25565b50565b503d610d9f565b6001600160801b03602082015116908115610e40575b8382148015610e38575b610c9757610e0e9261014b610e0892519160018060a01b0316600052600160205260016040600020015490565b92610803565b806000190482118102610e2a57670de0b6b3a764000091020490565b63bac65e5b6000526004601cfd5b508315610ddb565b60019150610dd1565b60018060a01b0316604091600080845192610e648685610874565b602084527f5361666545524332303a206c6f772d6c6576656c2063616c6c206661696c6564602085015260208151910182865af13d15610f6a573d9067ffffffffffffffff8211610842578451610eda949092610ecb601f8201601f191660200185610874565b83523d6000602085013e610f73565b8051908115918215610f47575b505015610ef15750565b5162461bcd60e51b815260206004820152602a60248201527f5361666545524332303a204552433230206f7065726174696f6e20646964206e6044820152691bdd081cdd58d8d9595960b21b6064820152608490fd5b81925090602091810103126100df576020015180151581036100df573880610ee7565b91610eda926060915b91929015610fd55750815115610f87575090565b3b15610f905790565b60405162461bcd60e51b815260206004820152601d60248201527f416464726573733a2063616c6c20746f206e6f6e2d636f6e74726163740000006044820152606490fd5b825190915015610fe85750805190602001fd5b6040519062461bcd60e51b8252602060048301528181519182602483015260005b83811061102b5750508160006044809484010152601f80199101168101030190fd5b6020828201810151604487840101528593500161100956fea2646970667358221220e316727f73ca176a577c804fb55d526be4c99bf2c8e17ad5f70d2348d7109e2b64736f6c634300081a0033","linkReferences":{}},"methodIdentifiers":{"availableTokens(address)":"94cb0947","claimAvailableTokens()":"252ffe64","claimableRewards(address)":"dc01f60d","currentBalance(address)":"9e546c38","harvest()":"4641257d","lastRewardBlock()":"a9f8d181","processFees()":"ba69ebed","rewardData()":"6061ffc3","stUsdc()":"d7ba31d2","stake(uint256)":"a694fc3a","stakupToken()":"93a0ecd0","totalStakeUpStaked()":"f9f0391a","unstake(uint256,bool)":"9ebea88c","userStakingData(address)":"b72e6e03","vestTokens(address,uint256)":"632a3e52"},"id":103}