{"abi":[{"type":"function","name":"deploy_gauge","inputs":[{"name":"","type":"address","internalType":"address"}],"outputs":[{"name":"","type":"address","internalType":"address"}],"stateMutability":"nonpayable"},{"type":"function","name":"deploy_plain_pool","inputs":[{"name":"","type":"string","internalType":"string"},{"name":"","type":"string","internalType":"string"},{"name":"","type":"address[]","internalType":"address[]"},{"name":"","type":"uint256","internalType":"uint256"},{"name":"","type":"uint256","internalType":"uint256"},{"name":"","type":"uint256","internalType":"uint256"},{"name":"","type":"uint256","internalType":"uint256"},{"name":"","type":"uint256","internalType":"uint256"},{"name":"","type":"uint8[]","internalType":"uint8[]"},{"name":"","type":"bytes4[]","internalType":"bytes4[]"},{"name":"","type":"address[]","internalType":"address[]"}],"outputs":[{"name":"","type":"address","internalType":"address"}],"stateMutability":"pure"}],"bytecode":{"object":"0x608080604052346015576105cd908161001b8239f35b600080fdfe6080604052600436101561001257600080fd5b60003560e01c80635bcd3d83146100b5576396bebb341461003257600080fd5b346100b05760203660031901126100b05761004b6102c5565b506040516102588082018281106001600160401b0382111761009a578291610340833903906000f0801561008e576040516001600160a01b039091168152602090f35b6040513d6000823e3d90fd5b634e487b7160e01b600052604160045260246000fd5b600080fd5b346100b0576101603660031901126100b0576004356001600160401b0381116100b0576100e690369060040161025c565b506024356001600160401b0381116100b05761010690369060040161025c565b506044356001600160401b0381116100b0576101269036906004016102db565b50610104356001600160401b0381116100b057366023820112156100b0578060040135906024602061015f61015a856102ae565b610237565b848152019260051b820101903682116100b057602401915b81831061021d57610124356001600160401b0381116100b057366023820112156100b057806004013590602460206101b161015a856102ae565b848152019260051b820101903682116100b057602401915b8183106101fc57610144356001600160401b0381116100b0576101f09036906004016102db565b50602060405160008152f35b82356001600160e01b0319811681036100b0578152602092830192016101c9565b823560ff811681036100b057815260209283019201610177565b6040519190601f01601f191682016001600160401b0381118382101761009a57604052565b81601f820112156100b0578035906001600160401b03821161009a5761028b601f8301601f1916602001610237565b92828452602083830101116100b057816000926020809301838601378301015290565b6001600160401b03811161009a5760051b60200190565b600435906001600160a01b03821682036100b057565b9080601f830112156100b0578135906102f661015a836102ae565b9260208085858152019360051b8201019182116100b057602001915b81831061031f5750505090565b82356001600160a01b03811681036100b05781526020928301920161031256fe6080806040523460155761023d908161001b8239f35b600080fdfe608080604052600436101561001357600080fd5b60003560e01c90816354c49fe9146101d75750806393f7aa67146100c8578063aace1d48146100ad5763e8de0d4d1461004b57600080fd5b346100a85760403660031901126100a8576100646101f1565b6024356001600160a01b03811691908290036100a857600080546001600160a01b03929092166001600160a01b031992831617905560018054909116919091179055005b600080fd5b346100a85760203660031901126100a8576100c66101f1565b005b346100a85760403660031901126100a8576100e16101f1565b6001546001600160a01b031633036101a15760206000916064604051809481936323b872dd60e01b8352336004840152306024840152602435604484015260018060a01b03165af180156101955761013557005b60203d60201161018e575b601f8101601f1916820167ffffffffffffffff811183821017610178576020918391604052810103126100a85751801515036100a857005b634e487b7160e01b600052604160045260246000fd5b503d610140565b6040513d6000823e3d90fd5b60405162461bcd60e51b815260206004820152600e60248201526d24b73b30b634b21031b0b63632b960911b6044820152606490fd5b346100a85760203660031901126100a85780600060209252f35b600435906001600160a01b03821682036100a85756fea264697066735822122087e5212e162e358a07b6a6f84a8697e628d459450173a75ed648648b3b137e5164736f6c634300081a0033a2646970667358221220959efe95053d6bce51a1dc30821cacd1f7a616e0d9acbbb05cc241b948db8d8b64736f6c634300081a0033","linkReferences":{}},"methodIdentifiers":{"deploy_gauge(address)":"96bebb34","deploy_plain_pool(string,string,address[],uint256,uint256,uint256,uint256,uint256,uint8[],bytes4[],address[])":"5bcd3d83"},"id":64}