{"abi":[{"type":"constructor","inputs":[{"name":"bloomPool_","type":"address","internalType":"address"},{"name":"decimals_","type":"uint8","internalType":"uint8"}],"stateMutability":"nonpayable"},{"type":"function","name":"balanceOf","inputs":[{"name":"owner","type":"address","internalType":"address"},{"name":"id","type":"uint256","internalType":"uint256"}],"outputs":[{"name":"result","type":"uint256","internalType":"uint256"}],"stateMutability":"view"},{"type":"function","name":"balanceOfBatch","inputs":[{"name":"owners","type":"address[]","internalType":"address[]"},{"name":"ids","type":"uint256[]","internalType":"uint256[]"}],"outputs":[{"name":"balances","type":"uint256[]","internalType":"uint256[]"}],"stateMutability":"view"},{"type":"function","name":"bloomPool","inputs":[],"outputs":[{"name":"","type":"address","internalType":"address"}],"stateMutability":"view"},{"type":"function","name":"burn","inputs":[{"name":"id","type":"uint256","internalType":"uint256"},{"name":"account","type":"address","internalType":"address"},{"name":"amount","type":"uint256","internalType":"uint256"}],"outputs":[],"stateMutability":"nonpayable"},{"type":"function","name":"decimals","inputs":[],"outputs":[{"name":"","type":"uint8","internalType":"uint8"}],"stateMutability":"view"},{"type":"function","name":"isApprovedForAll","inputs":[{"name":"owner","type":"address","internalType":"address"},{"name":"operator","type":"address","internalType":"address"}],"outputs":[{"name":"result","type":"bool","internalType":"bool"}],"stateMutability":"view"},{"type":"function","name":"mint","inputs":[{"name":"id","type":"uint256","internalType":"uint256"},{"name":"account","type":"address","internalType":"address"},{"name":"amount","type":"uint256","internalType":"uint256"}],"outputs":[],"stateMutability":"nonpayable"},{"type":"function","name":"name","inputs":[],"outputs":[{"name":"","type":"string","internalType":"string"}],"stateMutability":"pure"},{"type":"function","name":"safeBatchTransferFrom","inputs":[{"name":"from","type":"address","internalType":"address"},{"name":"to","type":"address","internalType":"address"},{"name":"ids","type":"uint256[]","internalType":"uint256[]"},{"name":"amounts","type":"uint256[]","internalType":"uint256[]"},{"name":"data","type":"bytes","internalType":"bytes"}],"outputs":[],"stateMutability":"nonpayable"},{"type":"function","name":"safeTransferFrom","inputs":[{"name":"from","type":"address","internalType":"address"},{"name":"to","type":"address","internalType":"address"},{"name":"id","type":"uint256","internalType":"uint256"},{"name":"amount","type":"uint256","internalType":"uint256"},{"name":"data","type":"bytes","internalType":"bytes"}],"outputs":[],"stateMutability":"nonpayable"},{"type":"function","name":"setApprovalForAll","inputs":[{"name":"operator","type":"address","internalType":"address"},{"name":"isApproved","type":"bool","internalType":"bool"}],"outputs":[],"stateMutability":"nonpayable"},{"type":"function","name":"supportsInterface","inputs":[{"name":"interfaceId","type":"bytes4","internalType":"bytes4"}],"outputs":[{"name":"result","type":"bool","internalType":"bool"}],"stateMutability":"view"},{"type":"function","name":"symbol","inputs":[],"outputs":[{"name":"","type":"string","internalType":"string"}],"stateMutability":"pure"},{"type":"function","name":"totalSupply","inputs":[{"name":"id","type":"uint256","internalType":"uint256"}],"outputs":[{"name":"","type":"uint256","internalType":"uint256"}],"stateMutability":"view"},{"type":"function","name":"uri","inputs":[{"name":"","type":"uint256","internalType":"uint256"}],"outputs":[{"name":"","type":"string","internalType":"string"}],"stateMutability":"view"},{"type":"event","name":"ApprovalForAll","inputs":[{"name":"owner","type":"address","indexed":true,"internalType":"address"},{"name":"operator","type":"address","indexed":true,"internalType":"address"},{"name":"isApproved","type":"bool","indexed":false,"internalType":"bool"}],"anonymous":false},{"type":"event","name":"TransferBatch","inputs":[{"name":"operator","type":"address","indexed":true,"internalType":"address"},{"name":"from","type":"address","indexed":true,"internalType":"address"},{"name":"to","type":"address","indexed":true,"internalType":"address"},{"name":"ids","type":"uint256[]","indexed":false,"internalType":"uint256[]"},{"name":"amounts","type":"uint256[]","indexed":false,"internalType":"uint256[]"}],"anonymous":false},{"type":"event","name":"TransferSingle","inputs":[{"name":"operator","type":"address","indexed":true,"internalType":"address"},{"name":"from","type":"address","indexed":true,"internalType":"address"},{"name":"to","type":"address","indexed":true,"internalType":"address"},{"name":"id","type":"uint256","indexed":false,"internalType":"uint256"},{"name":"amount","type":"uint256","indexed":false,"internalType":"uint256"}],"anonymous":false},{"type":"event","name":"URI","inputs":[{"name":"value","type":"string","indexed":false,"internalType":"string"},{"name":"id","type":"uint256","indexed":true,"internalType":"uint256"}],"anonymous":false},{"type":"error","name":"AccountBalanceOverflow","inputs":[]},{"type":"error","name":"ArrayLengthsMismatch","inputs":[]},{"type":"error","name":"InsufficientBalance","inputs":[]},{"type":"error","name":"NotBloom","inputs":[]},{"type":"error","name":"NotOwnerNorApproved","inputs":[]},{"type":"error","name":"TransferToNonERC1155ReceiverImplementer","inputs":[]},{"type":"error","name":"TransferToZeroAddress","inputs":[]}],"bytecode":{"object":"0x60c034608f57601f610cca38819003918201601f19168301916001600160401b038311848410176094578084926040948552833981010312608f578051906001600160a01b0382168203608f57602001519060ff82168203608f5760805260a052604051610c1f90816100ab8239608051818181610361015281816104a601526109b2015260a051816106f10152f35b600080fd5b634e487b7160e01b600052604160045260246000fdfe608080604052600436101561001357600080fd5b60003560e01c908162fdd58e14610a755750806301ffc9a714610a2857806306fdde03146109e15780630b91aa8a1461099c5780630e89341c146109485780632eb2c2d614610715578063313ce567146106d75780634e1273f4146105dd578063836a10401461049557806395d89b41146104575780639eea5f6614610350578063a22cb465146102db578063bd85b039146102af578063e985e9c5146102695763f242432a146100c357600080fd5b346102645760a0366003190112610264576100dc610aaf565b6100e4610ac5565b604435916064359160843567ffffffffffffffff81116102645761010c903690600401610b55565b909260601b679a31110384e0b0c9179160601b679a31110384e0b0c917918060205260601c928260601c9283156102565784330361023a575b866000526040600020805480881161022c578790039055602052604060002080549086820191821061021e5755846020528284337fc3d58168c5ae7397731d063d5bbf3d657854427343f4c083240f7aacaa2d0f6260406000a4823b6101a757005b60209460405196879563f23a6e618752338888015260408701526060860152608085015260a08085015281850190601f190160c085013760c401906000601c8401915af11561020f575b51630dc5919f60e01b0161020157005b639c05499b6000526004601cfd5b3d156101f1573d6000823e3d90fd5b6301336cea6000526004601cfd5b63f4d678b86000526004601cfd5b336000526034600c205461014557634b6e7f186000526004601cfd5b63ea553b346000526004601cfd5b600080fd5b3461026457604036600319011261026457610282610aaf565b61028a610ac5565b90679a31110384e0b0c960205260145260005260206034600c20546040519015158152f35b346102645760203660031901126102645760043560005260006020526020604060002054604051908152f35b34610264576040366003190112610264576102f4610aaf565b60243580151580910361026457679a31110384e0b0c96020523360145281600052806034600c205560005260018060a01b0316337f17307eab39ab6107e8899845ad3d59bd9653f200f220920489ca2b5937696c3160206000a3005b346102645761035e36610b83565b917f00000000000000000000000000000000000000000000000000000000000000006001600160a01b03163303610446576000526000602052604060002080549083820391821161043057558060601b80679a31110384e0b0c9176020521560011715610414575b6000805260406000209182549283821161022c578160009403905560205260018060a01b0316337fc3d58168c5ae7397731d063d5bbf3d657854427343f4c083240f7aacaa2d0f62604084a4005b600080526034600c20546103c657634b6e7f186000526004601cfd5b634e487b7160e01b600052601160045260246000fd5b6301ecea6d60e01b60005260046000fd5b34610264576000366003190112610264576104916104756040610bad565b600381526254425960e81b602082015260405191829182610adb565b0390f35b34610264576104a336610b83565b917f00000000000000000000000000000000000000000000000000000000000000006001600160a01b0316330361044657806000526000602052604060002080549084820180921161043057556020916104fc83610bad565b600081528160601b1561025657679a31110384e0b0c984528160145282600052604060002080549086820191821061021e57558484526001600160a01b0382166000337fc3d58168c5ae7397731d063d5bbf3d657854427343f4c083240f7aacaa2d0f62604083a4813b61056c57005b60405194859363f23a6e6185523386860152600060408601526060850152608084015260a08084015280518091818060c08701526105c9575b505060c401906000601c8401915af11561020f5751630dc5919f60e01b0161020157005b818660e08701920160045afa5080866105a5565b346102645760403660031901126102645760043567ffffffffffffffff81116102645761060e903690600401610b24565b9060243567ffffffffffffffff81116102645761062f903690600401610b24565b9283036106c9576040519280845260051b806020858201016040525b610695578360405180916020820160208352815180915260206040840192019060005b81811061067c575050500390f35b825184528594506020938401939092019160010161066e565b601f1981840181013560601b679a31110384e0b0c9176020528282018101356000908152604090205485830152018061064b565b633b800a466000526004601cfd5b3461026457600036600319011261026457602060405160ff7f0000000000000000000000000000000000000000000000000000000000000000168152f35b346102645760a03660031901126102645761072e610aaf565b610736610ac5565b60443567ffffffffffffffff811161026457610756903690600401610b24565b60649291923567ffffffffffffffff811161026457610779903690600401610b24565b60849591953567ffffffffffffffff81116102645761079c903690600401610b55565b92909184036106c95760601b679a31110384e0b0c9179360601b679a31110384e0b0c91791846020528460601c948360601c9485156102565786330361092c575b60051b9384805b6108dd5750505060405191604083528360200196601f19019787896040860137606085016020850152601f1901968088606087870101378587868001957f4a39dc06d4c0dbc64b70af90fd698a233a518aa5d07e595d983b8c0526c8f7fb33916080890190a4853b61085257005b60209760e0899660e498600052836040519c8d9b63bc197c818d528c8b3391015260408d015260a060608d015260c08c013760c0810160808b01528901013760e0830160a087015281840190601f190160e085858901010137010101601c8201600080515af1156108ce575b516343e6837f60e01b0161020157005b3d156108be573d6000823e3d90fd5b80601f190190601f19818c0101359084602052601f19908b0101356000526040600020805480831161022c57829003905582602052604060002090815490810190811061021e578291556107e4565b336000526034600c20546107dd57634b6e7f186000526004601cfd5b34610264576020366003190112610264576104916109666040610bad565b601981527f68747470733a2f2f626c6f6f6d2e67617264656e2f6c69766500000000000000602082015260405191829182610adb565b34610264576000366003190112610264576040517f00000000000000000000000000000000000000000000000000000000000000006001600160a01b03168152602090f35b34610264576000366003190112610264576104916109ff6040610bad565b601081526f15195c9b48109bdd5b9908165a595b1960821b602082015260405191829182610adb565b34610264576020366003190112610264576004356001600160e01b0319811681036102645760209060e01c60405190630e89341c8114906301ffc9a763d9b67a2682149114171715158152f35b3461026457604036600319011261026457602090610a91610aaf565b679a31110384e0b0c983526014526024356000526040600020548152f35b600435906001600160a01b038216820361026457565b602435906001600160a01b038216820361026457565b91909160208152825180602083015260005b818110610b0e575060409293506000838284010152601f8019910116010190565b8060208092870101516040828601015201610aed565b9181601f840112156102645782359167ffffffffffffffff8311610264576020808501948460051b01011161026457565b9181601f840112156102645782359167ffffffffffffffff8311610264576020838186019501011161026457565b606090600319011261026457600435906024356001600160a01b0381168103610264579060443590565b6040519190601f01601f1916820167ffffffffffffffff811183821017610bd357604052565b634e487b7160e01b600052604160045260246000fdfea2646970667358221220940682c41f751e7712c74152088c7d7c3ecd30f4f8a11d05798de15b37d0fbf064736f6c634300081a0033","linkReferences":{}},"methodIdentifiers":{"balanceOf(address,uint256)":"00fdd58e","balanceOfBatch(address[],uint256[])":"4e1273f4","bloomPool()":"0b91aa8a","burn(uint256,address,uint256)":"9eea5f66","decimals()":"313ce567","isApprovedForAll(address,address)":"e985e9c5","mint(uint256,address,uint256)":"836a1040","name()":"06fdde03","safeBatchTransferFrom(address,address,uint256[],uint256[],bytes)":"2eb2c2d6","safeTransferFrom(address,address,uint256,uint256,bytes)":"f242432a","setApprovalForAll(address,bool)":"a22cb465","supportsInterface(bytes4)":"01ffc9a7","symbol()":"95d89b41","totalSupply(uint256)":"bd85b039","uri(uint256)":"0e89341c"},"id":37}