{"abi":[{"type":"constructor","inputs":[{"name":"wstUsdc_","type":"address","internalType":"address"},{"name":"layerZeroEndpoint","type":"address","internalType":"address"},{"name":"bridgeOperator","type":"address","internalType":"address"}],"stateMutability":"nonpayable"},{"type":"function","name":"allowInitializePath","inputs":[{"name":"origin","type":"tuple","internalType":"struct Origin","components":[{"name":"srcEid","type":"uint32","internalType":"uint32"},{"name":"sender","type":"bytes32","internalType":"bytes32"},{"name":"nonce","type":"uint64","internalType":"uint64"}]}],"outputs":[{"name":"","type":"bool","internalType":"bool"}],"stateMutability":"view"},{"type":"function","name":"bridgeByEid","inputs":[{"name":"eid","type":"uint32","internalType":"uint32"}],"outputs":[{"name":"","type":"address","internalType":"address"}],"stateMutability":"view"},{"type":"function","name":"bridgeOperator","inputs":[],"outputs":[{"name":"","type":"address","internalType":"address"}],"stateMutability":"view"},{"type":"function","name":"bridgeWstUsdc","inputs":[{"name":"destinationAddress","type":"address","internalType":"address"},{"name":"wstUsdcAmount","type":"uint256","internalType":"uint256"},{"name":"dstEid","type":"uint32","internalType":"uint32"},{"name":"settings","type":"tuple","internalType":"struct ILayerZeroSettings.LzSettings","components":[{"name":"options","type":"bytes","internalType":"bytes"},{"name":"fee","type":"tuple","internalType":"struct MessagingFee","components":[{"name":"nativeFee","type":"uint256","internalType":"uint256"},{"name":"lzTokenFee","type":"uint256","internalType":"uint256"}]},{"name":"refundRecipient","type":"address","internalType":"address"}]}],"outputs":[{"name":"bridgingReceipt","type":"tuple","internalType":"struct ILayerZeroSettings.LzBridgeReceipt","components":[{"name":"msgReceipt","type":"tuple","internalType":"struct MessagingReceipt","components":[{"name":"guid","type":"bytes32","internalType":"bytes32"},{"name":"nonce","type":"uint64","internalType":"uint64"},{"name":"fee","type":"tuple","internalType":"struct MessagingFee","components":[{"name":"nativeFee","type":"uint256","internalType":"uint256"},{"name":"lzTokenFee","type":"uint256","internalType":"uint256"}]}]},{"name":"oftReceipt","type":"tuple","internalType":"struct OFTReceipt","components":[{"name":"amountSentLD","type":"uint256","internalType":"uint256"},{"name":"amountReceivedLD","type":"uint256","internalType":"uint256"}]}]}],"stateMutability":"payable"},{"type":"function","name":"composeMsgSender","inputs":[],"outputs":[{"name":"sender","type":"address","internalType":"address"}],"stateMutability":"view"},{"type":"function","name":"endpoint","inputs":[],"outputs":[{"name":"","type":"address","internalType":"contract ILayerZeroEndpointV2"}],"stateMutability":"view"},{"type":"function","name":"forceSetDelegate","inputs":[{"name":"newDelegate","type":"address","internalType":"address"}],"outputs":[],"stateMutability":"nonpayable"},{"type":"function","name":"lzCompose","inputs":[{"name":"_oApp","type":"address","internalType":"address"},{"name":"","type":"bytes32","internalType":"bytes32"},{"name":"_message","type":"bytes","internalType":"bytes"},{"name":"","type":"address","internalType":"address"},{"name":"","type":"bytes","internalType":"bytes"}],"outputs":[],"stateMutability":"payable"},{"type":"function","name":"lzReceive","inputs":[{"name":"_origin","type":"tuple","internalType":"struct Origin","components":[{"name":"srcEid","type":"uint32","internalType":"uint32"},{"name":"sender","type":"bytes32","internalType":"bytes32"},{"name":"nonce","type":"uint64","internalType":"uint64"}]},{"name":"_guid","type":"bytes32","internalType":"bytes32"},{"name":"_message","type":"bytes","internalType":"bytes"},{"name":"_executor","type":"address","internalType":"address"},{"name":"_extraData","type":"bytes","internalType":"bytes"}],"outputs":[],"stateMutability":"payable"},{"type":"function","name":"nextNonce","inputs":[{"name":"","type":"uint32","internalType":"uint32"},{"name":"","type":"bytes32","internalType":"bytes32"}],"outputs":[{"name":"nonce","type":"uint64","internalType":"uint64"}],"stateMutability":"view"},{"type":"function","name":"oAppVersion","inputs":[],"outputs":[{"name":"senderVersion","type":"uint64","internalType":"uint64"},{"name":"receiverVersion","type":"uint64","internalType":"uint64"}],"stateMutability":"pure"},{"type":"function","name":"owner","inputs":[],"outputs":[{"name":"","type":"address","internalType":"address"}],"stateMutability":"view"},{"type":"function","name":"peers","inputs":[{"name":"eid","type":"uint32","internalType":"uint32"}],"outputs":[{"name":"peer","type":"bytes32","internalType":"bytes32"}],"stateMutability":"view"},{"type":"function","name":"renounceOwnership","inputs":[],"outputs":[],"stateMutability":"nonpayable"},{"type":"function","name":"setBridgeOperator","inputs":[{"name":"bridgeOperator_","type":"address","internalType":"address"}],"outputs":[],"stateMutability":"nonpayable"},{"type":"function","name":"setDelegate","inputs":[{"name":"_delegate","type":"address","internalType":"address"}],"outputs":[],"stateMutability":"nonpayable"},{"type":"function","name":"setPeer","inputs":[{"name":"eid","type":"uint32","internalType":"uint32"},{"name":"peer","type":"bytes32","internalType":"bytes32"}],"outputs":[],"stateMutability":"nonpayable"},{"type":"function","name":"setWstUsdcBridge","inputs":[{"name":"eid","type":"uint32","internalType":"uint32"},{"name":"bridge","type":"address","internalType":"address"}],"outputs":[],"stateMutability":"nonpayable"},{"type":"function","name":"stUsdc","inputs":[],"outputs":[{"name":"","type":"address","internalType":"address"}],"stateMutability":"view"},{"type":"function","name":"transferOwnership","inputs":[{"name":"newOwner","type":"address","internalType":"address"}],"outputs":[],"stateMutability":"nonpayable"},{"type":"function","name":"wstUsdc","inputs":[],"outputs":[{"name":"","type":"address","internalType":"address"}],"stateMutability":"view"},{"type":"event","name":"OwnershipTransferred","inputs":[{"name":"previousOwner","type":"address","indexed":true,"internalType":"address"},{"name":"newOwner","type":"address","indexed":true,"internalType":"address"}],"anonymous":false},{"type":"event","name":"PeerSet","inputs":[{"name":"eid","type":"uint32","indexed":false,"internalType":"uint32"},{"name":"peer","type":"bytes32","indexed":false,"internalType":"bytes32"}],"anonymous":false},{"type":"event","name":"WstUsdcBridged","inputs":[{"name":"srcEid","type":"uint32","indexed":false,"internalType":"uint32"},{"name":"dstEid","type":"uint32","indexed":false,"internalType":"uint32"},{"name":"wstUsdcAmount","type":"uint256","indexed":false,"internalType":"uint256"}],"anonymous":false},{"type":"error","name":"InvalidDelegate","inputs":[]},{"type":"error","name":"InvalidEndpointCall","inputs":[]},{"type":"error","name":"InvalidOApp","inputs":[]},{"type":"error","name":"InvalidPeerID","inputs":[]},{"type":"error","name":"LZComposeFailed","inputs":[]},{"type":"error","name":"LzTokenUnavailable","inputs":[]},{"type":"error","name":"NoPeer","inputs":[{"name":"eid","type":"uint32","internalType":"uint32"}]},{"type":"error","name":"NotEnoughNative","inputs":[{"name":"msgValue","type":"uint256","internalType":"uint256"}]},{"type":"error","name":"OnlyEndpoint","inputs":[{"name":"addr","type":"address","internalType":"address"}]},{"type":"error","name":"OnlyPeer","inputs":[{"name":"eid","type":"uint32","internalType":"uint32"},{"name":"sender","type":"bytes32","internalType":"bytes32"}]},{"type":"error","name":"UnauthorizedCaller","inputs":[]},{"type":"error","name":"ZeroAddress","inputs":[]}],"bytecode":{"object":"0x60e0806040523461022557600060608261157d8038038091610021828561022a565b8339810103126101d65761003482610263565b61004060208401610263565b926001600160a01b039061005690604001610263565b1680156102165782546001600160a01b031990811682178455600180549182163390811790915560405195916001600160a01b03167f8be0079c531659141344cd1fd0a4f28419497f9722a3daafe3b4186f6b6457e08680a36001600160a01b0316608081905290813b1561021257602485858094829463ca5eb5e160e01b845260048401525af1928315610207576004936101f2575b506001600160a01b031660c0819052604051636bdd18e960e11b81529260209184919082905afa9182156101e5578192610198575b6001600160a01b03831660a052604051611305908161027882396080518181816105270152818161091d01528181610b4701528181610ce601528181610de10152610f3f015260a0518181816104c50152818161085a01526108f1015260c05181818161027f015281816109a70152610c530152f35b9091506020813d6020116101dd575b816101b46020938361022a565b810103126101d95751906001600160a01b03821682036101d657503880610122565b80fd5b5080fd5b3d91506101a7565b50604051903d90823e3d90fd5b91610200816020939461022a565b91906100ed565b6040513d84823e3d90fd5b8380fd5b63d92e233d60e01b8352600483fd5b600080fd5b601f909101601f19168101906001600160401b0382119082101761024d57604052565b634e487b7160e01b600052604160045260246000fd5b51906001600160a01b03821682036102255756fe6080604052600436101561001257600080fd5b6000803560e01c80630cde821c14610fe657806313137d6514610edc57806317442b7014610eba5780633400288b14610e37578063590665c214610e105780635e280f1114610dcb578063715018a614610d6e578063765aef4914610ca85780637d25a05e14610c825780637ffae21f14610c3d5780638da5cb5b14610c14578063b92d0eff14610bf9578063bb0b6a5314610bc4578063ca5eb5e114610b22578063d0a1026014610889578063d7ba31d214610844578063d7c350d0146107a5578063e40e459814610767578063e707a5e114610209578063f2fde38b146101405763ff7bd03d1461010457600080fd5b3461013d57606036600319011261013d5760209060409063ffffffff6101286110b5565b16815260028352205460405190602435148152f35b80fd5b503461013d57602036600319011261013d5761015a611033565b6101626111c8565b6001600160a01b031680156101b557600180546001600160a01b0319811683179091556001600160a01b03167f8be0079c531659141344cd1fd0a4f28419497f9722a3daafe3b4186f6b6457e08380a380f35b60405162461bcd60e51b815260206004820152602660248201527f4f776e61626c653a206e6577206f776e657220697320746865207a65726f206160448201526564647265737360d01b6064820152608490fd5b50608036600319011261013d5761021e611033565b816024356044359063ffffffff8216809203610763576064356001600160401b03811161075f57803603608060031982011261075b5761025c611150565b506040516323b872dd60e01b8152336004820152306024820152604481018490527f00000000000000000000000000000000000000000000000000000000000000006001600160a01b03166020826064818a855af191821561072557602092610730575b50602460405180988193636f074d1f60e11b83528860048401525af19485156107255787956106ec575b506102f3611150565b50600482013590602219018112156106d2578101906004820135916001600160401b0383116106ca576024019180360383136106ca57606060c0604051610339816110c8565b8a81528a60208201528a60408201528a838201528260808201528260a082015201528488526003602052856103aa60018060a01b0360408b2054169861039c604051998a926020840160209093929193604081019460018060a01b031681520152565b03601f19810189528861112f565b6103da604051946103ba866110c8565b87865260208601998a526040860193838552606087019384523691611220565b966080850197885260a08501908152602097604051926103fa8a8561112f565b8b845260c0870193845260648601356001600160a01b03811695908690036106e8576040519b8c9863c7c7f5b360e01b8a5260048a01608090525163ffffffff1660848a01525160a48901525160c48801525160e487015251610104860160e09052610164860161046a9161128e565b905185820360831901610124870152610483919061128e565b90518482036083190161014486015261049c919061128e565b916024810135602485015260440135604484015260648301520384349181600160a01b600190037f000000000000000000000000000000000000000000000000000000000000000016935a9460c095f19182156106dd578594869361064d575b506040519461050a86611114565b855283850192835260405163416ecebf60e01b81529584876004817f00000000000000000000000000000000000000000000000000000000000000006001600160a01b03165afa9687156106405781976105dc575b505060c0957f1537452740eebb4db7d7627377a688a37e3cd8d4975ba4bdfb364e742eefb7709260609263ffffffff60405193168352868301526040820152a181604080519451805186526001600160401b03838201511683870152015180516040860152015160608401525180516080840152015160a0820152f35b909196508481813d8311610639575b6105f5818361112f565b8101031261063557519063ffffffff8216820361013d575094807f1537452740eebb4db7d7627377a688a37e3cd8d4975ba4bdfb364e742eefb77061055f565b5080fd5b503d6105eb565b50604051903d90823e3d90fd5b9450915060c03d60c0116106d6575b610666818661112f565b84019380850360c081126106d2576080136106ce5760405194610688866110f9565b81518652848201516001600160401b03811681036106ca576106c392608091878901526106b88360408301611266565b604089015201611266565b91386104fc565b8780fd5b8580fd5b8680fd5b503d61065c565b6040513d87823e3d90fd5b8c80fd5b9094506020813d60201161071d575b816107086020938361112f565b81010312610718575193386102ea565b600080fd5b3d91506106fb565b6040513d89823e3d90fd5b61074f90833d8511610754575b610747818361112f565b8101906111b0565b6102c0565b503d61073d565b8480fd5b8380fd5b8280fd5b503461013d57602036600319011261013d5760209063ffffffff6107896110a2565b16815260038252604060018060a01b0391205416604051908152f35b503461013d57604036600319011261013d576107bf6110a2565b6024356001600160a01b03811691908290036107635782546001600160a01b031633036108355763ffffffff16801561082657811561081757825260036020526040822080546001600160a01b031916909117905580f35b63d92e233d60e01b8352600483fd5b6323eae4a560e21b8352600483fd5b635c427cd960e01b8352600483fd5b503461013d578060031936011261013d576040517f00000000000000000000000000000000000000000000000000000000000000006001600160a01b03168152602090f35b5060a036600319011261013d5761089e611033565b6044356001600160401b038111610763576108bd903690600401611075565b6108c561105f565b506084356001600160401b03811161075b576108e5903690600401611075565b50506001600160a01b037f000000000000000000000000000000000000000000000000000000000000000081169316839003610b13577f00000000000000000000000000000000000000000000000000000000000000006001600160a01b03163303610b045780604c1161075f57610966913691604b190190604c01611220565b6040818051810103126107635760208101516001600160a01b038116919082900361075f57604090810151905163095ea7b360e01b81526001600160a01b037f0000000000000000000000000000000000000000000000000000000000000000166004820181905260248201839052939192916020908290604490829089905af180156106dd57610ae7575b5060405191630ea598cb60e41b8352600483015260208260248187875af1918215610adc578492610aa6575b5060405163a9059cbb60e01b81526001600160a01b0390911660048201526024810191909152906020908290818581604481015b03925af1908115610a9b578291610a7c575b5015610a6d5780f35b63b5dd518d60e01b8152600490fd5b610a95915060203d60201161075457610747818361112f565b38610a64565b6040513d84823e3d90fd5b91506020823d602011610ad4575b81610ac16020938361112f565b8101031261071857905190610a52610a1e565b3d9150610ab4565b6040513d86823e3d90fd5b610aff9060203d60201161075457610747818361112f565b6109f2565b635c427cd960e01b8452600484fd5b630919067560e41b8452600484fd5b503461013d57602036600319011261013d5780610b3d611033565b610b456111c8565b7f00000000000000000000000000000000000000000000000000000000000000006001600160a01b031690813b15610bc05760405163ca5eb5e160e01b81526001600160a01b0390911660048201529082908290602490829084905af18015610a9b57610baf5750f35b81610bb99161112f565b61013d5780f35b5050fd5b503461013d57602036600319011261013d57604060209163ffffffff610be86110a2565b168152600283522054604051908152f35b503461013d578060031936011261013d576020604051308152f35b503461013d578060031936011261013d576001546040516001600160a01b039091168152602090f35b503461013d578060031936011261013d576040517f00000000000000000000000000000000000000000000000000000000000000006001600160a01b03168152602090f35b503461013d57604036600319011261013d57602090610c9f6110a2565b50604051908152f35b503461013d57602036600319011261013d57610cc2611033565b81546001600160a01b03163303610d5f576001600160a01b03168015610d505781907f00000000000000000000000000000000000000000000000000000000000000006001600160a01b031690813b15610bc057829160248392604051958693849263ca5eb5e160e01b845260048401525af1801561064057610d425780f35b610d4b9161112f565b388180f35b63d92e233d60e01b8252600482fd5b635c427cd960e01b8252600482fd5b503461013d578060031936011261013d57610d876111c8565b600180546001600160a01b0319811690915581906001600160a01b03167f8be0079c531659141344cd1fd0a4f28419497f9722a3daafe3b4186f6b6457e08280a380f35b503461013d578060031936011261013d576040517f00000000000000000000000000000000000000000000000000000000000000006001600160a01b03168152602090f35b503461013d578060031936011261013d57546040516001600160a01b039091168152602090f35b503461013d57604036600319011261013d57610e516110a2565b815460243591906001600160a01b031633036108355763ffffffff1690811561082657801561081757816040917f238399d427b947898edb290f5ff0f9109849b1c3ba196a42e35f00c50a54b98b9385526002602052808386205582519182526020820152a180f35b503461013d578060031936011261013d57604080516001815260016020820152f35b50366003190160e081126106355760601361013d576084356001600160401b03811161063557610f10903690600401611075565b5050610f1a611049565b5060c4356001600160401b03811161063557610f3a903690600401611075565b5050337f00000000000000000000000000000000000000000000000000000000000000006001600160a01b031603610fd35763ffffffff610f796110b5565b1680825260026020526040822054908115610fc15750602435809103610f9d575080f35b9060449163ffffffff610fae6110b5565b63309afaf360e21b845216600452602452fd5b63f6ff4fb760e01b8352600452602482fd5b6391ac5e4f60e01b815233600452602490fd5b503461013d57602036600319011261013d57611000611033565b8154906001600160a01b0382163303610835576001600160a01b0316908115610817576001600160a01b03191617815580f35b600435906001600160a01b038216820361071857565b60a435906001600160a01b038216820361071857565b606435906001600160a01b038216820361071857565b9181601f84011215610718578235916001600160401b038311610718576020838186019501011161071857565b6004359063ffffffff8216820361071857565b60043563ffffffff811681036107185790565b60e081019081106001600160401b038211176110e357604052565b634e487b7160e01b600052604160045260246000fd5b606081019081106001600160401b038211176110e357604052565b604081019081106001600160401b038211176110e357604052565b90601f801991011681019081106001600160401b038211176110e357604052565b6040519061115d82611114565b8160405161116a816110f9565b600081526000602082015260405161118181611114565b6000815260006020820152604082015281526020604051916111a283611114565b600083526000828401520152565b90816020910312610718575180151581036107185790565b6001546001600160a01b031633036111dc57565b606460405162461bcd60e51b815260206004820152602060248201527f4f776e61626c653a2063616c6c6572206973206e6f7420746865206f776e65726044820152fd5b9291926001600160401b0382116110e35760405191611249601f8201601f19166020018461112f565b829481845281830111610718578281602093846000960137010152565b91908260409103126107185760405161127e81611114565b6020808294805184520151910152565b919082519283825260005b8481106112ba575050826000602080949584010152601f8019910116010190565b8060208092840101518282860101520161129956fea26469706673582212206161cc4964766587ba74d0bfd054c9ec5f5c5a73f50a1fdda5e5c3f7adb2802f64736f6c634300081a0033","linkReferences":{}},"methodIdentifiers":{"allowInitializePath((uint32,bytes32,uint64))":"ff7bd03d","bridgeByEid(uint32)":"e40e4598","bridgeOperator()":"590665c2","bridgeWstUsdc(address,uint256,uint32,(bytes,(uint256,uint256),address))":"e707a5e1","composeMsgSender()":"b92d0eff","endpoint()":"5e280f11","forceSetDelegate(address)":"765aef49","lzCompose(address,bytes32,bytes,address,bytes)":"d0a10260","lzReceive((uint32,bytes32,uint64),bytes32,bytes,address,bytes)":"13137d65","nextNonce(uint32,bytes32)":"7d25a05e","oAppVersion()":"17442b70","owner()":"8da5cb5b","peers(uint32)":"bb0b6a53","renounceOwnership()":"715018a6","setBridgeOperator(address)":"0cde821c","setDelegate(address)":"ca5eb5e1","setPeer(uint32,bytes32)":"3400288b","setWstUsdcBridge(uint32,address)":"d7c350d0","stUsdc()":"d7ba31d2","transferOwnership(address)":"f2fde38b","wstUsdc()":"7ffae21f"},"id":89}