{"abi":[{"type":"function","name":"delegates","inputs":[{"name":"oapp","type":"address","internalType":"address"}],"outputs":[{"name":"delegate","type":"address","internalType":"address"}],"stateMutability":"view"},{"type":"function","name":"setDelegate","inputs":[{"name":"delegate","type":"address","internalType":"address"}],"outputs":[],"stateMutability":"nonpayable"}],"bytecode":{"object":"0x6080806040523460145760f3908161001a8239f35b600080fdfe6080806040526004361015601257600080fd5b60003560e01c908163587cde1e14607c575063ca5eb5e114603257600080fd5b3460775760203660031901126077576004356001600160a01b0381169081900360775733600090815260208190526040902080546001600160a01b0319169091179055005b600080fd5b3460775760203660031901126077576004356001600160a01b0381169190829003607757600091825260208281526040909220546001600160a01b03168152f3fea2646970667358221220f2b3a4b8c806d7b8bb340aca0b9518342a8c6c6dc843954740740d450aa0358a64736f6c634300081a0033","linkReferences":{}},"methodIdentifiers":{"delegates(address)":"587cde1e","setDelegate(address)":"ca5eb5e1"},"id":129}