{"abi":[{"type":"constructor","inputs":[{"name":"asset_","type":"address","internalType":"address"},{"name":"bloomPool_","type":"address","internalType":"address"},{"name":"stakeupStaking_","type":"address","internalType":"address"},{"name":"wstUsdc_","type":"address","internalType":"address"},{"name":"layerZeroEndpoint","type":"address","internalType":"address"},{"name":"bridgeOperator","type":"address","internalType":"address"}],"stateMutability":"nonpayable"},{"type":"function","name":"SEND","inputs":[],"outputs":[{"name":"","type":"uint16","internalType":"uint16"}],"stateMutability":"view"},{"type":"function","name":"SEND_AND_CALL","inputs":[],"outputs":[{"name":"","type":"uint16","internalType":"uint16"}],"stateMutability":"view"},{"type":"function","name":"allowInitializePath","inputs":[{"name":"origin","type":"tuple","internalType":"struct Origin","components":[{"name":"srcEid","type":"uint32","internalType":"uint32"},{"name":"sender","type":"bytes32","internalType":"bytes32"},{"name":"nonce","type":"uint64","internalType":"uint64"}]}],"outputs":[{"name":"","type":"bool","internalType":"bool"}],"stateMutability":"view"},{"type":"function","name":"allowance","inputs":[{"name":"owner","type":"address","internalType":"address"},{"name":"spender","type":"address","internalType":"address"}],"outputs":[{"name":"","type":"uint256","internalType":"uint256"}],"stateMutability":"view"},{"type":"function","name":"approvalRequired","inputs":[],"outputs":[{"name":"","type":"bool","internalType":"bool"}],"stateMutability":"pure"},{"type":"function","name":"approve","inputs":[{"name":"spender","type":"address","internalType":"address"},{"name":"amount","type":"uint256","internalType":"uint256"}],"outputs":[{"name":"","type":"bool","internalType":"bool"}],"stateMutability":"nonpayable"},{"type":"function","name":"asset","inputs":[],"outputs":[{"name":"","type":"address","internalType":"contract IERC20"}],"stateMutability":"view"},{"type":"function","name":"balanceOf","inputs":[{"name":"account","type":"address","internalType":"address"}],"outputs":[{"name":"","type":"uint256","internalType":"uint256"}],"stateMutability":"view"},{"type":"function","name":"bloomPool","inputs":[],"outputs":[{"name":"","type":"address","internalType":"contract IBloomPool"}],"stateMutability":"view"},{"type":"function","name":"bridgeOperator","inputs":[],"outputs":[{"name":"","type":"address","internalType":"address"}],"stateMutability":"view"},{"type":"function","name":"combineOptions","inputs":[{"name":"_eid","type":"uint32","internalType":"uint32"},{"name":"_msgType","type":"uint16","internalType":"uint16"},{"name":"_extraOptions","type":"bytes","internalType":"bytes"}],"outputs":[{"name":"","type":"bytes","internalType":"bytes"}],"stateMutability":"view"},{"type":"function","name":"composeMsgSender","inputs":[],"outputs":[{"name":"sender","type":"address","internalType":"address"}],"stateMutability":"view"},{"type":"function","name":"decimalConversionRate","inputs":[],"outputs":[{"name":"","type":"uint256","internalType":"uint256"}],"stateMutability":"view"},{"type":"function","name":"decimals","inputs":[],"outputs":[{"name":"","type":"uint8","internalType":"uint8"}],"stateMutability":"view"},{"type":"function","name":"decreaseAllowance","inputs":[{"name":"spender","type":"address","internalType":"address"},{"name":"subtractedValue","type":"uint256","internalType":"uint256"}],"outputs":[{"name":"","type":"bool","internalType":"bool"}],"stateMutability":"nonpayable"},{"type":"function","name":"depositAsset","inputs":[{"name":"amount","type":"uint256","internalType":"uint256"}],"outputs":[{"name":"amountMinted","type":"uint256","internalType":"uint256"}],"stateMutability":"nonpayable"},{"type":"function","name":"depositTby","inputs":[{"name":"tbyId","type":"uint256","internalType":"uint256"},{"name":"amount","type":"uint256","internalType":"uint256"}],"outputs":[{"name":"amountMinted","type":"uint256","internalType":"uint256"}],"stateMutability":"nonpayable"},{"type":"function","name":"endpoint","inputs":[],"outputs":[{"name":"","type":"address","internalType":"contract ILayerZeroEndpointV2"}],"stateMutability":"view"},{"type":"function","name":"enforcedOptions","inputs":[{"name":"eid","type":"uint32","internalType":"uint32"},{"name":"msgType","type":"uint16","internalType":"uint16"}],"outputs":[{"name":"enforcedOption","type":"bytes","internalType":"bytes"}],"stateMutability":"view"},{"type":"function","name":"forceSetDelegate","inputs":[{"name":"newDelegate","type":"address","internalType":"address"}],"outputs":[],"stateMutability":"nonpayable"},{"type":"function","name":"globalShares","inputs":[],"outputs":[{"name":"","type":"uint256","internalType":"uint256"}],"stateMutability":"view"},{"type":"function","name":"increaseAllowance","inputs":[{"name":"spender","type":"address","internalType":"address"},{"name":"addedValue","type":"uint256","internalType":"uint256"}],"outputs":[{"name":"","type":"bool","internalType":"bool"}],"stateMutability":"nonpayable"},{"type":"function","name":"isPeer","inputs":[{"name":"_eid","type":"uint32","internalType":"uint32"},{"name":"_peer","type":"bytes32","internalType":"bytes32"}],"outputs":[{"name":"","type":"bool","internalType":"bool"}],"stateMutability":"view"},{"type":"function","name":"lastRateUpdate","inputs":[],"outputs":[{"name":"","type":"uint256","internalType":"uint256"}],"stateMutability":"view"},{"type":"function","name":"lastRedeemedTbyId","inputs":[],"outputs":[{"name":"","type":"uint256","internalType":"uint256"}],"stateMutability":"view"},{"type":"function","name":"lzReceive","inputs":[{"name":"_origin","type":"tuple","internalType":"struct Origin","components":[{"name":"srcEid","type":"uint32","internalType":"uint32"},{"name":"sender","type":"bytes32","internalType":"bytes32"},{"name":"nonce","type":"uint64","internalType":"uint64"}]},{"name":"_guid","type":"bytes32","internalType":"bytes32"},{"name":"_message","type":"bytes","internalType":"bytes"},{"name":"_executor","type":"address","internalType":"address"},{"name":"_extraData","type":"bytes","internalType":"bytes"}],"outputs":[],"stateMutability":"payable"},{"type":"function","name":"lzReceiveAndRevert","inputs":[{"name":"_packets","type":"tuple[]","internalType":"struct InboundPacket[]","components":[{"name":"origin","type":"tuple","internalType":"struct Origin","components":[{"name":"srcEid","type":"uint32","internalType":"uint32"},{"name":"sender","type":"bytes32","internalType":"bytes32"},{"name":"nonce","type":"uint64","internalType":"uint64"}]},{"name":"dstEid","type":"uint32","internalType":"uint32"},{"name":"receiver","type":"address","internalType":"address"},{"name":"guid","type":"bytes32","internalType":"bytes32"},{"name":"value","type":"uint256","internalType":"uint256"},{"name":"executor","type":"address","internalType":"address"},{"name":"message","type":"bytes","internalType":"bytes"},{"name":"extraData","type":"bytes","internalType":"bytes"}]}],"outputs":[],"stateMutability":"payable"},{"type":"function","name":"lzReceiveSimulate","inputs":[{"name":"_origin","type":"tuple","internalType":"struct Origin","components":[{"name":"srcEid","type":"uint32","internalType":"uint32"},{"name":"sender","type":"bytes32","internalType":"bytes32"},{"name":"nonce","type":"uint64","internalType":"uint64"}]},{"name":"_guid","type":"bytes32","internalType":"bytes32"},{"name":"_message","type":"bytes","internalType":"bytes"},{"name":"_executor","type":"address","internalType":"address"},{"name":"_extraData","type":"bytes","internalType":"bytes"}],"outputs":[],"stateMutability":"payable"},{"type":"function","name":"msgInspector","inputs":[],"outputs":[{"name":"","type":"address","internalType":"address"}],"stateMutability":"view"},{"type":"function","name":"name","inputs":[],"outputs":[{"name":"","type":"string","internalType":"string"}],"stateMutability":"view"},{"type":"function","name":"nextNonce","inputs":[{"name":"","type":"uint32","internalType":"uint32"},{"name":"","type":"bytes32","internalType":"bytes32"}],"outputs":[{"name":"nonce","type":"uint64","internalType":"uint64"}],"stateMutability":"view"},{"type":"function","name":"oApp","inputs":[],"outputs":[{"name":"","type":"address","internalType":"address"}],"stateMutability":"view"},{"type":"function","name":"oAppVersion","inputs":[],"outputs":[{"name":"senderVersion","type":"uint64","internalType":"uint64"},{"name":"receiverVersion","type":"uint64","internalType":"uint64"}],"stateMutability":"pure"},{"type":"function","name":"oftVersion","inputs":[],"outputs":[{"name":"interfaceId","type":"bytes4","internalType":"bytes4"},{"name":"version","type":"uint64","internalType":"uint64"}],"stateMutability":"pure"},{"type":"function","name":"onERC1155BatchReceived","inputs":[{"name":"","type":"address","internalType":"address"},{"name":"","type":"address","internalType":"address"},{"name":"","type":"uint256[]","internalType":"uint256[]"},{"name":"","type":"uint256[]","internalType":"uint256[]"},{"name":"","type":"bytes","internalType":"bytes"}],"outputs":[{"name":"","type":"bytes4","internalType":"bytes4"}],"stateMutability":"nonpayable"},{"type":"function","name":"onERC1155Received","inputs":[{"name":"","type":"address","internalType":"address"},{"name":"","type":"address","internalType":"address"},{"name":"","type":"uint256","internalType":"uint256"},{"name":"","type":"uint256","internalType":"uint256"},{"name":"","type":"bytes","internalType":"bytes"}],"outputs":[{"name":"","type":"bytes4","internalType":"bytes4"}],"stateMutability":"nonpayable"},{"type":"function","name":"owner","inputs":[],"outputs":[{"name":"","type":"address","internalType":"address"}],"stateMutability":"view"},{"type":"function","name":"peers","inputs":[{"name":"eid","type":"uint32","internalType":"uint32"}],"outputs":[{"name":"peer","type":"bytes32","internalType":"bytes32"}],"stateMutability":"view"},{"type":"function","name":"performanceBps","inputs":[],"outputs":[{"name":"","type":"uint256","internalType":"uint256"}],"stateMutability":"pure"},{"type":"function","name":"poke","inputs":[],"outputs":[],"stateMutability":"nonpayable"},{"type":"function","name":"preCrime","inputs":[],"outputs":[{"name":"","type":"address","internalType":"address"}],"stateMutability":"view"},{"type":"function","name":"quoteOFT","inputs":[{"name":"_sendParam","type":"tuple","internalType":"struct SendParam","components":[{"name":"dstEid","type":"uint32","internalType":"uint32"},{"name":"to","type":"bytes32","internalType":"bytes32"},{"name":"amountLD","type":"uint256","internalType":"uint256"},{"name":"minAmountLD","type":"uint256","internalType":"uint256"},{"name":"extraOptions","type":"bytes","internalType":"bytes"},{"name":"composeMsg","type":"bytes","internalType":"bytes"},{"name":"oftCmd","type":"bytes","internalType":"bytes"}]}],"outputs":[{"name":"oftLimit","type":"tuple","internalType":"struct OFTLimit","components":[{"name":"minAmountLD","type":"uint256","internalType":"uint256"},{"name":"maxAmountLD","type":"uint256","internalType":"uint256"}]},{"name":"oftFeeDetails","type":"tuple[]","internalType":"struct OFTFeeDetail[]","components":[{"name":"feeAmountLD","type":"int256","internalType":"int256"},{"name":"description","type":"string","internalType":"string"}]},{"name":"oftReceipt","type":"tuple","internalType":"struct OFTReceipt","components":[{"name":"amountSentLD","type":"uint256","internalType":"uint256"},{"name":"amountReceivedLD","type":"uint256","internalType":"uint256"}]}],"stateMutability":"view"},{"type":"function","name":"quoteSend","inputs":[{"name":"_sendParam","type":"tuple","internalType":"struct SendParam","components":[{"name":"dstEid","type":"uint32","internalType":"uint32"},{"name":"to","type":"bytes32","internalType":"bytes32"},{"name":"amountLD","type":"uint256","internalType":"uint256"},{"name":"minAmountLD","type":"uint256","internalType":"uint256"},{"name":"extraOptions","type":"bytes","internalType":"bytes"},{"name":"composeMsg","type":"bytes","internalType":"bytes"},{"name":"oftCmd","type":"bytes","internalType":"bytes"}]},{"name":"_payInLzToken","type":"bool","internalType":"bool"}],"outputs":[{"name":"msgFee","type":"tuple","internalType":"struct MessagingFee","components":[{"name":"nativeFee","type":"uint256","internalType":"uint256"},{"name":"lzTokenFee","type":"uint256","internalType":"uint256"}]}],"stateMutability":"view"},{"type":"function","name":"redeemStUsdc","inputs":[{"name":"amount","type":"uint256","internalType":"uint256"}],"outputs":[{"name":"assetAmount","type":"uint256","internalType":"uint256"}],"stateMutability":"nonpayable"},{"type":"function","name":"renounceOwnership","inputs":[],"outputs":[],"stateMutability":"nonpayable"},{"type":"function","name":"send","inputs":[{"name":"_sendParam","type":"tuple","internalType":"struct SendParam","components":[{"name":"dstEid","type":"uint32","internalType":"uint32"},{"name":"to","type":"bytes32","internalType":"bytes32"},{"name":"amountLD","type":"uint256","internalType":"uint256"},{"name":"minAmountLD","type":"uint256","internalType":"uint256"},{"name":"extraOptions","type":"bytes","internalType":"bytes"},{"name":"composeMsg","type":"bytes","internalType":"bytes"},{"name":"oftCmd","type":"bytes","internalType":"bytes"}]},{"name":"_fee","type":"tuple","internalType":"struct MessagingFee","components":[{"name":"nativeFee","type":"uint256","internalType":"uint256"},{"name":"lzTokenFee","type":"uint256","internalType":"uint256"}]},{"name":"_refundAddress","type":"address","internalType":"address"}],"outputs":[{"name":"msgReceipt","type":"tuple","internalType":"struct MessagingReceipt","components":[{"name":"guid","type":"bytes32","internalType":"bytes32"},{"name":"nonce","type":"uint64","internalType":"uint64"},{"name":"fee","type":"tuple","internalType":"struct MessagingFee","components":[{"name":"nativeFee","type":"uint256","internalType":"uint256"},{"name":"lzTokenFee","type":"uint256","internalType":"uint256"}]}]},{"name":"oftReceipt","type":"tuple","internalType":"struct OFTReceipt","components":[{"name":"amountSentLD","type":"uint256","internalType":"uint256"},{"name":"amountReceivedLD","type":"uint256","internalType":"uint256"}]}],"stateMutability":"payable"},{"type":"function","name":"setBridgeOperator","inputs":[{"name":"bridgeOperator_","type":"address","internalType":"address"}],"outputs":[],"stateMutability":"nonpayable"},{"type":"function","name":"setDelegate","inputs":[{"name":"_delegate","type":"address","internalType":"address"}],"outputs":[],"stateMutability":"nonpayable"},{"type":"function","name":"setEnforcedOptions","inputs":[{"name":"_enforcedOptions","type":"tuple[]","internalType":"struct EnforcedOptionParam[]","components":[{"name":"eid","type":"uint32","internalType":"uint32"},{"name":"msgType","type":"uint16","internalType":"uint16"},{"name":"options","type":"bytes","internalType":"bytes"}]}],"outputs":[],"stateMutability":"nonpayable"},{"type":"function","name":"setMsgInspector","inputs":[{"name":"_msgInspector","type":"address","internalType":"address"}],"outputs":[],"stateMutability":"nonpayable"},{"type":"function","name":"setPeer","inputs":[{"name":"eid","type":"uint32","internalType":"uint32"},{"name":"peer","type":"bytes32","internalType":"bytes32"}],"outputs":[],"stateMutability":"nonpayable"},{"type":"function","name":"setPreCrime","inputs":[{"name":"_preCrime","type":"address","internalType":"address"}],"outputs":[],"stateMutability":"nonpayable"},{"type":"function","name":"setUsdPerShare","inputs":[{"name":"yieldPerShare","type":"uint256","internalType":"uint256"}],"outputs":[],"stateMutability":"nonpayable"},{"type":"function","name":"setYieldRelayer","inputs":[{"name":"yieldRelayer","type":"address","internalType":"address"}],"outputs":[],"stateMutability":"nonpayable"},{"type":"function","name":"sharedDecimals","inputs":[],"outputs":[{"name":"","type":"uint8","internalType":"uint8"}],"stateMutability":"pure"},{"type":"function","name":"sharesByUsd","inputs":[{"name":"usdAmount","type":"uint256","internalType":"uint256"}],"outputs":[{"name":"","type":"uint256","internalType":"uint256"}],"stateMutability":"view"},{"type":"function","name":"sharesOf","inputs":[{"name":"account","type":"address","internalType":"address"}],"outputs":[{"name":"","type":"uint256","internalType":"uint256"}],"stateMutability":"view"},{"type":"function","name":"stakeUpStaking","inputs":[],"outputs":[{"name":"","type":"address","internalType":"contract IStakeUpStaking"}],"stateMutability":"view"},{"type":"function","name":"stakeUpToken","inputs":[],"outputs":[{"name":"","type":"address","internalType":"contract IStakeUpToken"}],"stateMutability":"view"},{"type":"function","name":"symbol","inputs":[],"outputs":[{"name":"","type":"string","internalType":"string"}],"stateMutability":"view"},{"type":"function","name":"tby","inputs":[],"outputs":[{"name":"","type":"address","internalType":"contract ERC1155"}],"stateMutability":"view"},{"type":"function","name":"token","inputs":[],"outputs":[{"name":"","type":"address","internalType":"address"}],"stateMutability":"view"},{"type":"function","name":"totalShares","inputs":[],"outputs":[{"name":"","type":"uint256","internalType":"uint256"}],"stateMutability":"view"},{"type":"function","name":"totalSupply","inputs":[],"outputs":[{"name":"","type":"uint256","internalType":"uint256"}],"stateMutability":"view"},{"type":"function","name":"totalUsd","inputs":[],"outputs":[{"name":"","type":"uint256","internalType":"uint256"}],"stateMutability":"view"},{"type":"function","name":"transfer","inputs":[{"name":"recipient","type":"address","internalType":"address"},{"name":"amount","type":"uint256","internalType":"uint256"}],"outputs":[{"name":"","type":"bool","internalType":"bool"}],"stateMutability":"nonpayable"},{"type":"function","name":"transferFrom","inputs":[{"name":"sender","type":"address","internalType":"address"},{"name":"recipient","type":"address","internalType":"address"},{"name":"amount","type":"uint256","internalType":"uint256"}],"outputs":[{"name":"","type":"bool","internalType":"bool"}],"stateMutability":"nonpayable"},{"type":"function","name":"transferOwnership","inputs":[{"name":"newOwner","type":"address","internalType":"address"}],"outputs":[],"stateMutability":"nonpayable"},{"type":"function","name":"transferShares","inputs":[{"name":"recipient","type":"address","internalType":"address"},{"name":"sharesAmount","type":"uint256","internalType":"uint256"}],"outputs":[{"name":"","type":"uint256","internalType":"uint256"}],"stateMutability":"nonpayable"},{"type":"function","name":"transferSharesFrom","inputs":[{"name":"sender","type":"address","internalType":"address"},{"name":"recipient","type":"address","internalType":"address"},{"name":"sharesAmount","type":"uint256","internalType":"uint256"}],"outputs":[{"name":"","type":"uint256","internalType":"uint256"}],"stateMutability":"nonpayable"},{"type":"function","name":"usdByShares","inputs":[{"name":"sharesAmount","type":"uint256","internalType":"uint256"}],"outputs":[{"name":"","type":"uint256","internalType":"uint256"}],"stateMutability":"view"},{"type":"function","name":"wstUsdc","inputs":[],"outputs":[{"name":"","type":"address","internalType":"contract IWstUsdc"}],"stateMutability":"view"},{"type":"event","name":"Approval","inputs":[{"name":"owner","type":"address","indexed":true,"internalType":"address"},{"name":"spender","type":"address","indexed":true,"internalType":"address"},{"name":"value","type":"uint256","indexed":false,"internalType":"uint256"}],"anonymous":false},{"type":"event","name":"AssetAutoLent","inputs":[{"name":"amount","type":"uint256","indexed":false,"internalType":"uint256"}],"anonymous":false},{"type":"event","name":"AssetDeposited","inputs":[{"name":"account","type":"address","indexed":true,"internalType":"address"},{"name":"amount","type":"uint256","indexed":false,"internalType":"uint256"}],"anonymous":false},{"type":"event","name":"EnforcedOptionSet","inputs":[{"name":"_enforcedOptions","type":"tuple[]","indexed":false,"internalType":"struct EnforcedOptionParam[]","components":[{"name":"eid","type":"uint32","internalType":"uint32"},{"name":"msgType","type":"uint16","internalType":"uint16"},{"name":"options","type":"bytes","internalType":"bytes"}]}],"anonymous":false},{"type":"event","name":"FeeCaptured","inputs":[{"name":"shares","type":"uint256","indexed":false,"internalType":"uint256"}],"anonymous":false},{"type":"event","name":"MsgInspectorSet","inputs":[{"name":"inspector","type":"address","indexed":false,"internalType":"address"}],"anonymous":false},{"type":"event","name":"OFTReceived","inputs":[{"name":"guid","type":"bytes32","indexed":true,"internalType":"bytes32"},{"name":"srcEid","type":"uint32","indexed":false,"internalType":"uint32"},{"name":"toAddress","type":"address","indexed":true,"internalType":"address"},{"name":"amountReceivedLD","type":"uint256","indexed":false,"internalType":"uint256"}],"anonymous":false},{"type":"event","name":"OFTSent","inputs":[{"name":"guid","type":"bytes32","indexed":true,"internalType":"bytes32"},{"name":"dstEid","type":"uint32","indexed":false,"internalType":"uint32"},{"name":"fromAddress","type":"address","indexed":true,"internalType":"address"},{"name":"amountSentLD","type":"uint256","indexed":false,"internalType":"uint256"},{"name":"amountReceivedLD","type":"uint256","indexed":false,"internalType":"uint256"}],"anonymous":false},{"type":"event","name":"OwnershipTransferred","inputs":[{"name":"previousOwner","type":"address","indexed":true,"internalType":"address"},{"name":"newOwner","type":"address","indexed":true,"internalType":"address"}],"anonymous":false},{"type":"event","name":"PeerSet","inputs":[{"name":"eid","type":"uint32","indexed":false,"internalType":"uint32"},{"name":"peer","type":"bytes32","indexed":false,"internalType":"bytes32"}],"anonymous":false},{"type":"event","name":"PreCrimeSet","inputs":[{"name":"preCrimeAddress","type":"address","indexed":false,"internalType":"address"}],"anonymous":false},{"type":"event","name":"Redeemed","inputs":[{"name":"account","type":"address","indexed":true,"internalType":"address"},{"name":"shares","type":"uint256","indexed":false,"internalType":"uint256"},{"name":"amount","type":"uint256","indexed":false,"internalType":"uint256"}],"anonymous":false},{"type":"event","name":"RemainingBalanceAdjusted","inputs":[{"name":"amount","type":"uint256","indexed":false,"internalType":"uint256"}],"anonymous":false},{"type":"event","name":"SharesBurnt","inputs":[{"name":"account","type":"address","indexed":true,"internalType":"address"},{"name":"preRebaseTokenAmount","type":"uint256","indexed":false,"internalType":"uint256"},{"name":"postRebaseTokenAmount","type":"uint256","indexed":false,"internalType":"uint256"},{"name":"sharesAmount","type":"uint256","indexed":false,"internalType":"uint256"}],"anonymous":false},{"type":"event","name":"TbyDeposited","inputs":[{"name":"account","type":"address","indexed":true,"internalType":"address"},{"name":"tbyId","type":"uint256","indexed":true,"internalType":"uint256"},{"name":"amount","type":"uint256","indexed":false,"internalType":"uint256"},{"name":"stUsdcAmount","type":"uint256","indexed":false,"internalType":"uint256"}],"anonymous":false},{"type":"event","name":"Transfer","inputs":[{"name":"from","type":"address","indexed":true,"internalType":"address"},{"name":"to","type":"address","indexed":true,"internalType":"address"},{"name":"value","type":"uint256","indexed":false,"internalType":"uint256"}],"anonymous":false},{"type":"event","name":"TransferShares","inputs":[{"name":"from","type":"address","indexed":true,"internalType":"address"},{"name":"to","type":"address","indexed":true,"internalType":"address"},{"name":"sharesAmount","type":"uint256","indexed":false,"internalType":"uint256"}],"anonymous":false},{"type":"event","name":"UpdatedYieldPerShare","inputs":[{"name":"yieldPerShares","type":"uint256","indexed":false,"internalType":"uint256"}],"anonymous":false},{"type":"error","name":"InsufficientBalance","inputs":[]},{"type":"error","name":"InvalidAddress","inputs":[]},{"type":"error","name":"InvalidDelegate","inputs":[]},{"type":"error","name":"InvalidEndpointCall","inputs":[]},{"type":"error","name":"InvalidLocalDecimals","inputs":[]},{"type":"error","name":"InvalidOptions","inputs":[{"name":"options","type":"bytes","internalType":"bytes"}]},{"type":"error","name":"InvalidPeerID","inputs":[]},{"type":"error","name":"LzTokenUnavailable","inputs":[]},{"type":"error","name":"NoPeer","inputs":[{"name":"eid","type":"uint32","internalType":"uint32"}]},{"type":"error","name":"NotEnoughNative","inputs":[{"name":"msgValue","type":"uint256","internalType":"uint256"}]},{"type":"error","name":"OnlyEndpoint","inputs":[{"name":"addr","type":"address","internalType":"address"}]},{"type":"error","name":"OnlyPeer","inputs":[{"name":"eid","type":"uint32","internalType":"uint32"},{"name":"sender","type":"bytes32","internalType":"bytes32"}]},{"type":"error","name":"OnlySelf","inputs":[]},{"type":"error","name":"RedeemableTbyNotAllowed","inputs":[]},{"type":"error","name":"RedemptionsNotAllowed","inputs":[]},{"type":"error","name":"SimulationResult","inputs":[{"name":"result","type":"bytes","internalType":"bytes"}]},{"type":"error","name":"SlippageExceeded","inputs":[{"name":"amountLD","type":"uint256","internalType":"uint256"},{"name":"minAmountLD","type":"uint256","internalType":"uint256"}]},{"type":"error","name":"UnauthorizedCaller","inputs":[]},{"type":"error","name":"ZeroAddress","inputs":[]},{"type":"error","name":"ZeroAmount","inputs":[]}],"bytecode":{"object":"0x6101e080604052346108d65760009060c0816152cc803803809161002382856108db565b8339810103126108d25761003681610914565b61004260208301610914565b61004e60408401610914565b9161005b60608501610914565b9361007460a061006d60808401610914565b9201610914565b90604051906100846040836108db565b600b82526a7374616b6564205553444360a81b6020830152604051926100ab6040856108db565b600684526573745553444360d01b60208501526001600160a01b031680156108c35788546001600160a01b031990811682178a5560018054339281168317909155604051938b939290916001600160a01b03167f8be0079c531659141344cd1fd0a4f28419497f9722a3daafe3b4186f6b6457e08580a36001600160a01b0316608081905290813b1561050c578383819360249363ca5eb5e160e01b845260048401525af180156108b8576108a4575b5064e8d4a5100060a0528051906001600160401b03821161087a57600954600181811c91168015610870575b602082101461085c579081601f8493116107ee575b50602090601f831160011461078957899261077e575b50508160011b916000199060031b1c1916176009555b8051906001600160401b03821161076a57600a54600181811c91168015610760575b602082101461074c579081601f8493116106de575b50602090601f831160011461067957889261066e575b50508160011b916000199060031b1c191617600a555b4260105560016012556001600160a01b0316908115801561065d575b801561064c575b61063d5760c082905260405163313ce56760e01b8152602081600481865afa9081156105f6578691610601575b506101c0526040516338d52e0f60e01b81526001600160a01b03919091169190602081600481865afa9081156105f65786916105b8575b506001600160a01b03160361057357602081600492610100526040519283809263616e4d8160e01b82525afa908115610568578491610523575b506001600160a01b0390811660e0521661014081905260405163093a0ecd60e41b815290602090829060049082905afa9081156105185783916104d2575b50610160526001600160a01b0316610120526101c05160ff908116601203919082116104be5761035982610928565b6101a0524261018052426010556a084595161401484a00000060155561037d610939565b601455600019601655670de0b6b3a76400006011556040516149449081610988823960805181818161093a01528181610a3801528181610c3701528181610d9e01528181611d310152818161219f015281816123db0152612707015260a05181818161080401528181610b32015281816116540152613b7c015260c05181818161040a01528181611842015281816124fd0152612ffd015260e051818181611fb50152818161215a015281816139ba01526142fe0152610100518181816104370152818161194f01528181611ece01528181612b0701528181612fda015261394d01526101205181611c5d0152610140518181816120d7015261324b0152610160518181816104f5015281816131480152613f7f0152610180518161310101526101a0518181816103ad015281816118080152611f5101526101c051815050f35b634e487b7160e01b81526011600452602490fd5b90506020813d602011610510575b816104ed602093836108db565b8101031261050c57516001600160a01b038116810361050c573861032a565b8280fd5b3d91506104e0565b6040513d85823e3d90fd5b90506020813d602011610560575b8161053e602093836108db565b8101031261055c57600491610554602092610914565b9150916102ec565b8380fd5b3d9150610531565b6040513d86823e3d90fd5b60405162461bcd60e51b815260206004820152601860248201527f496e76616c696420756e6465726c79696e6720746f6b656e00000000000000006044820152606490fd5b90506020813d6020116105ee575b816105d3602093836108db565b810103126105ea576105e490610914565b386102b2565b8580fd5b3d91506105c6565b6040513d88823e3d90fd5b90506020813d602011610635575b8161061c602093836108db565b810103126105ea575160ff811681036105ea573861027b565b3d915061060f565b63e6c4247b60e01b8552600485fd5b506001600160a01b0384161561024e565b506001600160a01b03831615610247565b015190503880610215565b600a89528189209250601f198416895b8181106106c657509084600195949392106106ad575b505050811b01600a5561022b565b015160001960f88460031b161c1916905538808061069f565b92936020600181928786015181550195019301610689565b600a89529091507fc65a7bb8d6351c1cf70c95a316cc6a92839c986682d98bc35f958f4883f9d2a8601f840160051c81019160208510610742575b90601f859493920160051c01905b81811061073457506101ff565b898155849350600101610727565b9091508190610719565b634e487b7160e01b88526022600452602488fd5b90607f16906101ea565b634e487b7160e01b87526041600452602487fd5b0151905038806101b2565b60098a52818a209250601f1984168a5b8181106107d657509084600195949392106107bd575b505050811b016009556101c8565b015160001960f88460031b161c191690553880806107af565b92936020600181928786015181550195019301610799565b60098a529091507f6e1540171b6c0c960b71a7020d9f60077f6af931a8bbf590da0223dacf75c7af601f840160051c81019160208510610852575b90601f859493920160051c01905b818110610844575061019c565b8a8155849350600101610837565b9091508190610829565b634e487b7160e01b89526022600452602489fd5b90607f1690610187565b634e487b7160e01b88526041600452602488fd5b634e487b7160e01b600052601160045260246000fd5b876108b1919892986108db565b953861015b565b6040513d8a823e3d90fd5b63d92e233d60e01b8952600489fd5b5080fd5b600080fd5b601f909101601f19168101906001600160401b038211908210176108fe57604052565b634e487b7160e01b600052604160045260246000fd5b51906001600160a01b03821682036108d657565b60ff16604d811161088e57600a0a90565b61a4b146146109785762066eee461461096957617a69461461095a57600090565b6aa56fa5b99019a5c800000090565b6a52b7d2dcc80cd2e400000090565b6a295be96e640669720000009056fe608080604052600436101561001357600080fd5b600090813560e01c90816306fdde0314612b7a57508063095ea7b314612b535780630b57b45314612b365780630b91aa8a14612af15780630cde821c14612aa45780630d35b41514612955578063111ecdad1461292c57806313137d65146126f4578063134d4f25146126d8578063156a0d0f146126b157806317442b701461268f57806318160ddd146122b857806318178358146126665780631f5e13341461264a5780632088d7c61461262b57806323b872dd146125f8578063313ce567146125dc5780633400288b1461252c57806338d52e0f146124e7578063395093511461249c5780633a98ef391461247e5780633b6f743b146122f957806347563dc3146122db5780634d82680e146122bd578063527913b1146122b857806352ae28791461037f5780635535d46114612258578063590665c214612231578063594e0507146122135780635a0dfe4d146121ce5780635e280f1114612189578063616e4d81146121445780636d780459146121065780636dfc9ecd146120c15780636e5368f714611e925780636fc1b31e14611e2457806370a0823114611dea578063715018a614611d8d578063765aef4914611cf35780637d25a05e14611ccd5780637d85b15814611c8c5780637ffae21f14611c47578063857749b014611c2b5780638b33021d14611c0c5780638c50fb39146117b55780638da5cb5b1461178c5780638fcb4e5b1461174657806395d89b4114611677578063963efcaa1461163c5780639f68b96414611620578063a457c2d71461158b578063a9059cbb14611545578063b731ea0a1461151c578063b92d0eff1461037f578063b98bd07014611233578063bb0b6a53146111fe578063bc197c8114611165578063bc70b354146110fb578063bd815db014610e9d578063c7c7f5b314610ab5578063ca5eb5e114610a13578063d045a0dc146107af578063d424388514610741578063dd62ed3e146106ec578063e090b53d1461067d578063f23a6e6114610626578063f2fde38b1461055d578063f5eb42dc14610524578063f9fc6b6e146104df578063fa2df41414610384578063fc0c546a1461037f5763ff7bd03d1461033957600080fd5b3461037c57606036600319011261037c5760043563ffffffff811690818103610378579160409160209350815260028352205460405190602435148152f35b8280fd5b80fd5b612dad565b503461037c57602036600319011261037c576004356103a1613847565b80156104d057816103d27f0000000000000000000000000000000000000000000000000000000000000000836134b9565b916103dc83613f1a565b6040518181527fddc69a07b5bfcee2b68a56a2e28e712c83e6b1372b06f80aaab04dbaca91020f60203392a27f000000000000000000000000000000000000000000000000000000000000000061043582303384614831565b7f00000000000000000000000000000000000000000000000000000000000000006001600160a01b03169061046d908390839061418d565b803b1561037857602483926040519485938492631a4510c960e01b845260048401525af180156104c5576104ac575b6020826001601255604051908152f35b6104b7838092612efd565b6104c1578161049c565b5080fd5b6040513d85823e3d90fd5b631f2a200560e01b8252600482fd5b503461037c578060031936011261037c576040517f00000000000000000000000000000000000000000000000000000000000000006001600160a01b03168152602090f35b503461037c57602036600319011261037c576020906040906001600160a01b0361054c612c64565b168152600c83522054604051908152f35b503461037c57602036600319011261037c57610577612c64565b61057f61401d565b6001600160a01b031680156105d257600180546001600160a01b0319811683179091556001600160a01b03167f8be0079c531659141344cd1fd0a4f28419497f9722a3daafe3b4186f6b6457e08380a380f35b60405162461bcd60e51b815260206004820152602660248201527f4f776e61626c653a206e6577206f776e657220697320746865207a65726f206160448201526564647265737360d01b6064820152608490fd5b503461037c5760a036600319011261037c57610640612c64565b50610649612c7a565b506084356001600160401b0381116104c157610669903690600401612c90565b505060405163f23a6e6160e01b8152602090f35b503461037c57602036600319011261037c57610697612c64565b81546001600160a01b031633036106dd576001600160a01b031680156106ce57600b80546001600160a01b03191691909117905580f35b63d92e233d60e01b8252600482fd5b635c427cd960e01b8252600482fd5b503461037c57604036600319011261037c576040610708612c64565b91610711612c7a565b9260018060a01b03168152600d602052209060018060a01b03166000526020526020604060002054604051908152f35b503461037c57602036600319011261037c577fd48d879cef83a1c0bdda516f27b13ddb1b3f8bbac1c9e1511bb2a659c2427760602061077e612c64565b61078661401d565b600380546001600160a01b0319166001600160a01b03929092169182179055604051908152a180f35b506107b936612cbd565b5050509092303303610a0457816020116109d15783356001600160a01b031693859061082c6107e885836135e6565b6001600160c01b0319913591821691600882106109e4575b50507f00000000000000000000000000000000000000000000000000000000000000009060c01c6134b9565b9361083684612f67565b5061084961084386613463565b8861445f565b5061085685600f54612f9b565b600f55602881116108a7575b5050507fefed6d3500546b29533b128a29e3a94d70788727f0507505ac12eaf2e578fd9c91610892604092612f67565b9063ffffffff8351921682526020820152a380f35b6040840135906001600160401b03821682036109e057610938916108e16108da83604c946108d48a612f67565b976135f7565b36916135af565b6040519485926001600160401b0360c01b9060c01b16602084015263ffffffff60e01b9060e01b16602883015287602c8301526109278151809260208686019101612c1c565b81010301601f198101835282612efd565b7f00000000000000000000000000000000000000000000000000000000000000006001600160a01b0316803b15610378576109a78392918392604051948580948193633e5ac80960e11b83528d60048401528c6024840152836044840152608060648401526084830190612c3f565b03925af180156109d5576109bc575b80610862565b816109c691612efd565b6109d15784386109b6565b8480fd5b6040513d84823e3d90fd5b8380fd5b6001600160c01b031960089290920360031b82901b161690503880610800565b63029a949d60e31b8552600485fd5b503461037c57602036600319011261037c5780610a2e612c64565b610a3661401d565b7f00000000000000000000000000000000000000000000000000000000000000006001600160a01b031690813b15610ab15760405163ca5eb5e160e01b81526001600160a01b0390911660048201529082908290602490829084905af180156109d557610aa05750f35b81610aaa91612efd565b61037c5780f35b5050fd5b50608036600319011261037c57600435906001600160401b03821161037c578160040160e060031984360301126104c15760403660231901126104c157606435926001600160a01b038416840361037857610b0e6136fc565b50610b17612f4e565b50610b606044610b5b606484013593610b2f86612f67565b507f000000000000000000000000000000000000000000000000000000000000000092839101356134e9565b6134b9565b90808210610e855750610b7b610b7582613463565b33614075565b50610b8881600f54612f78565b600f55610b958183613b6c565b610b9e84612f67565b9060405190610bac82612e96565b602435825260208201916044358352610bc36136fc565b505193843403610e7257825180610d8f575b5091839160809593610bea610c339b96613813565b925115159263ffffffff60405195610c0187612ec7565b168552602085015260408401526060830152848201526040518098819482936302637a4560e41b845260048401613d09565b03917f00000000000000000000000000000000000000000000000000000000000000006001600160a01b03165af1928315610d83578093610d0f575b5060c0935060405190610c8182612e96565b8082526020820192818452610c97855191612f67565b9163ffffffff6040519316835280602084015260408301527f85496b760a4b7f8d66384b9df21b381f5d1b1e79f229a47aaf4c232edc2fe59a60603393a360206040805194805186526001600160401b03838201511683870152015180516040860152015160608401525160808301525160a0820152f35b90925060803d608011610d7c575b610d278186612efd565b8401936080818603126104c15760405191610d4183612ee2565b815183526020820151906001600160401b038216820361037c5750602083015260c094610d7091604001613ce1565b60408201529138610c6f565b503d610d1d565b604051903d90823e3d90fd5b60405163393f876560e21b81527f00000000000000000000000000000000000000000000000000000000000000006001600160a01b031690602081600481855afa908115610e67578b91610e21575b506001600160a01b03168015610e1257610c339b969492608098969492610e06923390614831565b91939550919398610bd5565b6329b99a9560e11b8b5260048bfd5b90506020813d602011610e5f575b81610e3c60209383612efd565b81010312610e5b57516001600160a01b0381168103610e5b5738610dde565b8a80fd5b3d9150610e2f565b6040513d8d823e3d90fd5b6304fb820960e51b885234600452602488fd5b6371c4efed60e01b8452600491909152602452604482fd5b50602036600319011261037c576004356001600160401b0381116104c157610ec9903690600401612f1e565b903681900361013e190190835b8381101561103257848160051b830135848112156104c1578301610ef981612f67565b90610f1c6020820135809363ffffffff1660005260026020526040600020541490565b1561102757610f2f610100820182613541565b60e08301356001600160a01b0381169391929084900361102357610f57610120830183613541565b939091303b1561101f57604051633411683760e21b81529663ffffffff610f7d86612d9c565b16600489015260248801526040840135916001600160401b03831680930361101b57889688968795610fd18795610fe89560c098604489015260a08b0135606489015260e0608489015260e4880191613573565b9260a48601526003198584030160c4860152613573565b03920135305af180156109d557611006575b50506001905b01610ed6565b8161101091612efd565b6109d1578438610ffa565b8880fd5b8780fd5b8580fd5b505050600190611000565b604051638e9e709960e01b815285908181600481335afa9081156109d557829161107d575b604051638351eea760e01b815260206004820152806110796024820185612c3f565b0390fd5b90503d8083833e61108e8183612efd565b810190602081830312610378578051906001600160401b0382116109e0570181601f82011215610378578051926110c484613594565b926110d26040519485612efd565b8484526020858401011161037c5750611079926110f59160208085019101612c1c565b82611057565b503461037c57606036600319011261037c57611115612d89565b61111d612dc8565b91604435906001600160401b03821161037c5761116161114d85856111453660048801612c90565b929091613614565b604051918291602083526020830190612c3f565b0390f35b503461037c5760a036600319011261037c5761117f612c64565b50611188612c7a565b506044356001600160401b0381116104c1576111a8903690600401612f1e565b50506064356001600160401b0381116104c1576111c9903690600401612f1e565b50506084356001600160401b0381116104c1576111ea903690600401612c90565b505060405163bc197c8160e01b8152602090f35b503461037c57602036600319011261037c57604060209163ffffffff611222612d89565b168152600283522054604051908152f35b503461037c57602036600319011261037c576004356001600160401b0381116104c157611264903690600401612f1e565b61126c61401d565b825b81811061136e575060405191816020840160208552526040830160408360051b85010192828690605e19813603015b8383106112ce57887fbe4864a8e820971c0247f5992e2da559595f7bf076a21cb5928d443d2a13b6748989038aa180f35b909192939495603f1988820301865286358281121561136a57830163ffffffff6112f782612d9c565b168252602081013561ffff8116809103610e5b5760208301526040810135601e1982360301811215610e5b5701602081359101906001600160401b038111610e5b578036038213610e5b5761135c602092839260608681604060019901520191613573565b98019601949301919061129d565b8980fd5b92919061139261138c611382868486613509565b6040810190613541565b90614150565b6113a0611382858385613509565b63ffffffff6113bb6113b68886889a969a613509565b612f67565b16855260046020526040852060206113d4848688613509565b01359061ffff82168203611518579060409161ffff60009216825260205220906001600160401b0381116115045761140c8254612dd9565b601f81116114bf575b508596601f8211600114611457578697829160019697989261144c575b5050600019600383901b1c191690841b1790555b0161126e565b013590503880611432565b8287526020872090601f198316885b8181106114a757509060019697989984889594931061148d575b505050811b019055611446565b0135600019600384901b60f8161c19169055388080611480565b99926020600181928686013581550194019a01611466565b82875260208720601f830160051c810191602084106114fa575b601f0160051c01905b8181106114ef5750611415565b8781556001016114e2565b90915081906114d9565b634e487b7160e01b86526041600452602486fd5b8680fd5b503461037c578060031936011261037c576003546040516001600160a01b039091168152602090f35b503461037c57604036600319011261037c57611580611562612c64565b60243561156e81613463565b9161157a838233613db6565b33613eae565b602060405160018152f35b503461037c57604036600319011261037c576115a5612c64565b604060243592338152600d6020522060018060a01b0382166000526020526040600020548281106115e457611580926115dd91612f78565b9033613732565b60405162461bcd60e51b8152602060048201526014602482015273414c4c4f57414e43455f42454c4f575f5a45524f60601b6044820152606490fd5b503461037c578060031936011261037c57602090604051908152f35b503461037c578060031936011261037c5760206040517f00000000000000000000000000000000000000000000000000000000000000008152f35b503461037c578060031936011261037c576040519080600a549061169a82612dd9565b808552916001811690811561171f57506001146116c2575b6111618461114d81860382612efd565b600a81527fc65a7bb8d6351c1cf70c95a316cc6a92839c986682d98bc35f958f4883f9d2a8939250905b8082106117055750909150810160200161114d826116b2565b9192600181602092548385880101520191019092916116ec565b60ff191660208087019190915292151560051b8501909201925061114d91508390506116b2565b503461037c57604036600319011261037c576020611762612c64565b611784602435611773818433613db6565b61177c816134cc565b809333613eae565b604051908152f35b503461037c578060031936011261037c576001546040516001600160a01b039091168152602090f35b503461037c57602036600319011261037c576004356117d2613847565b80156104d057338252600c602052806117ee60408420546134cc565b10611bfd57601454611bee5761180381613463565b61182d7f0000000000000000000000000000000000000000000000000000000000000000836134e9565b6040516370a0823160e01b81523060048201527f000000000000000000000000000000000000000000000000000000000000000094919391906001600160a01b03861690602081602481855afa9081156104c5579086918491611bb9575b501061193a575b60208561192d88876118b1886118a88333614075565b50600f54612f78565b600f556118c081601354612f78565b60135560405190815283858201527ff3a670cd3af7d64b488926880889d08a8585a138ff455227af6737339a1ec26260403392a260405163a9059cbb60e01b85820152336024820152604481018490529061192882606481015b03601f198101845283612efd565b61471e565b6001601255604051908152f35b60405163aff8d7c160e01b81523060048201527f00000000000000000000000000000000000000000000000000000000000000006001600160a01b031691908690602081602481875afa908115611ae4578591611b87575b5080611b24575b5080611a28575b506040516370a0823160e01b81523060048201529150602090829060249082905afa9081156109d55790859183916119ee575b50106119df5780611892565b631e9acf1760e31b8152600490fd5b9150506020813d602011611a20575b81611a0a60209383612efd565b81010312611a1b57849051386119d3565b600080fd5b3d91506119fd565b604051631fb9359d60e31b8152306004820152602081602481875afa908115611ae4579085918291611aef575b5080611a63575b50506119a0565b806020918410848218021894602460405180948193634d1f561960e01b83528960048401525af18015611ae457611aae575b5090611aa5602493602093612f78565b50908338611a5c565b6020929192813d602011611adc575b81611aca60209383612efd565b81010312611a1b575090611aa5611a95565b3d9150611abd565b6040513d87823e3d90fd5b9150506020813d602011611b1c575b81611b0b60209383612efd565b81010312611a1b5784905138611a55565b3d9150611afe565b80915087108782180218823b156109e0576040516344fdb83160e01b815260048101829052848160248183885af18015611ae457908591611b72575b5050611b6c9087612f78565b38611999565b81611b7c91612efd565b6109e0578338611b60565b90506020813d602011611bb1575b81611ba260209383612efd565b81010312611a1b575138611992565b3d9150611b95565b9150506020813d602011611be6575b81611bd560209383612efd565b81010312611a1b578590513861188b565b3d9150611bc8565b6313c357e560e21b8252600482fd5b631e9acf1760e31b8252600482fd5b503461037c57602036600319011261037c5760206117846004356134cc565b503461037c578060031936011261037c57602060405160068152f35b503461037c578060031936011261037c576040517f00000000000000000000000000000000000000000000000000000000000000006001600160a01b03168152602090f35b503461037c57602036600319011261037c57600b546001600160a01b03163303611cbe57611cbb6004356138e7565b80f35b635c427cd960e01b8152600490fd5b503461037c57604036600319011261037c57602090611cea612d89565b50604051908152f35b503461037c57602036600319011261037c57611d0d612c64565b81546001600160a01b031633036106dd576001600160a01b031680156106ce5781907f00000000000000000000000000000000000000000000000000000000000000006001600160a01b031690813b15610ab157829160248392604051948593849263ca5eb5e160e01b845260048401525af180156109d557610aa05750f35b503461037c578060031936011261037c57611da661401d565b600180546001600160a01b0319811690915581906001600160a01b03167f8be0079c531659141344cd1fd0a4f28419497f9722a3daafe3b4186f6b6457e08280a380f35b503461037c57602036600319011261037c57602090611784906040906001600160a01b03611e16612c64565b168152600c845220546134cc565b503461037c57602036600319011261037c577ff0be4f1e87349231d80c36b33f9e8639658eeaf474014dee15a3e6a4d44141976020611e61612c64565b611e6961401d565b600580546001600160a01b0319166001600160a01b03929092169182179055604051908152a180f35b503461037c57604036600319011261037c57602435600435611eb2613847565b81156120b2576040516310555fef60e11b8152600481018290527f00000000000000000000000000000000000000000000000000000000000000006001600160a01b031690602081602481855afa908115611ae4578591612083575b5061207457602460208592604051928380926315dd902560e21b82528760048301525afa80156109d5578491839161203a575b50611f7691611f4f91613aac565b7f0000000000000000000000000000000000000000000000000000000000000000906134b9565b92611f8084613f1a565b826040518281528560208201527fcd25ef3812c3802a180b3849c910ba7d3f155325d83ee2f98f9acd7802394a3f60403392a37f00000000000000000000000000000000000000000000000000000000000000006001600160a01b031692833b156103785760c490836040519586948593637921219560e11b85523360048601523060248601526044850152606484015260a060848401528160a48401525af180156104c5576104ac576020826001601255604051908152f35b925050506020813d60201161206c575b8161205760209383612efd565b81010312611a1b575183908390611f76611f41565b3d915061204a565b633d1bdfe160e11b8452600484fd5b6120a5915060203d6020116120ab575b61209d8183612efd565b810190613492565b38611f0e565b503d612093565b631f2a200560e01b8352600483fd5b503461037c578060031936011261037c576040517f00000000000000000000000000000000000000000000000000000000000000006001600160a01b03168152602090f35b503461037c57602061178461211a36612d4f565b909291612126826134cc565b938491612134833383613ad7565b61213f848383613db6565b613eae565b503461037c578060031936011261037c576040517f00000000000000000000000000000000000000000000000000000000000000006001600160a01b03168152602090f35b503461037c578060031936011261037c576040517f00000000000000000000000000000000000000000000000000000000000000006001600160a01b03168152602090f35b503461037c57604036600319011261037c5760206122096121ed612d89565b6024359063ffffffff1660005260026020526040600020541490565b6040519015158152f35b503461037c578060031936011261037c576020601354604051908152f35b503461037c578060031936011261037c57546040516001600160a01b039091168152602090f35b503461037c57604036600319011261037c5761ffff6040612277612d89565b9263ffffffff612285612dc8565b9416815260046020522091166000526020526111616122b161114d604060002060405192838092612e13565b0382612efd565b612d31565b503461037c578060031936011261037c576020601054604051908152f35b503461037c578060031936011261037c576020601654604051908152f35b503461037c57604036600319011261037c576004356001600160401b0381116104c157806004019060e0600319823603011261037857602435908115158092036109e057612345612f4e565b5061235d6044610b5b606484013593610b2f87612f67565b9080821061246657509160409161238261237a6123d79584613b6c565b919093612f67565b9261238b612f4e565b5061239584613813565b63ffffffff8651956123a687612ec7565b16855260208501528484015260608301526080820152815180938192631bb8518b60e31b8352309060048401613d09565b03817f00000000000000000000000000000000000000000000000000000000000000006001600160a01b03165afa9081156109d5578291612428575b60408260208251918051835201516020820152f35b905060403d60401161245f575b61243f8183612efd565b81019160408284031261037c575060409161245991613ce1565b38612413565b503d612435565b6371c4efed60e01b8552600491909152602452604483fd5b503461037c578060031936011261037c576020600e54604051908152f35b503461037c57604036600319011261037c576115809060406124bc612c64565b91338152600d6020522060018060a01b0382166000526020526115dd60406000206024359054612f9b565b503461037c578060031936011261037c576040517f00000000000000000000000000000000000000000000000000000000000000006001600160a01b03168152602090f35b503461037c57604036600319011261037c57612546612d89565b815460243591906001600160a01b031633036125cd5763ffffffff169081156125be5780156125af57816040917f238399d427b947898edb290f5ff0f9109849b1c3ba196a42e35f00c50a54b98b9385526002602052808386205582519182526020820152a180f35b63d92e233d60e01b8352600483fd5b6323eae4a560e21b8352600483fd5b635c427cd960e01b8352600483fd5b503461037c578060031936011261037c57602060405160128152f35b503461037c5761158061260a36612d4f565b90612616823385613ad7565b61261f82613463565b9261213f848383613db6565b503461037c57602036600319011261037c576020611784600435613463565b503461037c578060031936011261037c57602060405160018152f35b503461037c578060031936011261037c5761267f613847565b612687612fa8565b600160125580f35b503461037c578060031936011261037c57604080516001815260016020820152f35b503461037c578060031936011261037c576040805162b9270b60e21b815260016020820152f35b503461037c578060031936011261037c57602060405160028152f35b506126fe36612cbd565b509294919250507f00000000000000000000000000000000000000000000000000000000000000006001600160a01b03163381036129195761274761274283612f67565b613813565b60208301358091036128f457508590836020116104c15785356001600160a01b0316956127776107e886836135e6565b9461278185612f67565b5061279461278e87613463565b8961445f565b506127a186600f54612f9b565b600f55602881116127de575b505050507fefed6d3500546b29533b128a29e3a94d70788727f0507505ac12eaf2e578fd9c91610892604092612f67565b6040850135906001600160401b03821682036109d1576128519161280b6108da83604c946108d48b612f67565b6040519485926001600160401b0360c01b9060c01b16602084015263ffffffff60e01b9060e01b16602883015288602c8301526109278151809260208686019101612c1c565b813b1561037857829161289491604051948580948193633e5ac80960e11b83528c60048401528b6024840152836044840152608060648401526084830190612c3f565b03925af180156128e9576128ac575b808087926127ad565b91610892866128df604094987fefed6d3500546b29533b128a29e3a94d70788727f0507505ac12eaf2e578fd9c96612efd565b96925050916128a3565b6040513d88823e3d90fd5b8660449163ffffffff61290686612f67565b63309afaf360e21b845216600452602452fd5b6391ac5e4f60e01b865233600452602486fd5b503461037c578060031936011261037c576005546040516001600160a01b039091168152602090f35b503461037c57602036600319011261037c576004356001600160401b0381116104c15760e060031982360301126104c15761298e612f4e565b50612997612f4e565b506040516129a481612e96565b82815260208101916001600160401b038352602091604051926129c78185612efd565b8584526129e46044610b5b606486013595610b2f81600401612f67565b92808410612a8d57509490604051956129fc87612e96565b8387528087019384526040519560a0870192518752518187015260a06040870152845180925260c086018160c08460051b890101960193905b838210612a5057885160608901528551608089015287870388f35b90919293958380612a7e60019360bf198c82030186526040838c518051845201519181858201520190612c3f565b98019201920190939291612a35565b6371c4efed60e01b87526004849052602452604486fd5b503461037c57602036600319011261037c57612abe612c64565b8154906001600160a01b03821633036125cd576001600160a01b03169081156125af576001600160a01b03191617815580f35b503461037c578060031936011261037c576040517f00000000000000000000000000000000000000000000000000000000000000006001600160a01b03168152602090f35b503461037c578060031936011261037c5760206040516103e88152f35b503461037c57604036600319011261037c57611580612b70612c64565b6024359033613732565b823461037c578060031936011261037c5760095481612b9882612dd9565b808552916001811690811561171f5750600114612bbf576111618461114d81860382612efd565b600981527f6e1540171b6c0c960b71a7020d9f60077f6af931a8bbf590da0223dacf75c7af939250905b808210612c025750909150810160200161114d826116b2565b919260018160209254838588010152019101909291612be9565b60005b838110612c2f5750506000910152565b8181015183820152602001612c1f565b90602091612c5881518092818552858086019101612c1c565b601f01601f1916010190565b600435906001600160a01b0382168203611a1b57565b602435906001600160a01b0382168203611a1b57565b9181601f84011215611a1b578235916001600160401b038311611a1b5760208381860195010111611a1b57565b90600319820160e08112611a1b57606013611a1b57600491606435916084356001600160401b038111611a1b5782612cf791600401612c90565b9092909160a4356001600160a01b0381168103611a1b579160c435906001600160401b038211611a1b57612d2d91600401612c90565b9091565b34611a1b576000366003190112611a1b576020600f54604051908152f35b6060906003190112611a1b576004356001600160a01b0381168103611a1b57906024356001600160a01b0381168103611a1b579060443590565b6004359063ffffffff82168203611a1b57565b359063ffffffff82168203611a1b57565b34611a1b576000366003190112611a1b576020604051308152f35b6024359061ffff82168203611a1b57565b90600182811c92168015612e09575b6020831014612df357565b634e487b7160e01b600052602260045260246000fd5b91607f1691612de8565b60009291815491612e2383612dd9565b8083529260018116908115612e795750600114612e3f57505050565b60009081526020812093945091925b838310612e5f575060209250010190565b600181602092949394548385870101520191019190612e4e565b915050602093945060ff929192191683830152151560051b010190565b604081019081106001600160401b03821117612eb157604052565b634e487b7160e01b600052604160045260246000fd5b60a081019081106001600160401b03821117612eb157604052565b606081019081106001600160401b03821117612eb157604052565b90601f801991011681019081106001600160401b03821117612eb157604052565b9181601f84011215611a1b578235916001600160401b038311611a1b576020808501948460051b010111611a1b57565b60405190612f5b82612e96565b60006020838281520152565b3563ffffffff81168103611a1b5790565b91908203918211612f8557565b634e487b7160e01b600052601160045260246000fd5b91908201809211612f8557565b6010549062015180612fbc60009342612f78565b1061345f57426010556040516370a0823160e01b81523060048201527f000000000000000000000000000000000000000000000000000000000000000092907f00000000000000000000000000000000000000000000000000000000000000006020826024816001600160a01b0385165afa9182156104c557839261342b575b5081613379575b505060135460405163aff8d7c160e01b8152306004820152936001600160a01b038116602086602481845afa958615613339578496613344575b5094602060249660405197888092631fb9359d60e31b82523060048301525afa90811561333957849596849592613300575b506130d993926130ce6130c86130d494611f4f94612f9b565b916142b8565b90612f9b565b61389d565b6011548082116131c2575b5050506130ef613927565b601554806130fb575050565b613125817f00000000000000000000000000000000000000000000000000000000000000006144e1565b80613130575b505050565b8061314391831083821802188092612f78565b6015557f00000000000000000000000000000000000000000000000000000000000000006001600160a01b031690813b15610378576040516335106f4960e11b815233600482015260248101919091529082908290604490829084905af180156109d5576131b0575b5050565b6131bb828092612efd565b61037c5750565b6131d083916131d593612f78565b613aac565b906103e882028281046103e814831517156132ec57613210916130d461320361271061320b94048096612f78565b600f54612f9b565b6138e7565b8061321d575b80806130e4565b7fd4ff61dc3662dbd365006d1449e16d4ffb01ec598b93c6d1a69d106f04f7f4fc602061324983613463565b7f00000000000000000000000000000000000000000000000000000000000000006001600160a01b03169361328b90613282838761445f565b50600f54612f9b565b600f5561329a81601354612f9b565b601355604051908152a1803b156104c15781809160046040518094819363ba69ebed60e01b83525af180156109d5579082916132d7575b50613216565b816132e191612efd565b61037c5780386132d1565b634e487b7160e01b84526011600452602484fd5b935090506020833d602011613331575b8161331d60209383612efd565b81010312611a1b57915183926130d96130af565b3d9150613310565b6040513d86823e3d90fd5b95506020863d602011613371575b8161335f60209383612efd565b81010312611a1b57945194602061307d565b3d9150613352565b6001600160a01b03851690613391908390839061418d565b803b1561037857828091602460405180948193631a4510c960e01b83528760048401525af180156104c5576133f4575b5060207fe613d5d11caec973f3dc56f60ea1c0c7b2c1adabec0010a8eb5fd0511294e7cc91604051908152a13880613043565b826134237fe613d5d11caec973f3dc56f60ea1c0c7b2c1adabec0010a8eb5fd0511294e7cc9394602093612efd565b9291506133c1565b9091506020813d602011613457575b8161344760209383612efd565b810103126103785751903861303c565b3d915061343a565b9050565b600e5490600f5490821561348c57811561348757613484926130d491613aac565b90565b505090565b91505090565b90816020910312611a1b57518015158103611a1b5790565b90816020910312611a1b575190565b81810292918115918404141715612f8557565b600e5480156134e5576130d461348492600f5490613aac565b5090565b81156134f3570490565b634e487b7160e01b600052601260045260246000fd5b919081101561352b5760051b81013590605e1981360301821215611a1b570190565b634e487b7160e01b600052603260045260246000fd5b903590601e1981360301821215611a1b57018035906001600160401b038211611a1b57602001918136038313611a1b57565b908060209392818452848401376000828201840152601f01601f1916010190565b6001600160401b038111612eb157601f01601f191660200190565b9291926135bb82613594565b916135c96040519384612efd565b829481845281830111611a1b578281602093846000960137010152565b90602811611a1b5760200190600890565b9092919283602811611a1b578311611a1b57602801916027190190565b63ffffffff9094929416600052600460205261ffff604060002091166000526020526122b161364d604060002060405192838092612e13565b8051156136ef5782156136e9576002831015613689575050611079604051928392639a6d49cd60e01b8452602060048501526024840191613573565b9190926136968282614150565b81600211611a1b5761348491602091604051946136bb8151809286808a019101612c1c565b850190600119830190600201848301370101600060011982015282600119910301601f198101835282612efd565b92509050565b50916134849136916135af565b6040519061370982612ee2565b816000815260006020820152604080519161372383612e96565b60008352600060208401520152565b6001600160a01b03169081156137d5576001600160a01b03169182156137995760207f8c5be1e5ebec7d5bd14f71427d1e84f3dd0314c0f7b2291e5b200ac8c7c3b9259183600052600d8252604060002085600052825280604060002055604051908152a3565b60405162461bcd60e51b815260206004820152601460248201527320a8282927ab22afaa27afad22a927afa0a2222960611b6044820152606490fd5b60405162461bcd60e51b815260206004820152601660248201527520a8282927ab22afa32927a6afad22a927afa0a2222960511b6044820152606490fd5b63ffffffff16806000526002602052604060002054908115613833575090565b63f6ff4fb760e01b60005260045260246000fd5b600260125414613858576002601255565b60405162461bcd60e51b815260206004820152601f60248201527f5265656e7472616e637947756172643a207265656e7472616e742063616c6c006044820152606490fd5b7812725dd1d243aba0e75fe645cc4873f9e65afe688c928e1f218111670de0b6b3a764000002158202156138d957670de0b6b3a7640000020490565b637c5f487d6000526004601cfd5b60207fa4b3113065052f1784af5e6bd422a5435e2ac17ed9e1b29989426441d4b9bb4c914260105561391b81600e54613aac565b600f55604051908152a1565b6016546040516310555fef60e11b81526001909101600482018190526001600160a01b037f00000000000000000000000000000000000000000000000000000000000000001691602081602481865afa908115613a4f57600091613a8d575b50156131ac576016819055604051627eeac760e11b8152306004820152602481018290526020816044816001600160a01b037f0000000000000000000000000000000000000000000000000000000000000000165afa908115613a4f57600091613a5b575b50801561312b57604460209260006040519586948593632d4b392560e11b8552600485015260248401525af18015613a4f57613a245750565b613a459060203d602011613a48575b613a3d8183612efd565b8101906134aa565b50565b503d613a33565b6040513d6000823e3d90fd5b906020823d602011613a85575b81613a7560209383612efd565b8101031261037c575051386139eb565b3d9150613a68565b613aa6915060203d6020116120ab5761209d8183612efd565b38613986565b90806000190482118102613ac957670de0b6b3a764000091020490565b63bac65e5b6000526004601cfd5b6001600160a01b038082166000908152600d602090815260408083209386168352929052205490919060018101613b0f575b50505050565b838110613b3257613b2993613b2391612f78565b91613732565b38808080613b09565b60405162461bcd60e51b815260206004820152601260248201527110531313d5d05390d157d15610d15151115160721b6044820152606490fd5b9091613c23613ba16020840135947f0000000000000000000000000000000000000000000000000000000000000000906134e9565b613bb16108da60a0860186613541565b8051158015969190613cac57613bfd9160689160405194859260208401526001600160401b0360c01b9060c01b1660408301523360488301526109278151809260208686019101612c1c565b925b8394600014613ca4576002905b611145613c1882612f67565b916080810190613541565b6005549092906001600160a01b031680613c3b575050565b613c69602091613c7b9360405180958194829363043a78eb60e01b8452604060048501526044840190612c3f565b82810360031901602484015289612c3f565b03915afa8015613a4f57613c8c5750565b613a459060203d6020116120ab5761209d8183612efd565b600190613c0c565b50906040519160208301526001600160401b0360c01b9060c01b16604082015260288152613cdb604882612efd565b92613bff565b9190826040910312611a1b57604051613cf981612e96565b6020808294805184520151910152565b906020909392936040835263ffffffff81511660408401528181015160608401526080613d5d613d47604084015160a08488015260e0870190612c3f565b6060840151868203603f190160a0880152612c3f565b910151151560c08401526001600160a01b03909416910152565b15613d7e57565b60405162461bcd60e51b815260206004820152601060248201526f109053105390d157d15610d15151115160821b6044820152606490fd5b6001600160a01b0316908115613e6f576001600160a01b0316918215613e325781613e2192600052600c602052613dfe82604060002054613df981831115613d77565b612f78565b90600052600c60205260406000205582600052600c602052604060002054612f9b565b90600052600c602052604060002055565b60405162461bcd60e51b81526020600482015260156024820152742a2920a729a322a92faa27afad22a927afa0a2222960591b6044820152606490fd5b60405162461bcd60e51b81526020600482015260176024820152762a2920a729a322a92fa32927a6afad22a927afa0a2222960491b6044820152606490fd5b6040519283526001600160a01b03918216939116917f9d9c909296d9c674451c0c24f02cb64981eb3b727f99865939192f880a755dcb91602091859085907fddf252ad1be2c89b69c2b068fc378daa952ba7f163c4a11628f55a4df523b3ef908590a3604051908152a3565b90613f2482613463565b91600092801561400e5780613f3c613f45923361445f565b50601354612f9b565b60135560145480613f65575b50613f60919250600f54612f9b565b600f55565b80613f7a838693108285180284188092612f78565b6014557f00000000000000000000000000000000000000000000000000000000000000006001600160a01b031690813b15610378576040516335106f4960e11b8152336004820152602481019190915294829186916044918391905af193841561400157613f609394613ff1575b50839250613f51565b81613ffb91612efd565b38613fe8565b50604051903d90823e3d90fd5b631f2a200560e01b8452600484fd5b6001546001600160a01b0316330361403157565b606460405162461bcd60e51b815260206004820152602060248201527f4f776e61626c653a2063616c6c6572206973206e6f7420746865206f776e65726044820152fd5b9091906001600160a01b031680156141155780600052600c6020527f8b2a1e1ad5e0578c3dd82494156e985dade827a87c573b5c1c7716a32162ad646060604060002054946140c686821115613d77565b6140cf816134cc565b906140ea816140e081600e54612f78565b9889600e55612f78565b85600052600c602052604060002055614102816134cc565b60405192835260208301526040820152a2565b60405162461bcd60e51b8152602060048201526013602482015272212aa9272fa32927a6afad22a927afa0a2222960691b6044820152606490fd5b9080600211611a1b576003823560f01c03614169575050565b611079604051928392639a6d49cd60e01b8452602060048501526024840191613573565b9190918115801561423e575b156141da5760405163095ea7b360e01b60208201526001600160a01b03909316602484015260448301919091526141d89190611928826064810161191a565b565b60405162461bcd60e51b815260206004820152603660248201527f5361666545524332303a20617070726f76652066726f6d206e6f6e2d7a65726f60448201527520746f206e6f6e2d7a65726f20616c6c6f77616e636560501b6064820152608490fd5b50604051636eb1769f60e11b81523060048201526001600160a01b0384811660248301526020908290604490829086165afa908115613a4f57600091614286575b5015614199565b90506020813d6020116142b0575b816142a160209383612efd565b81010312611a1b57513861427f565b3d9150614294565b601654604051630c41446b60e31b8152600093926001600160a01b031691600101602082600481865afa918215613a4f5760009261442b575b50600019821461442257917f00000000000000000000000000000000000000000000000000000000000000006001600160a01b0316905b828411156143365750505050565b909192946040516315dd902560e21b8152866004820152602081602481865afa908115613a4f576000916143f1575b50604051627eeac760e11b81523060048201526024810188905290602082604481885afa918215613a4f576000926143bc575b506143a792916130ce91613aac565b946000198114612f8557600101929190614328565b90916020823d82116143e9575b816143d660209383612efd565b8101031261037c575051906130ce614398565b3d91506143c9565b906020823d821161441a575b8161440a60209383612efd565b8101031261037c57505138614365565b3d91506143fd565b50600093505050565b90916020823d602011614457575b8161444660209383612efd565b8101031261037c57505190386142f1565b3d9150614439565b9091906001600160a01b0316801561449957613e2161448084600e54612f9b565b9384600e5582600052600c602052604060002054612f9b565b60405162461bcd60e51b815260206004820152601160248201527026a4a72a2faa27afad22a927afa0a2222960791b6044820152606490fd5b60ff8111612f85576001901b90565b90600091829083908315614717576144f99042612f78565b93836a084595161401484a000000036a084595161401484a000000811161470357809486156000146146df57825b600584111561465a57506a084595161401484a000000925b600181118061464b575b614580575b50505061457a613484956301dfe20061456c613df996958295612f78565b910680610b5b5750826134b9565b04612f9b565b91969295949350906000198101908111612f855761459d906144d2565b80156134f357670de0b6b3a764000004670de0b6b3a76400000395670de0b6b3a76400008711612f85576a084595161401484a0000008781029790929083890403612f8557670de0b6b3a764000061348498049203614602575b81939495929661454e565b9250613df993506301dfe200918261456c61457a9380871060001461464257614636875b6146308184612f78565b98612f78565b975093505050916145f7565b61463681614626565b506301dfe20088061515614549565b614663846144d2565b80156146cb57670de0b6b3a764000004670de0b6b3a76400000390670de0b6b3a764000082116146b7576a084595161401484a00000082810292908304036146b75750670de0b6b3a764000090049261453f565b634e487b7160e01b81526011600452602490fd5b634e487b7160e01b82526012600452602482fd5b60001987018781116132ec576301dfe2009004600181018091116132ec5792614527565b634e487b7160e01b82526011600452602482fd5b5050505090565b6040805190926147a2926001600160a01b03169060009081906147418786612efd565b602085527f5361666545524332303a206c6f772d6c6576656c2063616c6c206661696c6564602086015260208151910182855af13d15614829573d9161478683613594565b9261479387519485612efd565b83523d6000602085013e614875565b805190811591821561480f575b5050156147b95750565b5162461bcd60e51b815260206004820152602a60248201527f5361666545524332303a204552433230206f7065726174696f6e20646964206e6044820152691bdd081cdd58d8d9595960b21b6064820152608490fd5b6148229250602080918301019101613492565b38806147af565b606091614875565b6040516323b872dd60e01b60208201526001600160a01b0392831660248201529290911660448301526064808301939093529181526141d891611928608483612efd565b919290156148d75750815115614889575090565b3b156148925790565b60405162461bcd60e51b815260206004820152601d60248201527f416464726573733a2063616c6c20746f206e6f6e2d636f6e74726163740000006044820152606490fd5b8251909150156148ea5750805190602001fd5b60405162461bcd60e51b815260206004820152908190611079906024830190612c3f56fea264697066735822122067e2ab5685da4ac11073ba1007e8338b6baa60727682f4c0583b466804cb43db64736f6c634300081a0033","linkReferences":{}},"methodIdentifiers":{"SEND()":"1f5e1334","SEND_AND_CALL()":"134d4f25","allowInitializePath((uint32,bytes32,uint64))":"ff7bd03d","allowance(address,address)":"dd62ed3e","approvalRequired()":"9f68b964","approve(address,uint256)":"095ea7b3","asset()":"38d52e0f","balanceOf(address)":"70a08231","bloomPool()":"0b91aa8a","bridgeOperator()":"590665c2","combineOptions(uint32,uint16,bytes)":"bc70b354","composeMsgSender()":"b92d0eff","decimalConversionRate()":"963efcaa","decimals()":"313ce567","decreaseAllowance(address,uint256)":"a457c2d7","depositAsset(uint256)":"fa2df414","depositTby(uint256,uint256)":"6e5368f7","endpoint()":"5e280f11","enforcedOptions(uint32,uint16)":"5535d461","forceSetDelegate(address)":"765aef49","globalShares()":"594e0507","increaseAllowance(address,uint256)":"39509351","isPeer(uint32,bytes32)":"5a0dfe4d","lastRateUpdate()":"4d82680e","lastRedeemedTbyId()":"47563dc3","lzReceive((uint32,bytes32,uint64),bytes32,bytes,address,bytes)":"13137d65","lzReceiveAndRevert(((uint32,bytes32,uint64),uint32,address,bytes32,uint256,address,bytes,bytes)[])":"bd815db0","lzReceiveSimulate((uint32,bytes32,uint64),bytes32,bytes,address,bytes)":"d045a0dc","msgInspector()":"111ecdad","name()":"06fdde03","nextNonce(uint32,bytes32)":"7d25a05e","oApp()":"52ae2879","oAppVersion()":"17442b70","oftVersion()":"156a0d0f","onERC1155BatchReceived(address,address,uint256[],uint256[],bytes)":"bc197c81","onERC1155Received(address,address,uint256,uint256,bytes)":"f23a6e61","owner()":"8da5cb5b","peers(uint32)":"bb0b6a53","performanceBps()":"0b57b453","poke()":"18178358","preCrime()":"b731ea0a","quoteOFT((uint32,bytes32,uint256,uint256,bytes,bytes,bytes))":"0d35b415","quoteSend((uint32,bytes32,uint256,uint256,bytes,bytes,bytes),bool)":"3b6f743b","redeemStUsdc(uint256)":"8c50fb39","renounceOwnership()":"715018a6","send((uint32,bytes32,uint256,uint256,bytes,bytes,bytes),(uint256,uint256),address)":"c7c7f5b3","setBridgeOperator(address)":"0cde821c","setDelegate(address)":"ca5eb5e1","setEnforcedOptions((uint32,uint16,bytes)[])":"b98bd070","setMsgInspector(address)":"6fc1b31e","setPeer(uint32,bytes32)":"3400288b","setPreCrime(address)":"d4243885","setUsdPerShare(uint256)":"7d85b158","setYieldRelayer(address)":"e090b53d","sharedDecimals()":"857749b0","sharesByUsd(uint256)":"2088d7c6","sharesOf(address)":"f5eb42dc","stakeUpStaking()":"6dfc9ecd","stakeUpToken()":"f9fc6b6e","symbol()":"95d89b41","tby()":"616e4d81","token()":"fc0c546a","totalShares()":"3a98ef39","totalSupply()":"18160ddd","totalUsd()":"527913b1","transfer(address,uint256)":"a9059cbb","transferFrom(address,address,uint256)":"23b872dd","transferOwnership(address)":"f2fde38b","transferShares(address,uint256)":"8fcb4e5b","transferSharesFrom(address,address,uint256)":"6d780459","usdByShares(uint256)":"8b33021d","wstUsdc()":"7ffae21f"},"id":93}