{"abi":[{"type":"constructor","inputs":[{"name":"layerZeroEndpoint","type":"address","internalType":"address"},{"name":"bridgeOperator","type":"address","internalType":"address"}],"stateMutability":"nonpayable"},{"type":"function","name":"SEND","inputs":[],"outputs":[{"name":"","type":"uint16","internalType":"uint16"}],"stateMutability":"view"},{"type":"function","name":"SEND_AND_CALL","inputs":[],"outputs":[{"name":"","type":"uint16","internalType":"uint16"}],"stateMutability":"view"},{"type":"function","name":"allowInitializePath","inputs":[{"name":"origin","type":"tuple","internalType":"struct Origin","components":[{"name":"srcEid","type":"uint32","internalType":"uint32"},{"name":"sender","type":"bytes32","internalType":"bytes32"},{"name":"nonce","type":"uint64","internalType":"uint64"}]}],"outputs":[{"name":"","type":"bool","internalType":"bool"}],"stateMutability":"view"},{"type":"function","name":"allowance","inputs":[{"name":"owner","type":"address","internalType":"address"},{"name":"spender","type":"address","internalType":"address"}],"outputs":[{"name":"","type":"uint256","internalType":"uint256"}],"stateMutability":"view"},{"type":"function","name":"approvalRequired","inputs":[],"outputs":[{"name":"","type":"bool","internalType":"bool"}],"stateMutability":"pure"},{"type":"function","name":"approve","inputs":[{"name":"spender","type":"address","internalType":"address"},{"name":"amount","type":"uint256","internalType":"uint256"}],"outputs":[{"name":"","type":"bool","internalType":"bool"}],"stateMutability":"nonpayable"},{"type":"function","name":"balanceOf","inputs":[{"name":"account","type":"address","internalType":"address"}],"outputs":[{"name":"","type":"uint256","internalType":"uint256"}],"stateMutability":"view"},{"type":"function","name":"bridgeOperator","inputs":[],"outputs":[{"name":"","type":"address","internalType":"address"}],"stateMutability":"view"},{"type":"function","name":"combineOptions","inputs":[{"name":"_eid","type":"uint32","internalType":"uint32"},{"name":"_msgType","type":"uint16","internalType":"uint16"},{"name":"_extraOptions","type":"bytes","internalType":"bytes"}],"outputs":[{"name":"","type":"bytes","internalType":"bytes"}],"stateMutability":"view"},{"type":"function","name":"composeMsgSender","inputs":[],"outputs":[{"name":"sender","type":"address","internalType":"address"}],"stateMutability":"view"},{"type":"function","name":"decimalConversionRate","inputs":[],"outputs":[{"name":"","type":"uint256","internalType":"uint256"}],"stateMutability":"view"},{"type":"function","name":"decimals","inputs":[],"outputs":[{"name":"","type":"uint8","internalType":"uint8"}],"stateMutability":"view"},{"type":"function","name":"decreaseAllowance","inputs":[{"name":"spender","type":"address","internalType":"address"},{"name":"subtractedValue","type":"uint256","internalType":"uint256"}],"outputs":[{"name":"","type":"bool","internalType":"bool"}],"stateMutability":"nonpayable"},{"type":"function","name":"endpoint","inputs":[],"outputs":[{"name":"","type":"address","internalType":"contract ILayerZeroEndpointV2"}],"stateMutability":"view"},{"type":"function","name":"enforcedOptions","inputs":[{"name":"eid","type":"uint32","internalType":"uint32"},{"name":"msgType","type":"uint16","internalType":"uint16"}],"outputs":[{"name":"enforcedOption","type":"bytes","internalType":"bytes"}],"stateMutability":"view"},{"type":"function","name":"forceSetDelegate","inputs":[{"name":"newDelegate","type":"address","internalType":"address"}],"outputs":[],"stateMutability":"nonpayable"},{"type":"function","name":"increaseAllowance","inputs":[{"name":"spender","type":"address","internalType":"address"},{"name":"addedValue","type":"uint256","internalType":"uint256"}],"outputs":[{"name":"","type":"bool","internalType":"bool"}],"stateMutability":"nonpayable"},{"type":"function","name":"isPeer","inputs":[{"name":"_eid","type":"uint32","internalType":"uint32"},{"name":"_peer","type":"bytes32","internalType":"bytes32"}],"outputs":[{"name":"","type":"bool","internalType":"bool"}],"stateMutability":"view"},{"type":"function","name":"lzReceive","inputs":[{"name":"_origin","type":"tuple","internalType":"struct Origin","components":[{"name":"srcEid","type":"uint32","internalType":"uint32"},{"name":"sender","type":"bytes32","internalType":"bytes32"},{"name":"nonce","type":"uint64","internalType":"uint64"}]},{"name":"_guid","type":"bytes32","internalType":"bytes32"},{"name":"_message","type":"bytes","internalType":"bytes"},{"name":"_executor","type":"address","internalType":"address"},{"name":"_extraData","type":"bytes","internalType":"bytes"}],"outputs":[],"stateMutability":"payable"},{"type":"function","name":"lzReceiveAndRevert","inputs":[{"name":"_packets","type":"tuple[]","internalType":"struct InboundPacket[]","components":[{"name":"origin","type":"tuple","internalType":"struct Origin","components":[{"name":"srcEid","type":"uint32","internalType":"uint32"},{"name":"sender","type":"bytes32","internalType":"bytes32"},{"name":"nonce","type":"uint64","internalType":"uint64"}]},{"name":"dstEid","type":"uint32","internalType":"uint32"},{"name":"receiver","type":"address","internalType":"address"},{"name":"guid","type":"bytes32","internalType":"bytes32"},{"name":"value","type":"uint256","internalType":"uint256"},{"name":"executor","type":"address","internalType":"address"},{"name":"message","type":"bytes","internalType":"bytes"},{"name":"extraData","type":"bytes","internalType":"bytes"}]}],"outputs":[],"stateMutability":"payable"},{"type":"function","name":"lzReceiveSimulate","inputs":[{"name":"_origin","type":"tuple","internalType":"struct Origin","components":[{"name":"srcEid","type":"uint32","internalType":"uint32"},{"name":"sender","type":"bytes32","internalType":"bytes32"},{"name":"nonce","type":"uint64","internalType":"uint64"}]},{"name":"_guid","type":"bytes32","internalType":"bytes32"},{"name":"_message","type":"bytes","internalType":"bytes"},{"name":"_executor","type":"address","internalType":"address"},{"name":"_extraData","type":"bytes","internalType":"bytes"}],"outputs":[],"stateMutability":"payable"},{"type":"function","name":"msgInspector","inputs":[],"outputs":[{"name":"","type":"address","internalType":"address"}],"stateMutability":"view"},{"type":"function","name":"name","inputs":[],"outputs":[{"name":"","type":"string","internalType":"string"}],"stateMutability":"view"},{"type":"function","name":"nextNonce","inputs":[{"name":"","type":"uint32","internalType":"uint32"},{"name":"","type":"bytes32","internalType":"bytes32"}],"outputs":[{"name":"nonce","type":"uint64","internalType":"uint64"}],"stateMutability":"view"},{"type":"function","name":"oApp","inputs":[],"outputs":[{"name":"","type":"address","internalType":"address"}],"stateMutability":"view"},{"type":"function","name":"oAppVersion","inputs":[],"outputs":[{"name":"senderVersion","type":"uint64","internalType":"uint64"},{"name":"receiverVersion","type":"uint64","internalType":"uint64"}],"stateMutability":"pure"},{"type":"function","name":"oftVersion","inputs":[],"outputs":[{"name":"interfaceId","type":"bytes4","internalType":"bytes4"},{"name":"version","type":"uint64","internalType":"uint64"}],"stateMutability":"pure"},{"type":"function","name":"owner","inputs":[],"outputs":[{"name":"","type":"address","internalType":"address"}],"stateMutability":"view"},{"type":"function","name":"peers","inputs":[{"name":"eid","type":"uint32","internalType":"uint32"}],"outputs":[{"name":"peer","type":"bytes32","internalType":"bytes32"}],"stateMutability":"view"},{"type":"function","name":"preCrime","inputs":[],"outputs":[{"name":"","type":"address","internalType":"address"}],"stateMutability":"view"},{"type":"function","name":"quoteOFT","inputs":[{"name":"_sendParam","type":"tuple","internalType":"struct SendParam","components":[{"name":"dstEid","type":"uint32","internalType":"uint32"},{"name":"to","type":"bytes32","internalType":"bytes32"},{"name":"amountLD","type":"uint256","internalType":"uint256"},{"name":"minAmountLD","type":"uint256","internalType":"uint256"},{"name":"extraOptions","type":"bytes","internalType":"bytes"},{"name":"composeMsg","type":"bytes","internalType":"bytes"},{"name":"oftCmd","type":"bytes","internalType":"bytes"}]}],"outputs":[{"name":"oftLimit","type":"tuple","internalType":"struct OFTLimit","components":[{"name":"minAmountLD","type":"uint256","internalType":"uint256"},{"name":"maxAmountLD","type":"uint256","internalType":"uint256"}]},{"name":"oftFeeDetails","type":"tuple[]","internalType":"struct OFTFeeDetail[]","components":[{"name":"feeAmountLD","type":"int256","internalType":"int256"},{"name":"description","type":"string","internalType":"string"}]},{"name":"oftReceipt","type":"tuple","internalType":"struct OFTReceipt","components":[{"name":"amountSentLD","type":"uint256","internalType":"uint256"},{"name":"amountReceivedLD","type":"uint256","internalType":"uint256"}]}],"stateMutability":"view"},{"type":"function","name":"quoteSend","inputs":[{"name":"_sendParam","type":"tuple","internalType":"struct SendParam","components":[{"name":"dstEid","type":"uint32","internalType":"uint32"},{"name":"to","type":"bytes32","internalType":"bytes32"},{"name":"amountLD","type":"uint256","internalType":"uint256"},{"name":"minAmountLD","type":"uint256","internalType":"uint256"},{"name":"extraOptions","type":"bytes","internalType":"bytes"},{"name":"composeMsg","type":"bytes","internalType":"bytes"},{"name":"oftCmd","type":"bytes","internalType":"bytes"}]},{"name":"_payInLzToken","type":"bool","internalType":"bool"}],"outputs":[{"name":"msgFee","type":"tuple","internalType":"struct MessagingFee","components":[{"name":"nativeFee","type":"uint256","internalType":"uint256"},{"name":"lzTokenFee","type":"uint256","internalType":"uint256"}]}],"stateMutability":"view"},{"type":"function","name":"renounceOwnership","inputs":[],"outputs":[],"stateMutability":"nonpayable"},{"type":"function","name":"send","inputs":[{"name":"_sendParam","type":"tuple","internalType":"struct SendParam","components":[{"name":"dstEid","type":"uint32","internalType":"uint32"},{"name":"to","type":"bytes32","internalType":"bytes32"},{"name":"amountLD","type":"uint256","internalType":"uint256"},{"name":"minAmountLD","type":"uint256","internalType":"uint256"},{"name":"extraOptions","type":"bytes","internalType":"bytes"},{"name":"composeMsg","type":"bytes","internalType":"bytes"},{"name":"oftCmd","type":"bytes","internalType":"bytes"}]},{"name":"_fee","type":"tuple","internalType":"struct MessagingFee","components":[{"name":"nativeFee","type":"uint256","internalType":"uint256"},{"name":"lzTokenFee","type":"uint256","internalType":"uint256"}]},{"name":"_refundAddress","type":"address","internalType":"address"}],"outputs":[{"name":"msgReceipt","type":"tuple","internalType":"struct MessagingReceipt","components":[{"name":"guid","type":"bytes32","internalType":"bytes32"},{"name":"nonce","type":"uint64","internalType":"uint64"},{"name":"fee","type":"tuple","internalType":"struct MessagingFee","components":[{"name":"nativeFee","type":"uint256","internalType":"uint256"},{"name":"lzTokenFee","type":"uint256","internalType":"uint256"}]}]},{"name":"oftReceipt","type":"tuple","internalType":"struct OFTReceipt","components":[{"name":"amountSentLD","type":"uint256","internalType":"uint256"},{"name":"amountReceivedLD","type":"uint256","internalType":"uint256"}]}],"stateMutability":"payable"},{"type":"function","name":"setBridgeOperator","inputs":[{"name":"bridgeOperator_","type":"address","internalType":"address"}],"outputs":[],"stateMutability":"nonpayable"},{"type":"function","name":"setDelegate","inputs":[{"name":"_delegate","type":"address","internalType":"address"}],"outputs":[],"stateMutability":"nonpayable"},{"type":"function","name":"setEnforcedOptions","inputs":[{"name":"_enforcedOptions","type":"tuple[]","internalType":"struct EnforcedOptionParam[]","components":[{"name":"eid","type":"uint32","internalType":"uint32"},{"name":"msgType","type":"uint16","internalType":"uint16"},{"name":"options","type":"bytes","internalType":"bytes"}]}],"outputs":[],"stateMutability":"nonpayable"},{"type":"function","name":"setMsgInspector","inputs":[{"name":"_msgInspector","type":"address","internalType":"address"}],"outputs":[],"stateMutability":"nonpayable"},{"type":"function","name":"setPeer","inputs":[{"name":"eid","type":"uint32","internalType":"uint32"},{"name":"peer","type":"bytes32","internalType":"bytes32"}],"outputs":[],"stateMutability":"nonpayable"},{"type":"function","name":"setPreCrime","inputs":[{"name":"_preCrime","type":"address","internalType":"address"}],"outputs":[],"stateMutability":"nonpayable"},{"type":"function","name":"setUsdPerShare","inputs":[{"name":"yieldPerShare","type":"uint256","internalType":"uint256"}],"outputs":[],"stateMutability":"nonpayable"},{"type":"function","name":"setYieldRelayer","inputs":[{"name":"yieldRelayer","type":"address","internalType":"address"}],"outputs":[],"stateMutability":"nonpayable"},{"type":"function","name":"sharedDecimals","inputs":[],"outputs":[{"name":"","type":"uint8","internalType":"uint8"}],"stateMutability":"pure"},{"type":"function","name":"sharesByUsd","inputs":[{"name":"usdAmount","type":"uint256","internalType":"uint256"}],"outputs":[{"name":"","type":"uint256","internalType":"uint256"}],"stateMutability":"view"},{"type":"function","name":"sharesOf","inputs":[{"name":"account","type":"address","internalType":"address"}],"outputs":[{"name":"","type":"uint256","internalType":"uint256"}],"stateMutability":"view"},{"type":"function","name":"symbol","inputs":[],"outputs":[{"name":"","type":"string","internalType":"string"}],"stateMutability":"view"},{"type":"function","name":"token","inputs":[],"outputs":[{"name":"","type":"address","internalType":"address"}],"stateMutability":"view"},{"type":"function","name":"totalShares","inputs":[],"outputs":[{"name":"","type":"uint256","internalType":"uint256"}],"stateMutability":"view"},{"type":"function","name":"totalSupply","inputs":[],"outputs":[{"name":"","type":"uint256","internalType":"uint256"}],"stateMutability":"view"},{"type":"function","name":"totalUsd","inputs":[],"outputs":[{"name":"","type":"uint256","internalType":"uint256"}],"stateMutability":"view"},{"type":"function","name":"transfer","inputs":[{"name":"recipient","type":"address","internalType":"address"},{"name":"amount","type":"uint256","internalType":"uint256"}],"outputs":[{"name":"","type":"bool","internalType":"bool"}],"stateMutability":"nonpayable"},{"type":"function","name":"transferFrom","inputs":[{"name":"sender","type":"address","internalType":"address"},{"name":"recipient","type":"address","internalType":"address"},{"name":"amount","type":"uint256","internalType":"uint256"}],"outputs":[{"name":"","type":"bool","internalType":"bool"}],"stateMutability":"nonpayable"},{"type":"function","name":"transferOwnership","inputs":[{"name":"newOwner","type":"address","internalType":"address"}],"outputs":[],"stateMutability":"nonpayable"},{"type":"function","name":"transferShares","inputs":[{"name":"recipient","type":"address","internalType":"address"},{"name":"sharesAmount","type":"uint256","internalType":"uint256"}],"outputs":[{"name":"","type":"uint256","internalType":"uint256"}],"stateMutability":"nonpayable"},{"type":"function","name":"transferSharesFrom","inputs":[{"name":"sender","type":"address","internalType":"address"},{"name":"recipient","type":"address","internalType":"address"},{"name":"sharesAmount","type":"uint256","internalType":"uint256"}],"outputs":[{"name":"","type":"uint256","internalType":"uint256"}],"stateMutability":"nonpayable"},{"type":"function","name":"usdByShares","inputs":[{"name":"sharesAmount","type":"uint256","internalType":"uint256"}],"outputs":[{"name":"","type":"uint256","internalType":"uint256"}],"stateMutability":"view"},{"type":"event","name":"Approval","inputs":[{"name":"owner","type":"address","indexed":true,"internalType":"address"},{"name":"spender","type":"address","indexed":true,"internalType":"address"},{"name":"value","type":"uint256","indexed":false,"internalType":"uint256"}],"anonymous":false},{"type":"event","name":"EnforcedOptionSet","inputs":[{"name":"_enforcedOptions","type":"tuple[]","indexed":false,"internalType":"struct EnforcedOptionParam[]","components":[{"name":"eid","type":"uint32","internalType":"uint32"},{"name":"msgType","type":"uint16","internalType":"uint16"},{"name":"options","type":"bytes","internalType":"bytes"}]}],"anonymous":false},{"type":"event","name":"MsgInspectorSet","inputs":[{"name":"inspector","type":"address","indexed":false,"internalType":"address"}],"anonymous":false},{"type":"event","name":"OFTReceived","inputs":[{"name":"guid","type":"bytes32","indexed":true,"internalType":"bytes32"},{"name":"srcEid","type":"uint32","indexed":false,"internalType":"uint32"},{"name":"toAddress","type":"address","indexed":true,"internalType":"address"},{"name":"amountReceivedLD","type":"uint256","indexed":false,"internalType":"uint256"}],"anonymous":false},{"type":"event","name":"OFTSent","inputs":[{"name":"guid","type":"bytes32","indexed":true,"internalType":"bytes32"},{"name":"dstEid","type":"uint32","indexed":false,"internalType":"uint32"},{"name":"fromAddress","type":"address","indexed":true,"internalType":"address"},{"name":"amountSentLD","type":"uint256","indexed":false,"internalType":"uint256"},{"name":"amountReceivedLD","type":"uint256","indexed":false,"internalType":"uint256"}],"anonymous":false},{"type":"event","name":"OwnershipTransferred","inputs":[{"name":"previousOwner","type":"address","indexed":true,"internalType":"address"},{"name":"newOwner","type":"address","indexed":true,"internalType":"address"}],"anonymous":false},{"type":"event","name":"PeerSet","inputs":[{"name":"eid","type":"uint32","indexed":false,"internalType":"uint32"},{"name":"peer","type":"bytes32","indexed":false,"internalType":"bytes32"}],"anonymous":false},{"type":"event","name":"PreCrimeSet","inputs":[{"name":"preCrimeAddress","type":"address","indexed":false,"internalType":"address"}],"anonymous":false},{"type":"event","name":"SharesBurnt","inputs":[{"name":"account","type":"address","indexed":true,"internalType":"address"},{"name":"preRebaseTokenAmount","type":"uint256","indexed":false,"internalType":"uint256"},{"name":"postRebaseTokenAmount","type":"uint256","indexed":false,"internalType":"uint256"},{"name":"sharesAmount","type":"uint256","indexed":false,"internalType":"uint256"}],"anonymous":false},{"type":"event","name":"Transfer","inputs":[{"name":"from","type":"address","indexed":true,"internalType":"address"},{"name":"to","type":"address","indexed":true,"internalType":"address"},{"name":"value","type":"uint256","indexed":false,"internalType":"uint256"}],"anonymous":false},{"type":"event","name":"TransferShares","inputs":[{"name":"from","type":"address","indexed":true,"internalType":"address"},{"name":"to","type":"address","indexed":true,"internalType":"address"},{"name":"sharesAmount","type":"uint256","indexed":false,"internalType":"uint256"}],"anonymous":false},{"type":"event","name":"UpdatedYieldPerShare","inputs":[{"name":"yieldPerShares","type":"uint256","indexed":false,"internalType":"uint256"}],"anonymous":false},{"type":"error","name":"InvalidDelegate","inputs":[]},{"type":"error","name":"InvalidEndpointCall","inputs":[]},{"type":"error","name":"InvalidLocalDecimals","inputs":[]},{"type":"error","name":"InvalidOptions","inputs":[{"name":"options","type":"bytes","internalType":"bytes"}]},{"type":"error","name":"InvalidPeerID","inputs":[]},{"type":"error","name":"LzTokenUnavailable","inputs":[]},{"type":"error","name":"NoPeer","inputs":[{"name":"eid","type":"uint32","internalType":"uint32"}]},{"type":"error","name":"NotEnoughNative","inputs":[{"name":"msgValue","type":"uint256","internalType":"uint256"}]},{"type":"error","name":"OnlyEndpoint","inputs":[{"name":"addr","type":"address","internalType":"address"}]},{"type":"error","name":"OnlyPeer","inputs":[{"name":"eid","type":"uint32","internalType":"uint32"},{"name":"sender","type":"bytes32","internalType":"bytes32"}]},{"type":"error","name":"OnlySelf","inputs":[]},{"type":"error","name":"SimulationResult","inputs":[{"name":"result","type":"bytes","internalType":"bytes"}]},{"type":"error","name":"SlippageExceeded","inputs":[{"name":"amountLD","type":"uint256","internalType":"uint256"},{"name":"minAmountLD","type":"uint256","internalType":"uint256"}]},{"type":"error","name":"UnauthorizedCaller","inputs":[]},{"type":"error","name":"ZeroAddress","inputs":[]}],"bytecode":{"object":"0x60c080604052346104955760006040826135818038038091610021828561049a565b833981010312610492576100406020610039846104d3565b93016104d3565b906040519261005060408561049a565b600b84526a7374616b6564205553444360a81b60208501526040519261007760408561049a565b600684526573745553444360d01b60208501526001600160a01b031680156104835782546001600160a01b031990811682178455600180549182163390811790915560405193916001600160a01b03167f8be0079c531659141344cd1fd0a4f28419497f9722a3daafe3b4186f6b6457e08680a36001600160a01b0316608081905290813b1561047f57602483858094829463ca5eb5e160e01b845260048401525af18015610474578290610464575b505064e8d4a5100060a05282516001600160401b03811161045057600954600181811c91168015610446575b602082101461043257601f81116103cf575b506020601f821160011461036c57829394829392610361575b50508160011b916000199060031b1c1916176009555b8151906001600160401b03821161034d57600a54600181811c91168015610343575b602082101461032f57601f81116102cc575b50602090601f831160011461026b57919283610260575b50508160011b916000199060031b1c191617600a555b4260105560405161309990816104e882396080518181816106d10152818161080801528181610a8b01528181610bf8015281816117d40152818161198901528181611b6b0152611e24015260a05181818161056b015281816109020152818161156b0152612b450152f35b0151905038806101df565b90601f19831693600a8352818320925b8581106102b45750836001951061029b575b505050811b01600a556101f5565b015160001960f88460031b161c1916905538808061028d565b9192602060018192868501518155019401920161027b565b600a82527fc65a7bb8d6351c1cf70c95a316cc6a92839c986682d98bc35f958f4883f9d2a8601f840160051c81019160208510610325575b601f0160051c01905b81811061031a57506101c8565b82815560010161030d565b9091508190610304565b634e487b7160e01b82526022600452602482fd5b90607f16906101b6565b634e487b7160e01b81526041600452602490fd5b01519050388061017e565b6009835280832090601f198316845b8181106103b75750958360019596971061039e575b505050811b01600955610194565b015160001960f88460031b161c19169055388080610390565b9192602060018192868b01518155019401920161037b565b600983527f6e1540171b6c0c960b71a7020d9f60077f6af931a8bbf590da0223dacf75c7af601f830160051c81019160208410610428575b601f0160051c01905b81811061041d5750610165565b838155600101610410565b9091508190610407565b634e487b7160e01b83526022600452602483fd5b90607f1690610153565b634e487b7160e01b82526041600452602482fd5b61046d9161049a565b3881610127565b6040513d84823e3d90fd5b8380fd5b63d92e233d60e01b8352600483fd5b80fd5b600080fd5b601f909101601f19168101906001600160401b038211908210176104bd57604052565b634e487b7160e01b600052604160045260246000fd5b51906001600160a01b03821682036104955756fe608080604052600436101561001357600080fd5b600090813560e01c90816306fdde031461226757508063095ea7b3146122405780630cde821c146121f35780630d35b415146120a4578063111ecdad1461207b57806313137d6514611e16578063134d4f2514611dfa578063156a0d0f14611dd357806317442b7014611db157806318160ddd14611a845780631f5e133414611d955780632088d7c614611d7657806323b872dd14611d43578063313ce56714611d275780633400288b14611c775780633950935114611c2c5780633a98ef3914611c0e5780633b6f743b14611a89578063527913b114611a8457806352ae2879146102cf5780635535d46114611a24578063590665c2146119fd5780635a0dfe4d146119b85780635e280f11146119735780636d780459146119355780636fc1b31e146118c757806370a082311461188d578063715018a614611830578063765aef49146117965780637d25a05e146117705780637d85b15814611707578063857749b0146116eb5780638b33021d146116cc5780638da5cb5b146116a35780638fcb4e5b1461165d57806395d89b411461158e578063963efcaa146115535780639f68b96414611537578063a457c2d7146114a2578063a9059cbb1461145c578063b731ea0a14611433578063b92d0eff146102cf578063b98bd0701461114a578063bb0b6a5314611115578063bc70b354146110ab578063bd815db014610e4d578063c7c7f5b314610885578063ca5eb5e1146107e3578063d045a0dc14610519578063d4243885146104ab578063dd62ed3e14610445578063e090b53d146103d6578063f2fde38b1461030d578063f5eb42dc146102d4578063fc0c546a146102cf5763ff7bd03d1461028957600080fd5b346102cc5760603660031901126102cc5760043563ffffffff8116908181036102c8579160409160209350815260028352205460405190602435148152f35b8280fd5b80fd5b612489565b50346102cc5760203660031901126102cc576020906040906001600160a01b036102fc612351565b168152600c83522054604051908152f35b50346102cc5760203660031901126102cc57610327612351565b61032f612f02565b6001600160a01b0316801561038257600180546001600160a01b0319811683179091556001600160a01b03167f8be0079c531659141344cd1fd0a4f28419497f9722a3daafe3b4186f6b6457e08380a380f35b60405162461bcd60e51b815260206004820152602660248201527f4f776e61626c653a206e6577206f776e657220697320746865207a65726f206160448201526564647265737360d01b6064820152608490fd5b50346102cc5760203660031901126102cc576103f0612351565b81546001600160a01b03163303610436576001600160a01b0316801561042757600b80546001600160a01b03191691909117905580f35b63d92e233d60e01b8252600482fd5b635c427cd960e01b8252600482fd5b50346102cc5760403660031901126102cc5761045f612351565b60243591906001600160a01b03831683036104a7579060409160018060a01b03168152600d602052209060018060a01b03166000526020526020604060002054604051908152f35b5080fd5b50346102cc5760203660031901126102cc577fd48d879cef83a1c0bdda516f27b13ddb1b3f8bbac1c9e1511bb2a659c242776060206104e8612351565b6104f0612f02565b600380546001600160a01b0319166001600160a01b03929092169182179055604051908152a180f35b5061052336612399565b505050923033036107d457836020116107685781356001600160a01b03169361059361054f82856127b2565b6001600160c01b0319913591821691600882106107b4575b50507f00000000000000000000000000000000000000000000000000000000000000009060c01c612fb7565b9261059d83612643565b506105a784612654565b91861561077b576105d4836105bf8a95600e54612688565b600e55888552600c6020526040852054612688565b878452600c60205260408420556105ed85600f54612688565b600f556028811161063e575b5050507fefed6d3500546b29533b128a29e3a94d70788727f0507505ac12eaf2e578fd9c91610629604092612643565b9063ffffffff8351921682526020820152a380f35b6040840135906001600160401b0382168203610777576106cf9161067861067183604c9461066b8a612643565b976127c3565b369161277b565b6040519485926001600160401b0360c01b9060c01b16602084015263ffffffff60e01b9060e01b16602883015287602c8301526106be8151809260208686019101612309565b81010301601f1981018352826125d9565b7f00000000000000000000000000000000000000000000000000000000000000006001600160a01b0316803b156102c85761073e8392918392604051948580948193633e5ac80960e11b83528d60048401528c602484015283604484015260806064840152608483019061232c565b03925af1801561076c57610753575b806105f9565b8161075d916125d9565b61076857843861074d565b8480fd5b6040513d84823e3d90fd5b8380fd5b60405162461bcd60e51b815260206004820152601160248201527026a4a72a2faa27afad22a927afa0a2222960791b6044820152606490fd5b6001600160c01b031960089290920360031b82901b161690503880610567565b63029a949d60e31b8552600485fd5b50346102cc5760203660031901126102cc57806107fe612351565b610806612f02565b7f00000000000000000000000000000000000000000000000000000000000000006001600160a01b031690813b156108815760405163ca5eb5e160e01b81526001600160a01b0390911660048201529082908290602490829084905af1801561076c576108705750f35b8161087a916125d9565b6102cc5780f35b5050fd5b5060803660031901126102cc57600435906001600160401b0382116102cc578160040160e060031984360301126104a75760403660231901126104a757606435926001600160a01b03841684036102c8576108de6128c8565b506108e761262a565b50610930604461092b6064840135936108ff86612643565b507f00000000000000000000000000000000000000000000000000000000000000009283910135612f97565b612fb7565b90808210610e35575061094281612654565b3315610dfa57338452600c60205260408420549061096282821115612d5f565b6109848161096f816126ab565b9361097c82600e546126c8565b600e556126c8565b338652600c602052604086205561099a816126ab565b604051928352602083015260408201527f8b2a1e1ad5e0578c3dd82494156e985dade827a87c573b5c1c7716a32162ad6460603392a26109dc81600f546126c8565b600f556109e98183612b35565b94906109f484612643565b604051610a0081612572565b602435815260208101906044358252610a176128c8565b505192833403610de757815180610be3575b5090610a87988392610a3e60809796956129df565b925115159263ffffffff60405195610a55876125a3565b168552602085015260408401526060830152848201526040518098819482936302637a4560e41b845260048401612cf1565b03917f00000000000000000000000000000000000000000000000000000000000000006001600160a01b03165af1928315610bd7578093610b63575b5060c0935060405190610ad582612572565b8082526020820192818452610aeb855191612643565b9163ffffffff6040519316835280602084015260408301527f85496b760a4b7f8d66384b9df21b381f5d1b1e79f229a47aaf4c232edc2fe59a60603393a360206040805194805186526001600160401b03838201511683870152015180516040860152015160608401525160808301525160a0820152f35b90925060803d608011610bd0575b610b7b81866125d9565b8401936080818603126104a75760405191610b95836125be565b815183526020820151906001600160401b03821682036102cc5750602083015260c094610bc491604001612cc9565b60408201529138610ac3565b503d610b71565b604051903d90823e3d90fd5b60405163393f876560e21b81529195949392917f00000000000000000000000000000000000000000000000000000000000000006001600160a01b031690602081600481855afa908115610ddc578b91610d96575b506001600160a01b0316908115610d8757908a80610cef94936040519460208601916323b872dd60e01b83523360248801526044870152606486015260648552610c836084866125d9565b60405194610c926040876125d9565b602086527f5361666545524332303a206c6f772d6c6576656c2063616c6c206661696c65646020870152519082855af13d15610d7f573d91610cd383612760565b92610ce160405194856125d9565b83523d8d602085013e612fca565b8051908115918215610d65575b505015610d0d579091929338610a29565b60405162461bcd60e51b815260206004820152602a60248201527f5361666545524332303a204552433230206f7065726174696f6e20646964206e6044820152691bdd081cdd58d8d9595960b21b6064820152608490fd5b610d789250602080918301019101612b1d565b3880610cfc565b606091612fca565b6329b99a9560e11b8b5260048bfd5b90506020813d602011610dd4575b81610db1602093836125d9565b81010312610dd057516001600160a01b0381168103610dd05738610c38565b8a80fd5b3d9150610da4565b6040513d8d823e3d90fd5b6304fb820960e51b885234600452602488fd5b60405162461bcd60e51b8152602060048201526013602482015272212aa9272fa32927a6afad22a927afa0a2222960691b6044820152606490fd5b6371c4efed60e01b8452600491909152602452604482fd5b5060203660031901126102cc576004356001600160401b0381116104a757610e799036906004016125fa565b903681900361013e190190835b83811015610fe257848160051b830135848112156104a7578301610ea981612643565b90610ecc6020820135809363ffffffff1660005260026020526040600020541490565b15610fd757610edf61010082018261270d565b60e08301356001600160a01b03811693919290849003610fd357610f0761012083018361270d565b939091303b15610fcf57604051633411683760e21b81529663ffffffff610f2d86612478565b16600489015260248801526040840135916001600160401b038316809303610fcb57889688968795610f818795610f989560c098604489015260a08b0135606489015260e0608489015260e488019161273f565b9260a48601526003198584030160c486015261273f565b03920135305af1801561076c57610fb6575b50506001905b01610e86565b81610fc0916125d9565b610768578438610faa565b8880fd5b8780fd5b8580fd5b505050600190610fb0565b604051638e9e709960e01b815285908181600481335afa90811561076c57829161102d575b604051638351eea760e01b81526020600482015280611029602482018561232c565b0390fd5b90503d8083833e61103e81836125d9565b8101906020818303126102c8578051906001600160401b038211610777570181601f820112156102c85780519261107484612760565b9261108260405194856125d9565b848452602085840101116102cc5750611029926110a59160208085019101612309565b82611007565b50346102cc5760603660031901126102cc576110c5612465565b6110cd6124a4565b91604435906001600160401b0382116102cc576111116110fd85856110f5366004880161236c565b9290916127e0565b60405191829160208352602083019061232c565b0390f35b50346102cc5760203660031901126102cc57604060209163ffffffff611139612465565b168152600283522054604051908152f35b50346102cc5760203660031901126102cc576004356001600160401b0381116104a75761117b9036906004016125fa565b611183612f02565b825b818110611285575060405191816020840160208552526040830160408360051b85010192828690605e19813603015b8383106111e557887fbe4864a8e820971c0247f5992e2da559595f7bf076a21cb5928d443d2a13b6748989038aa180f35b909192939495603f1988820301865286358281121561128157830163ffffffff61120e82612478565b168252602081013561ffff8116809103610dd05760208301526040810135601e1982360301811215610dd05701602081359101906001600160401b038111610dd0578036038213610dd05761127360209283926060868160406001990152019161273f565b9801960194930191906111b4565b8980fd5b9291906112a96112a36112998684866126d5565b604081019061270d565b90612f5a565b6112b76112998583856126d5565b63ffffffff6112d26112cd8886889a969a6126d5565b612643565b16855260046020526040852060206112eb8486886126d5565b01359061ffff8216820361142f579060409161ffff60009216825260205220906001600160401b03811161141b5761132382546124b5565b601f81116113d6575b508596601f821160011461136e5786978291600196979892611363575b5050600019600383901b1c191690841b1790555b01611185565b013590503880611349565b8287526020872090601f198316885b8181106113be5750906001969798998488959493106113a4575b505050811b01905561135d565b0135600019600384901b60f8161c19169055388080611397565b99926020600181928686013581550194019a0161137d565b82875260208720601f830160051c81019160208410611411575b601f0160051c01905b818110611406575061132c565b8781556001016113f9565b90915081906113f0565b634e487b7160e01b86526041600452602486fd5b8680fd5b50346102cc57806003193601126102cc576003546040516001600160a01b039091168152602090f35b50346102cc5760403660031901126102cc57611497611479612351565b60243561148581612654565b91611491838233612d9e565b33612e96565b602060405160018152f35b50346102cc5760403660031901126102cc576114bc612351565b604060243592338152600d6020522060018060a01b0382166000526020526040600020548281106114fb57611497926114f4916126c8565b90336128fe565b60405162461bcd60e51b8152602060048201526014602482015273414c4c4f57414e43455f42454c4f575f5a45524f60601b6044820152606490fd5b50346102cc57806003193601126102cc57602090604051908152f35b50346102cc57806003193601126102cc5760206040517f00000000000000000000000000000000000000000000000000000000000000008152f35b50346102cc57806003193601126102cc576040519080600a54906115b1826124b5565b808552916001811690811561163657506001146115d9575b611111846110fd818603826125d9565b600a81527fc65a7bb8d6351c1cf70c95a316cc6a92839c986682d98bc35f958f4883f9d2a8939250905b80821061161c575090915081016020016110fd826115c9565b919260018160209254838588010152019101909291611603565b60ff191660208087019190915292151560051b850190920192506110fd91508390506115c9565b50346102cc5760403660031901126102cc576020611679612351565b61169b60243561168a818433612d9e565b611693816126ab565b809333612e96565b604051908152f35b50346102cc57806003193601126102cc576001546040516001600160a01b039091168152602090f35b50346102cc5760203660031901126102cc57602061169b6004356126ab565b50346102cc57806003193601126102cc57602060405160068152f35b50346102cc5760203660031901126102cc57600b54600435906001600160a01b031633036104365760207fa4b3113065052f1784af5e6bd422a5435e2ac17ed9e1b29989426441d4b9bb4c914260105561176381600e54612a13565b600f55604051908152a180f35b50346102cc5760403660031901126102cc5760209061178d612465565b50604051908152f35b50346102cc5760203660031901126102cc576117b0612351565b81546001600160a01b03163303610436576001600160a01b031680156104275781907f00000000000000000000000000000000000000000000000000000000000000006001600160a01b031690813b1561088157829160248392604051948593849263ca5eb5e160e01b845260048401525af1801561076c576108705750f35b50346102cc57806003193601126102cc57611849612f02565b600180546001600160a01b0319811690915581906001600160a01b03167f8be0079c531659141344cd1fd0a4f28419497f9722a3daafe3b4186f6b6457e08280a380f35b50346102cc5760203660031901126102cc5760209061169b906040906001600160a01b036118b9612351565b168152600c845220546126ab565b50346102cc5760203660031901126102cc577ff0be4f1e87349231d80c36b33f9e8639658eeaf474014dee15a3e6a4d44141976020611904612351565b61190c612f02565b600580546001600160a01b0319166001600160a01b03929092169182179055604051908152a180f35b50346102cc57602061169b6119493661242b565b909291611955826126ab565b938491611963833383612a88565b61196e848383612d9e565b612e96565b50346102cc57806003193601126102cc576040517f00000000000000000000000000000000000000000000000000000000000000006001600160a01b03168152602090f35b50346102cc5760403660031901126102cc5760206119f36119d7612465565b6024359063ffffffff1660005260026020526040600020541490565b6040519015158152f35b50346102cc57806003193601126102cc57546040516001600160a01b039091168152602090f35b50346102cc5760403660031901126102cc5761ffff6040611a43612465565b9263ffffffff611a516124a4565b941681526004602052209116600052602052611111611a7d6110fd6040600020604051928380926124ef565b03826125d9565b61240d565b50346102cc5760403660031901126102cc576004356001600160401b0381116104a757806004019060e060031982360301126102c8576024359081151580920361077757611ad561262a565b50611aed604461092b6064840135936108ff87612643565b90808210611bf6575091604091611b12611b0a611b679584612b35565b919093612643565b92611b1b61262a565b50611b25846129df565b63ffffffff865195611b36876125a3565b16855260208501528484015260608301526080820152815180938192631bb8518b60e31b8352309060048401612cf1565b03817f00000000000000000000000000000000000000000000000000000000000000006001600160a01b03165afa90811561076c578291611bb8575b60408260208251918051835201516020820152f35b905060403d604011611bef575b611bcf81836125d9565b8101916040828403126102cc5750604091611be991612cc9565b38611ba3565b503d611bc5565b6371c4efed60e01b8552600491909152602452604483fd5b50346102cc57806003193601126102cc576020600e54604051908152f35b50346102cc5760403660031901126102cc57611497906040611c4c612351565b91338152600d6020522060018060a01b0382166000526020526114f460406000206024359054612688565b50346102cc5760403660031901126102cc57611c91612465565b815460243591906001600160a01b03163303611d185763ffffffff16908115611d09578015611cfa57816040917f238399d427b947898edb290f5ff0f9109849b1c3ba196a42e35f00c50a54b98b9385526002602052808386205582519182526020820152a180f35b63d92e233d60e01b8352600483fd5b6323eae4a560e21b8352600483fd5b635c427cd960e01b8352600483fd5b50346102cc57806003193601126102cc57602060405160128152f35b50346102cc57611497611d553661242b565b90611d61823385612a88565b611d6a82612654565b9261196e848383612d9e565b50346102cc5760203660031901126102cc57602061169b600435612654565b50346102cc57806003193601126102cc57602060405160018152f35b50346102cc57806003193601126102cc57604080516001815260016020820152f35b50346102cc57806003193601126102cc576040805162b9270b60e21b815260016020820152f35b50346102cc57806003193601126102cc57602060405160028152f35b50611e2036612399565b50507f00000000000000000000000000000000000000000000000000000000000000006001600160a01b03169491905033850361206857611e68611e6383612643565b6129df565b6020830135809103612043575080602011610fd35782356001600160a01b031694611e9661054f83866127b2565b93611ea084612643565b50611eaa85612654565b92871561077b57611ed784611ec28b96600e54612688565b600e55898652600c6020526040862054612688565b888552600c6020526040852055611ef086600f54612688565b600f5560288111611f2d575b505050507fefed6d3500546b29533b128a29e3a94d70788727f0507505ac12eaf2e578fd9c91610629604092612643565b6040850135906001600160401b038216820361076857611fa091611f5a61067183604c9461066b8b612643565b6040519485926001600160401b0360c01b9060c01b16602084015263ffffffff60e01b9060e01b16602883015288602c8301526106be8151809260208686019101612309565b813b156102c8578291611fe391604051948580948193633e5ac80960e11b83528c60048401528b602484015283604484015260806064840152608483019061232c565b03925af1801561203857611ffb575b80808792611efc565b916106298661202e604094987fefed6d3500546b29533b128a29e3a94d70788727f0507505ac12eaf2e578fd9c966125d9565b9692505091611ff2565b6040513d88823e3d90fd5b8660449163ffffffff61205586612643565b63309afaf360e21b845216600452602452fd5b6391ac5e4f60e01b865233600452602486fd5b50346102cc57806003193601126102cc576005546040516001600160a01b039091168152602090f35b50346102cc5760203660031901126102cc576004356001600160401b0381116104a75760e060031982360301126104a7576120dd61262a565b506120e661262a565b506040516120f381612572565b82815260208101916001600160401b0383526020916040519261211681856125d9565b858452612133604461092b6064860135956108ff81600401612643565b928084106121dc575094906040519561214b87612572565b8387528087019384526040519560a0870192518752518187015260a06040870152845180925260c086018160c08460051b890101960193905b83821061219f57885160608901528551608089015287870388f35b909192939583806121cd60019360bf198c82030186526040838c51805184520151918185820152019061232c565b98019201920190939291612184565b6371c4efed60e01b87526004849052602452604486fd5b50346102cc5760203660031901126102cc5761220d612351565b8154906001600160a01b0382163303611d18576001600160a01b0316908115611cfa576001600160a01b03191617815580f35b50346102cc5760403660031901126102cc5761149761225d612351565b60243590336128fe565b82346102cc57806003193601126102cc5760095481612285826124b5565b808552916001811690811561163657506001146122ac57611111846110fd818603826125d9565b600981527f6e1540171b6c0c960b71a7020d9f60077f6af931a8bbf590da0223dacf75c7af939250905b8082106122ef575090915081016020016110fd826115c9565b9192600181602092548385880101520191019092916122d6565b60005b83811061231c5750506000910152565b818101518382015260200161230c565b9060209161234581518092818552858086019101612309565b601f01601f1916010190565b600435906001600160a01b038216820361236757565b600080fd5b9181601f84011215612367578235916001600160401b038311612367576020838186019501011161236757565b90600319820160e081126123675760601361236757600491606435916084356001600160401b03811161236757826123d39160040161236c565b9092909160a4356001600160a01b0381168103612367579160c435906001600160401b038211612367576124099160040161236c565b9091565b34612367576000366003190112612367576020600f54604051908152f35b6060906003190112612367576004356001600160a01b038116810361236757906024356001600160a01b0381168103612367579060443590565b6004359063ffffffff8216820361236757565b359063ffffffff8216820361236757565b34612367576000366003190112612367576020604051308152f35b6024359061ffff8216820361236757565b90600182811c921680156124e5575b60208310146124cf57565b634e487b7160e01b600052602260045260246000fd5b91607f16916124c4565b600092918154916124ff836124b5565b8083529260018116908115612555575060011461251b57505050565b60009081526020812093945091925b83831061253b575060209250010190565b60018160209294939454838587010152019101919061252a565b915050602093945060ff929192191683830152151560051b010190565b604081019081106001600160401b0382111761258d57604052565b634e487b7160e01b600052604160045260246000fd5b60a081019081106001600160401b0382111761258d57604052565b606081019081106001600160401b0382111761258d57604052565b90601f801991011681019081106001600160401b0382111761258d57604052565b9181601f84011215612367578235916001600160401b038311612367576020808501948460051b01011161236757565b6040519061263782612572565b60006020838281520152565b3563ffffffff811681036123675790565b600e5490600f5490821561268257811561267d5761267a9261267591612a13565b612a3e565b90565b505090565b91505090565b9190820180921161269557565b634e487b7160e01b600052601160045260246000fd5b600e5480156126c45761267561267a92600f5490612a13565b5090565b9190820391821161269557565b91908110156126f75760051b81013590605e1981360301821215612367570190565b634e487b7160e01b600052603260045260246000fd5b903590601e198136030182121561236757018035906001600160401b0382116123675760200191813603831361236757565b908060209392818452848401376000828201840152601f01601f1916010190565b6001600160401b03811161258d57601f01601f191660200190565b92919261278782612760565b9161279560405193846125d9565b829481845281830111612367578281602093846000960137010152565b906028116123675760200190600890565b909291928360281161236757831161236757602801916027190190565b63ffffffff9094929416600052600460205261ffff60406000209116600052602052611a7d6128196040600020604051928380926124ef565b8051156128bb5782156128b5576002831015612855575050611029604051928392639a6d49cd60e01b845260206004850152602484019161273f565b9190926128628282612f5a565b816002116123675761267a91602091604051946128878151809286808a019101612309565b850190600119830190600201848301370101600060011982015282600119910301601f1981018352826125d9565b92509050565b509161267a91369161277b565b604051906128d5826125be565b81600081526000602082015260408051916128ef83612572565b60008352600060208401520152565b6001600160a01b03169081156129a1576001600160a01b03169182156129655760207f8c5be1e5ebec7d5bd14f71427d1e84f3dd0314c0f7b2291e5b200ac8c7c3b9259183600052600d8252604060002085600052825280604060002055604051908152a3565b60405162461bcd60e51b815260206004820152601460248201527320a8282927ab22afaa27afad22a927afa0a2222960611b6044820152606490fd5b60405162461bcd60e51b815260206004820152601660248201527520a8282927ab22afa32927a6afad22a927afa0a2222960511b6044820152606490fd5b63ffffffff168060005260026020526040600020549081156129ff575090565b63f6ff4fb760e01b60005260045260246000fd5b90806000190482118102612a3057670de0b6b3a764000091020490565b63bac65e5b6000526004601cfd5b7812725dd1d243aba0e75fe645cc4873f9e65afe688c928e1f218111670de0b6b3a76400000215820215612a7a57670de0b6b3a7640000020490565b637c5f487d6000526004601cfd5b6001600160a01b038082166000908152600d602090815260408083209386168352929052205490919060018101612ac0575b50505050565b838110612ae357612ada93612ad4916126c8565b916128fe565b38808080612aba565b60405162461bcd60e51b815260206004820152601260248201527110531313d5d05390d157d15610d15151115160721b6044820152606490fd5b90816020910312612367575180151581036123675790565b9091612bec612b6a6020840135947f000000000000000000000000000000000000000000000000000000000000000090612f97565b612b7a61067160a086018661270d565b8051158015969190612c9457612bc69160689160405194859260208401526001600160401b0360c01b9060c01b1660408301523360488301526106be8151809260208686019101612309565b925b8394600014612c8c576002905b6110f5612be182612643565b91608081019061270d565b6005549092906001600160a01b031680612c04575050565b612c32602091612c449360405180958194829363043a78eb60e01b845260406004850152604484019061232c565b8281036003190160248401528961232c565b03915afa8015612c8057612c555750565b612c769060203d602011612c79575b612c6e81836125d9565b810190612b1d565b50565b503d612c64565b6040513d6000823e3d90fd5b600190612bd5565b50906040519160208301526001600160401b0360c01b9060c01b16604082015260288152612cc36048826125d9565b92612bc8565b919082604091031261236757604051612ce181612572565b6020808294805184520151910152565b906020909392936040835263ffffffff81511660408401528181015160608401526080612d45612d2f604084015160a08488015260e087019061232c565b6060840151868203603f190160a088015261232c565b910151151560c08401526001600160a01b03909416910152565b15612d6657565b60405162461bcd60e51b815260206004820152601060248201526f109053105390d157d15610d15151115160821b6044820152606490fd5b6001600160a01b0316908115612e57576001600160a01b0316918215612e1a5781612e0992600052600c602052612de682604060002054612de181831115612d5f565b6126c8565b90600052600c60205260406000205582600052600c602052604060002054612688565b90600052600c602052604060002055565b60405162461bcd60e51b81526020600482015260156024820152742a2920a729a322a92faa27afad22a927afa0a2222960591b6044820152606490fd5b60405162461bcd60e51b81526020600482015260176024820152762a2920a729a322a92fa32927a6afad22a927afa0a2222960491b6044820152606490fd5b6040519283526001600160a01b03918216939116917f9d9c909296d9c674451c0c24f02cb64981eb3b727f99865939192f880a755dcb91602091859085907fddf252ad1be2c89b69c2b068fc378daa952ba7f163c4a11628f55a4df523b3ef908590a3604051908152a3565b6001546001600160a01b03163303612f1657565b606460405162461bcd60e51b815260206004820152602060248201527f4f776e61626c653a2063616c6c6572206973206e6f7420746865206f776e65726044820152fd5b9080600211612367576003823560f01c03612f73575050565b611029604051928392639a6d49cd60e01b845260206004850152602484019161273f565b8115612fa1570490565b634e487b7160e01b600052601260045260246000fd5b8181029291811591840414171561269557565b9192901561302c5750815115612fde575090565b3b15612fe75790565b60405162461bcd60e51b815260206004820152601d60248201527f416464726573733a2063616c6c20746f206e6f6e2d636f6e74726163740000006044820152606490fd5b82519091501561303f5750805190602001fd5b60405162461bcd60e51b81526020600482015290819061102990602483019061232c56fea26469706673582212201ec37a4bb8df8684bb56e145b4e24e776eb026cab5849ef80af66a029a6e656f64736f6c634300081a0033","linkReferences":{}},"methodIdentifiers":{"SEND()":"1f5e1334","SEND_AND_CALL()":"134d4f25","allowInitializePath((uint32,bytes32,uint64))":"ff7bd03d","allowance(address,address)":"dd62ed3e","approvalRequired()":"9f68b964","approve(address,uint256)":"095ea7b3","balanceOf(address)":"70a08231","bridgeOperator()":"590665c2","combineOptions(uint32,uint16,bytes)":"bc70b354","composeMsgSender()":"b92d0eff","decimalConversionRate()":"963efcaa","decimals()":"313ce567","decreaseAllowance(address,uint256)":"a457c2d7","endpoint()":"5e280f11","enforcedOptions(uint32,uint16)":"5535d461","forceSetDelegate(address)":"765aef49","increaseAllowance(address,uint256)":"39509351","isPeer(uint32,bytes32)":"5a0dfe4d","lzReceive((uint32,bytes32,uint64),bytes32,bytes,address,bytes)":"13137d65","lzReceiveAndRevert(((uint32,bytes32,uint64),uint32,address,bytes32,uint256,address,bytes,bytes)[])":"bd815db0","lzReceiveSimulate((uint32,bytes32,uint64),bytes32,bytes,address,bytes)":"d045a0dc","msgInspector()":"111ecdad","name()":"06fdde03","nextNonce(uint32,bytes32)":"7d25a05e","oApp()":"52ae2879","oAppVersion()":"17442b70","oftVersion()":"156a0d0f","owner()":"8da5cb5b","peers(uint32)":"bb0b6a53","preCrime()":"b731ea0a","quoteOFT((uint32,bytes32,uint256,uint256,bytes,bytes,bytes))":"0d35b415","quoteSend((uint32,bytes32,uint256,uint256,bytes,bytes,bytes),bool)":"3b6f743b","renounceOwnership()":"715018a6","send((uint32,bytes32,uint256,uint256,bytes,bytes,bytes),(uint256,uint256),address)":"c7c7f5b3","setBridgeOperator(address)":"0cde821c","setDelegate(address)":"ca5eb5e1","setEnforcedOptions((uint32,uint16,bytes)[])":"b98bd070","setMsgInspector(address)":"6fc1b31e","setPeer(uint32,bytes32)":"3400288b","setPreCrime(address)":"d4243885","setUsdPerShare(uint256)":"7d85b158","setYieldRelayer(address)":"e090b53d","sharedDecimals()":"857749b0","sharesByUsd(uint256)":"2088d7c6","sharesOf(address)":"f5eb42dc","symbol()":"95d89b41","token()":"fc0c546a","totalShares()":"3a98ef39","totalSupply()":"18160ddd","totalUsd()":"527913b1","transfer(address,uint256)":"a9059cbb","transferFrom(address,address,uint256)":"23b872dd","transferOwnership(address)":"f2fde38b","transferShares(address,uint256)":"8fcb4e5b","transferSharesFrom(address,address,uint256)":"6d780459","usdByShares(uint256)":"8b33021d"},"id":100}