{"abi":[{"type":"constructor","inputs":[{"name":"stUsdc_","type":"address","internalType":"address"},{"name":"bridgeOperator_","type":"address","internalType":"address"},{"name":"keeper_","type":"address","internalType":"address"}],"stateMutability":"nonpayable"},{"type":"function","name":"bridgeOperator","inputs":[],"outputs":[{"name":"","type":"address","internalType":"address"}],"stateMutability":"view"},{"type":"function","name":"keeper","inputs":[],"outputs":[{"name":"","type":"address","internalType":"address"}],"stateMutability":"view"},{"type":"function","name":"setBridgeOperator","inputs":[{"name":"bridgeOperator_","type":"address","internalType":"address"}],"outputs":[],"stateMutability":"nonpayable"},{"type":"function","name":"setKeeper","inputs":[{"name":"keeper_","type":"address","internalType":"address"}],"outputs":[],"stateMutability":"nonpayable"},{"type":"function","name":"stUsdc","inputs":[],"outputs":[{"name":"","type":"address","internalType":"address"}],"stateMutability":"view"},{"type":"function","name":"updateYield","inputs":[{"name":"yieldPerShare","type":"uint256","internalType":"uint256"}],"outputs":[],"stateMutability":"nonpayable"},{"type":"event","name":"YieldUpdated","inputs":[{"name":"yieldPerShare","type":"uint256","indexed":false,"internalType":"uint256"}],"anonymous":false},{"type":"error","name":"UnauthorizedCaller","inputs":[]},{"type":"error","name":"ZeroAddress","inputs":[]}],"bytecode":{"object":"0x60a03460a757601f6103df38819003918201601f19168301916001600160401b0383118484101760ac5780849260609460405283398101031260a75760428160c2565b906057604060516020840160c2565b920160c2565b608092909252600080546001600160a01b039283166001600160a01b0319918216179091556001805492909316911617905560405161030990816100d68239608051818181607401526101980152f35b600080fd5b634e487b7160e01b600052604160045260246000fd5b51906001600160a01b038216820360a75756fe6080604052600436101561001257600080fd5b6000803560e01c80630cde821c146102665780632e9a1de11461016d578063590665c214610146578063748747e6146100cf578063aced1661146100a65763d7ba31d21461005f57600080fd5b346100a357806003193601126100a3576040517f00000000000000000000000000000000000000000000000000000000000000006001600160a01b03168152602090f35b80fd5b50346100a357806003193601126100a3576001546040516001600160a01b039091168152602090f35b50346100a35760203660031901126100a3576004356001600160a01b038116908190036101425781546001600160a01b0316330361013357801561012457600180546001600160a01b03191691909117905580f35b63d92e233d60e01b8252600482fd5b635c427cd960e01b8252600482fd5b5080fd5b50346100a357806003193601126100a357546040516001600160a01b039091168152602090f35b50346100a35760203660031901126100a35760015460043591906001600160a01b03163303610257577f00000000000000000000000000000000000000000000000000000000000000006001600160a01b0316803b1561014257818091602460405180948193630fb0b62b60e31b83528860048401525af1801561024c5761021f575b507f90427aaa52d772393dbc0baaaa6eb821cdec72ed0870206d71ccc004efe43bba602083604051908152a180f35b67ffffffffffffffff81116102385760405260206101f0565b634e487b7160e01b82526041600452602482fd5b6040513d84823e3d90fd5b635c427cd960e01b8152600490fd5b50346100a35760203660031901126100a3576004356001600160a01b038116908190036101425781546001600160a01b03811633036102c45781156102b5576001600160a01b03191617815580f35b63d92e233d60e01b8352600483fd5b635c427cd960e01b8352600483fdfea2646970667358221220fc500ef61ce0a37a5d8e99d30e2e721da462072e121bef95068fccdbbc729e4964736f6c634300081a0033","linkReferences":{}},"methodIdentifiers":{"bridgeOperator()":"590665c2","keeper()":"aced1661","setBridgeOperator(address)":"0cde821c","setKeeper(address)":"748747e6","stUsdc()":"d7ba31d2","updateYield(uint256)":"2e9a1de1"},"id":90}