{"abi":[{"type":"constructor","inputs":[{"name":"stUsdc","type":"address","internalType":"address"},{"name":"wstUsdcBridge","type":"address","internalType":"address"},{"name":"owner","type":"address","internalType":"address"}],"stateMutability":"nonpayable"},{"type":"function","name":"acceptOwnership","inputs":[],"outputs":[],"stateMutability":"nonpayable"},{"type":"function","name":"migrateBridgeOperator","inputs":[{"name":"newBridgeOperator","type":"address","internalType":"address"}],"outputs":[],"stateMutability":"nonpayable"},{"type":"function","name":"owner","inputs":[],"outputs":[{"name":"","type":"address","internalType":"address"}],"stateMutability":"view"},{"type":"function","name":"pendingOwner","inputs":[],"outputs":[{"name":"","type":"address","internalType":"address"}],"stateMutability":"view"},{"type":"function","name":"renounceOwnership","inputs":[],"outputs":[],"stateMutability":"nonpayable"},{"type":"function","name":"setPeers","inputs":[{"name":"eid","type":"uint32","internalType":"uint32"},{"name":"peers","type":"bytes32[3]","internalType":"bytes32[3]"}],"outputs":[],"stateMutability":"nonpayable"},{"type":"function","name":"setWstUsdcBridge","inputs":[{"name":"eid","type":"uint32","internalType":"uint32"},{"name":"bridge","type":"address","internalType":"address"}],"outputs":[],"stateMutability":"nonpayable"},{"type":"function","name":"setYieldRelayer","inputs":[{"name":"newYieldRelayer","type":"address","internalType":"address"}],"outputs":[],"stateMutability":"nonpayable"},{"type":"function","name":"transferOwnership","inputs":[{"name":"newOwner","type":"address","internalType":"address"}],"outputs":[],"stateMutability":"nonpayable"},{"type":"function","name":"updateDelegate","inputs":[{"name":"newDelegate","type":"address","internalType":"address"}],"outputs":[],"stateMutability":"nonpayable"},{"type":"event","name":"OwnershipTransferStarted","inputs":[{"name":"previousOwner","type":"address","indexed":true,"internalType":"address"},{"name":"newOwner","type":"address","indexed":true,"internalType":"address"}],"anonymous":false},{"type":"event","name":"OwnershipTransferred","inputs":[{"name":"previousOwner","type":"address","indexed":true,"internalType":"address"},{"name":"newOwner","type":"address","indexed":true,"internalType":"address"}],"anonymous":false},{"type":"error","name":"ZeroAddress","inputs":[]}],"bytecode":{"object":"0x6080806040523461025057606081610ba0803803809161001f8285610255565b8339810103126102505761003281610278565b9061004b604061004460208401610278565b9201610278565b916100553361028c565b6001600160a01b0316918215801561023f575b801561022e575b61021d5761007c9061028c565b60405191602083015260018060a01b03166040820152604081526100a1606082610255565b80516001600160401b03811161020757600254600181811c911680156101fd575b60208210146101e757601f8111610182575b50602091601f821160011461011e57918192600092610113575b50508160011b916000199060031b1c1916176002555b6040516108be90816102e28239f35b0151905038806100ee565b601f198216926002600052806000209160005b85811061016a57508360019510610151575b505050811b01600255610104565b015160001960f88460031b161c19169055388080610143565b91926020600181928685015181550194019201610131565b60026000527f405787fa12a823e0f2b7631cc41b3ba8828b3321ca811111fa75cd3aa3bb5ace601f830160051c810191602084106101dd575b601f0160051c01905b8181106101d157506100d4565b600081556001016101c4565b90915081906101bb565b634e487b7160e01b600052602260045260246000fd5b90607f16906100c2565b634e487b7160e01b600052604160045260246000fd5b63d92e233d60e01b60005260046000fd5b506001600160a01b0381161561006f565b506001600160a01b03821615610068565b600080fd5b601f909101601f19168101906001600160401b0382119082101761020757604052565b51906001600160a01b038216820361025057565b600180546001600160a01b0319908116909155600080546001600160a01b03938416928116831782559192909116907f8be0079c531659141344cd1fd0a4f28419497f9722a3daafe3b4186f6b6457e09080a356fe6080604052600436101561001257600080fd5b6000803560e01c8063301791fe146105ce578063715018a61461056957806379ba5097146104a05780638da5cb5b14610479578063ae14b13a14610320578063d7c350d014610295578063e090b53d14610220578063e30c3978146101f7578063f2fde38b1461018a5763fe3f9b0e1461008b57600080fd5b3461015357602036600319011261015357806100a561069f565b6100ad610705565b6100b5610771565b6001600160a01b0390911691823b156101855760405163765aef4960e01b81526001600160a01b03909116600482018190529284908290602490829084905af190811561017a578491610165575b50506001600160a01b031690813b1561016157829160248392604051948593849263765aef4960e01b845260048401525af18015610156576101425750f35b8161014c916106cd565b6101535780f35b80fd5b6040513d84823e3d90fd5b5050fd5b8161016f916106cd565b610161578238610103565b6040513d86823e3d90fd5b505050fd5b5034610153576020366003190112610153576101a461069f565b6101ac610705565b600180546001600160a01b0319166001600160a01b0392831690811790915582549091167f38d16b8cac22d99fc7c124b9cd0de2d3fa1faef420bfe791d8c362d765e227008380a380f35b50346101535780600319360112610153576001546040516001600160a01b039091168152602090f35b5034610153576020366003190112610153578061023b61069f565b610243610705565b61024b610771565b506001600160a01b031690813b156101615760405163e090b53d60e01b81526001600160a01b0390911660048201529082908290602490829084905af18015610156576101425750f35b503461015357604036600319011261015357806102b06106ba565b6024356001600160a01b0381169190829003610161576102ce610705565b6102d6610771565b6001600160a01b0316919050813b1561018557604463ffffffff918580946040519687958694630d7c350d60e41b865216600485015260248401525af18015610156576101425750f35b50346101535760803660031901126101535761033a6106ba565b903660431215610153576040516060810181811067ffffffffffffffff82111761046557604052809236608411610461576024935b608485106104515750829350610383610705565b61038b610771565b835190916001600160a01b0316803b1561044d57604051633400288b60e01b815263ffffffff85166004820152602481019290925285908290604490829084905af190811561044257859161042d575b505060209060018060a01b0316920151823b1561018557604051633400288b60e01b815263ffffffff92909216600483015260248201529082908290604490829084905af18015610156576101425750f35b81610437916106cd565b6101855783386103db565b6040513d87823e3d90fd5b8580fd5b843581526020948501940161036f565b8280fd5b634e487b7160e01b83526041600452602483fd5b5034610153578060031936011261015357546040516001600160a01b039091168152602090f35b5034610153578060031936011261015357600154336001600160a01b039091160361051257600180546001600160a01b0319908116909155815433918116821783556001600160a01b03167f8be0079c531659141344cd1fd0a4f28419497f9722a3daafe3b4186f6b6457e08380a380f35b60405162461bcd60e51b815260206004820152602960248201527f4f776e61626c6532537465703a2063616c6c6572206973206e6f7420746865206044820152683732bb9037bbb732b960b91b6064820152608490fd5b5034610153578060031936011261015357610582610705565b600180546001600160a01b03199081169091558154908116825581906001600160a01b03167f8be0079c531659141344cd1fd0a4f28419497f9722a3daafe3b4186f6b6457e08280a380f35b503461015357602036600319011261015357806105e961069f565b6105f1610705565b6105f9610771565b6001600160a01b0390911691823b15610185578390602460405180978193630337a08760e21b835260018060a01b0316968760048401525af180156106945761067f575b91925082916001600160a01b031690813b15610161578291602483926040519485938492630337a08760e21b845260048401525af18015610156576101425750f35b9190928161068c916106cd565b90829061063d565b6040513d85823e3d90fd5b600435906001600160a01b03821682036106b557565b600080fd5b6004359063ffffffff821682036106b557565b90601f8019910116810190811067ffffffffffffffff8211176106ef57604052565b634e487b7160e01b600052604160045260246000fd5b6000546001600160a01b0316330361071957565b606460405162461bcd60e51b815260206004820152602060248201527f4f776e61626c653a2063616c6c6572206973206e6f7420746865206f776e65726044820152fd5b51906001600160a01b03821682036106b557565b604051906000600254908160011c906001831692831561087e575b60208310841461086a578286526020860193869291811561084e57506001146107ee575b6107bc925003846106cd565b6040838051810103126106b55760406107d76107de9261075d565b930161075d565b6001600160a01b03928316921690565b506002600090815290917f405787fa12a823e0f2b7631cc41b3ba8828b3321ca811111fa75cd3aa3bb5ace5b8183106108325750509060206107bc928201016107b0565b6020919350806001915483858a0101520191019091859261081a565b60ff19168552506107bc92151560051b820160200190506107b0565b634e487b7160e01b82526022600452602482fd5b91607f169161078c56fea2646970667358221220f2d6ceb6f8c8142cc7b76761de7299aeb1a466a49d77120d702a7da3ce12e68864736f6c634300081a0033","linkReferences":{}},"methodIdentifiers":{"acceptOwnership()":"79ba5097","migrateBridgeOperator(address)":"301791fe","owner()":"8da5cb5b","pendingOwner()":"e30c3978","renounceOwnership()":"715018a6","setPeers(uint32,bytes32[3])":"ae14b13a","setWstUsdcBridge(uint32,address)":"d7c350d0","setYieldRelayer(address)":"e090b53d","transferOwnership(address)":"f2fde38b","updateDelegate(address)":"fe3f9b0e"},"id":88}