{"abi":[{"type":"constructor","inputs":[{"name":"stUsdc_","type":"address","internalType":"address"}],"stateMutability":"nonpayable"},{"type":"function","name":"allowance","inputs":[{"name":"owner","type":"address","internalType":"address"},{"name":"spender","type":"address","internalType":"address"}],"outputs":[{"name":"","type":"uint256","internalType":"uint256"}],"stateMutability":"view"},{"type":"function","name":"approve","inputs":[{"name":"spender","type":"address","internalType":"address"},{"name":"amount","type":"uint256","internalType":"uint256"}],"outputs":[{"name":"","type":"bool","internalType":"bool"}],"stateMutability":"nonpayable"},{"type":"function","name":"balanceOf","inputs":[{"name":"account","type":"address","internalType":"address"}],"outputs":[{"name":"","type":"uint256","internalType":"uint256"}],"stateMutability":"view"},{"type":"function","name":"decimals","inputs":[],"outputs":[{"name":"","type":"uint8","internalType":"uint8"}],"stateMutability":"view"},{"type":"function","name":"decreaseAllowance","inputs":[{"name":"spender","type":"address","internalType":"address"},{"name":"subtractedValue","type":"uint256","internalType":"uint256"}],"outputs":[{"name":"","type":"bool","internalType":"bool"}],"stateMutability":"nonpayable"},{"type":"function","name":"depositAsset","inputs":[{"name":"amount","type":"uint256","internalType":"uint256"}],"outputs":[{"name":"amountMinted","type":"uint256","internalType":"uint256"}],"stateMutability":"nonpayable"},{"type":"function","name":"depositTby","inputs":[{"name":"tbyId","type":"uint256","internalType":"uint256"},{"name":"amount","type":"uint256","internalType":"uint256"}],"outputs":[{"name":"amountMinted","type":"uint256","internalType":"uint256"}],"stateMutability":"nonpayable"},{"type":"function","name":"increaseAllowance","inputs":[{"name":"spender","type":"address","internalType":"address"},{"name":"addedValue","type":"uint256","internalType":"uint256"}],"outputs":[{"name":"","type":"bool","internalType":"bool"}],"stateMutability":"nonpayable"},{"type":"function","name":"name","inputs":[],"outputs":[{"name":"","type":"string","internalType":"string"}],"stateMutability":"view"},{"type":"function","name":"onERC1155BatchReceived","inputs":[{"name":"","type":"address","internalType":"address"},{"name":"","type":"address","internalType":"address"},{"name":"","type":"uint256[]","internalType":"uint256[]"},{"name":"","type":"uint256[]","internalType":"uint256[]"},{"name":"","type":"bytes","internalType":"bytes"}],"outputs":[{"name":"","type":"bytes4","internalType":"bytes4"}],"stateMutability":"nonpayable"},{"type":"function","name":"onERC1155Received","inputs":[{"name":"","type":"address","internalType":"address"},{"name":"","type":"address","internalType":"address"},{"name":"","type":"uint256","internalType":"uint256"},{"name":"","type":"uint256","internalType":"uint256"},{"name":"","type":"bytes","internalType":"bytes"}],"outputs":[{"name":"","type":"bytes4","internalType":"bytes4"}],"stateMutability":"nonpayable"},{"type":"function","name":"redeemWstUsdc","inputs":[{"name":"amount","type":"uint256","internalType":"uint256"}],"outputs":[{"name":"assetsRedeemed","type":"uint256","internalType":"uint256"}],"stateMutability":"nonpayable"},{"type":"function","name":"stUsdc","inputs":[],"outputs":[{"name":"","type":"address","internalType":"contract IStUsdc"}],"stateMutability":"view"},{"type":"function","name":"stUsdcByWstUsdc","inputs":[{"name":"wstUsdcAmount","type":"uint256","internalType":"uint256"}],"outputs":[{"name":"","type":"uint256","internalType":"uint256"}],"stateMutability":"view"},{"type":"function","name":"stUsdcPerToken","inputs":[],"outputs":[{"name":"","type":"uint256","internalType":"uint256"}],"stateMutability":"view"},{"type":"function","name":"symbol","inputs":[],"outputs":[{"name":"","type":"string","internalType":"string"}],"stateMutability":"view"},{"type":"function","name":"tokensPerStUsdc","inputs":[],"outputs":[{"name":"","type":"uint256","internalType":"uint256"}],"stateMutability":"view"},{"type":"function","name":"totalSupply","inputs":[],"outputs":[{"name":"","type":"uint256","internalType":"uint256"}],"stateMutability":"view"},{"type":"function","name":"transfer","inputs":[{"name":"to","type":"address","internalType":"address"},{"name":"amount","type":"uint256","internalType":"uint256"}],"outputs":[{"name":"","type":"bool","internalType":"bool"}],"stateMutability":"nonpayable"},{"type":"function","name":"transferFrom","inputs":[{"name":"from","type":"address","internalType":"address"},{"name":"to","type":"address","internalType":"address"},{"name":"amount","type":"uint256","internalType":"uint256"}],"outputs":[{"name":"","type":"bool","internalType":"bool"}],"stateMutability":"nonpayable"},{"type":"function","name":"unwrap","inputs":[{"name":"wstUsdcAmount","type":"uint256","internalType":"uint256"}],"outputs":[{"name":"stUsdcAmount","type":"uint256","internalType":"uint256"}],"stateMutability":"nonpayable"},{"type":"function","name":"wrap","inputs":[{"name":"stUsdcAmount","type":"uint256","internalType":"uint256"}],"outputs":[{"name":"wstUsdcAmount","type":"uint256","internalType":"uint256"}],"stateMutability":"nonpayable"},{"type":"function","name":"wstUsdcByStUsdc","inputs":[{"name":"stUsdcAmount","type":"uint256","internalType":"uint256"}],"outputs":[{"name":"","type":"uint256","internalType":"uint256"}],"stateMutability":"view"},{"type":"event","name":"Approval","inputs":[{"name":"owner","type":"address","indexed":true,"internalType":"address"},{"name":"spender","type":"address","indexed":true,"internalType":"address"},{"name":"value","type":"uint256","indexed":false,"internalType":"uint256"}],"anonymous":false},{"type":"event","name":"StUsdcWrapped","inputs":[{"name":"user","type":"address","indexed":true,"internalType":"address"},{"name":"stUsdcAmount","type":"uint256","indexed":false,"internalType":"uint256"},{"name":"wstUsdcAmount","type":"uint256","indexed":false,"internalType":"uint256"}],"anonymous":false},{"type":"event","name":"Transfer","inputs":[{"name":"from","type":"address","indexed":true,"internalType":"address"},{"name":"to","type":"address","indexed":true,"internalType":"address"},{"name":"value","type":"uint256","indexed":false,"internalType":"uint256"}],"anonymous":false},{"type":"event","name":"WtTBYUnwrapped","inputs":[{"name":"user","type":"address","indexed":true,"internalType":"address"},{"name":"wstUsdcAmount","type":"uint256","indexed":false,"internalType":"uint256"},{"name":"stUsdcAmount","type":"uint256","indexed":false,"internalType":"uint256"}],"anonymous":false},{"type":"error","name":"ZeroAmount","inputs":[]}],"bytecode":{"object":"0x60e0806040523461050657600090602081611dd58038038091610022828561050b565b83398101031261050257516001600160a01b03811690819003610502576040519161004e60408461050b565b601383527f77726170706564207374616b656420555344430000000000000000000000000060208401526040519161008760408461050b565b60078352667773745553444360c81b602084015283516001600160401b03811161041257600354600181811c911680156104f8575b60208210146103f457601f8111610495575b50602094601f8211600114610431579483949582939492610426575b50508160011b916000199060031b1c1916176003555b8251926001600160401b03841161041257600454600181811c91168015610408575b60208210146103f457601f8111610391575b50602090601f851160011461032b5793809184958592610320575b50508160011b916000199060031b1c1916176004555b60808190526040516338d52e0f60e01b8152602081600481855afa9081156102d35783916102de575b5060a05260405163616e4d8160e01b8152602081600481855afa9081156102d3578391610291575b5060c08190526001600160a01b0316803b1561028d5760448392604051948593849263a22cb46560e01b84526004840152600160248401525af1801561028257610272575b604051611890908161054582396080518181816101540152818161032a015281816105a90152818161067501528181610826015281816109f801528181610c6301528181610d3d01528181610ec801528181610f5c015261146a015260a05181818161020101526102f1015260c05181610bc90152f35b8161027c9161050b565b386101fb565b6040513d84823e3d90fd5b5050fd5b90506020813d6020116102cb575b816102ac6020938361050b565b8101031261028d57516001600160a01b038116810361028d57386101b6565b3d915061029f565b6040513d85823e3d90fd5b90506020813d602011610318575b816102f96020938361050b565b8101031261028d57516001600160a01b038116810361028d573861018e565b3d91506102ec565b01519050388061014f565b600484528184209190601f198616855b818110610379575091600193918787989410610360575b505050811b01600455610165565b015160001960f88460031b161c19169055388080610352565b9293602060018192878601518155019501930161033b565b600484527f8a35acfbc15ff81a39ae7d344fd709f28e8600b4aa8c65c6b64bfe7fe36bd19b601f860160051c810191602087106103ea575b601f0160051c01905b8181106103df5750610134565b8481556001016103d2565b90915081906103c9565b634e487b7160e01b84526022600452602484fd5b90607f1690610122565b634e487b7160e01b83526041600452602483fd5b0151905038806100ea565b601f198216956003855280852091855b88811061047d57508360019596979810610464575b505050811b01600355610100565b015160001960f88460031b161c19169055388080610456565b91926020600181928685015181550194019201610441565b600384527fc2575a0e9e593c00f959f8c92f12db2869c3395a3b0502d05e2516446f71f85b601f830160051c810191602084106104ee575b601f0160051c01905b8181106104e357506100ce565b8481556001016104d6565b90915081906104cd565b90607f16906100bc565b5080fd5b600080fd5b601f909101601f19168101906001600160401b0382119082101761052e57604052565b634e487b7160e01b600052604160045260246000fdfe608080604052600436101561001357600080fd5b600090813560e01c90816306fdde0314610fc557508063095ea7b314610f9e57806316a4c15914610f2857806318160ddd14610f0a5780631c737a2914610e9957806323b872dd14610ddd578063313ce56714610dc1578063315c281f14610d095780633950935114610cb85780636e5368f714610bae57806370a0823114610b7657806395d89b4114610a6d578063a0886a5f146109c8578063a457c2d714610923578063a9059cbb146108f1578063bc197c8114610855578063d7ba31d214610810578063dd62ed3e146107bb578063de0e9a3e1461064a578063ea598cb014610557578063f23a6e61146104fb578063fa2df414146102b75763fac1a4001461011e57600080fd5b346102b45760203660031901126102b4578060043561013d813361159a565b604051638b33021d60e01b815260048101919091527f00000000000000000000000000000000000000000000000000000000000000006001600160a01b031690602081602481855afa9081156102a9578391610271575b509060246020926040519586938492638c50fb3960e01b845260048401525af1908115610265579061022d575b60405163a9059cbb60e01b602082810191909152336024830152604482018390529190610225906101ff81606481015b03601f198101835282611152565b7f00000000000000000000000000000000000000000000000000000000000000006116a4565b604051908152f35b506020813d60201161025d575b8161024760209383611152565b8101031261025857602090516101c1565b600080fd5b3d915061023a565b604051903d90823e3d90fd5b919250506020813d6020116102a1575b8161028e60209383611152565b8101031261025857518291906024610194565b3d9150610281565b6040513d85823e3d90fd5b80fd5b50346102b45760203660031901126102b4576040516323b872dd60e01b6020820152336024820152306044820152600435606482018190527f0000000000000000000000000000000000000000000000000000000000000000916103289061032281608481016101f1565b836116a4565b7f00000000000000000000000000000000000000000000000000000000000000006001600160a01b03168115801561047c575b156104185760246020926103b386956040519063095ea7b360e01b878301526103ae826103a0868989840160209093929193604081019460018060a01b031681520152565b03601f198101845283611152565b6116a4565b6040519485938492633e8b7d0560e21b845260048401525af191821561026557916103e4575b60206102258361144c565b90506020813d602011610410575b816103ff60209383611152565b8101031261025857516102256103d9565b3d91506103f2565b60405162461bcd60e51b815260206004820152603660248201527f5361666545524332303a20617070726f76652066726f6d206e6f6e2d7a65726f60448201527520746f206e6f6e2d7a65726f20616c6c6f77616e636560501b6064820152608490fd5b50604051636eb1769f60e11b8152306004820152602481018290526020816044816001600160a01b0388165afa9081156104f05785916104be575b501561035b565b90506020813d6020116104e8575b816104d960209383611152565b810103126102585751386104b7565b3d91506104cc565b6040513d87823e3d90fd5b50346102b45760a03660031901126102b4576105156110c7565b5061051e6110dd565b5060843567ffffffffffffffff81116105535761053f903690600401611124565b505060405163f23a6e6160e01b8152602090f35b5080fd5b50346102b45760203660031901126102b4576004356105758161144c565b6040516323b872dd60e01b815233600482015230602482015260448101839052909190602081606481876001600160a01b037f0000000000000000000000000000000000000000000000000000000000000000165af1801561063f5760209450610614575b5060405190815281838201527f36de104d934f136a21423ada7fdfc6f572e9b942bad35dd18d15de173c9c3dfb60403392a2604051908152f35b61063390843d8611610638575b61062b8183611152565b8101906111ad565b6105da565b503d610621565b6040513d86823e3d90fd5b50346102b45760203660031901126102b457604051638b33021d60e01b8152600480359082018190527f00000000000000000000000000000000000000000000000000000000000000006001600160a01b031692602083602481875afa9283156107ae57819361077a575b50821561076b576106c6823361159a565b604051638fcb4e5b60e01b815233600482015260248101839052936020908590604490829085905af19081156102655750610739575b6020925060405190815281838201527fa22dd380d4f3d8195a224a2c2e1a09eb54db87e2d25ab61eec3d558d36a1970e60403392a2604051908152f35b6020833d602011610763575b8161075260209383611152565b8101031261025857602092506106fc565b3d9150610745565b631f2a200560e01b8152600490fd5b9092506020813d6020116107a6575b8161079660209383611152565b81010312610258575191386106b5565b3d9150610789565b50604051903d90823e3d90fd5b50346102b45760403660031901126102b45760406107d76110c7565b916107e06110dd565b9260018060a01b031681526001602052209060018060a01b03166000526020526020604060002054604051908152f35b50346102b457806003193601126102b4576040517f00000000000000000000000000000000000000000000000000000000000000006001600160a01b03168152602090f35b50346102b45760a03660031901126102b45761086f6110c7565b506108786110dd565b5060443567ffffffffffffffff8111610553576108999036906004016110f3565b505060643567ffffffffffffffff8111610553576108bb9036906004016110f3565b505060843567ffffffffffffffff8111610553576108dd903690600401611124565b505060405163bc197c8160e01b8152602090f35b50346102b45760403660031901126102b45761091861090e6110c7565b60243590336112cd565b602060405160018152f35b50346102b45760403660031901126102b45761093d6110c7565b60406024359233815260016020522060018060a01b0382166000526020526040600020549180831061097557610918920390336111c5565b60405162461bcd60e51b815260206004820152602560248201527f45524332303a2064656372656173656420616c6c6f77616e63652062656c6f77604482015264207a65726f60d81b6064820152608490fd5b50346102b45760203660031901126102b457604051638b33021d60e01b81526004803590820152906020826024817f00000000000000000000000000000000000000000000000000000000000000006001600160a01b03165afa9081156102655790610a3a575b602090604051908152f35b506020813d602011610a65575b81610a5460209383611152565b810103126102585760209051610a2f565b3d9150610a47565b50346102b457806003193601126102b4576040519080600454908160011c91600181168015610b6c575b602084108114610b5857838652908115610b315750600114610ad4575b610ad084610ac481860382611152565b6040519182918261107e565b0390f35b600481527f8a35acfbc15ff81a39ae7d344fd709f28e8600b4aa8c65c6b64bfe7fe36bd19b939250905b808210610b1757509091508101602001610ac482610ab4565b919260018160209254838588010152019101909291610afe565b60ff191660208087019190915292151560051b85019092019250610ac49150839050610ab4565b634e487b7160e01b83526022600452602483fd5b92607f1692610a97565b50346102b45760203660031901126102b4576020906040906001600160a01b03610b9e6110c7565b1681528083522054604051908152f35b50346102b45760403660031901126102b457600435602435827f00000000000000000000000000000000000000000000000000000000000000006001600160a01b0316803b1561055357819060c460405180948193637921219560e11b835233600484015230602484015288604484015287606484015260a060848401528160a48401525af1801561063f57610ca4575b50604051636e5368f760e01b815260048101929092526024820152602081604481857f00000000000000000000000000000000000000000000000000000000000000006001600160a01b03165af191821561026557916103e45760206102258361144c565b83610cb191949294611152565b9138610c3f565b50346102b45760403660031901126102b45761091890610d026040610cdb6110c7565b338452600160209081528285206001600160a01b038316865290529220546024359061118a565b90336111c5565b50346102b457806003193601126102b4576040516310446be360e11b8152670de0b6b3a764000060048201526020816024817f00000000000000000000000000000000000000000000000000000000000000006001600160a01b03165afa908115610db6578291610d80575b602082604051908152f35b90506020813d602011610dae575b81610d9b60209383611152565b8101031261055357602091505138610d75565b3d9150610d8e565b6040513d84823e3d90fd5b50346102b457806003193601126102b457602060405160128152f35b50346102b45760603660031901126102b457610df76110c7565b90610e006110dd565b6001600160a01b03831682526001602081815260408085203386529091529092205492604435928401610e38575b61091893506112cd565b828410610e5457610e4f83610918950333836111c5565b610e2e565b60405162461bcd60e51b815260206004820152601d60248201527f45524332303a20696e73756666696369656e7420616c6c6f77616e63650000006044820152606490fd5b50346102b45760203660031901126102b4576040516310446be360e11b815260048035908201526020816024817f00000000000000000000000000000000000000000000000000000000000000006001600160a01b03165afa908115610db6578291610d8057602082604051908152f35b50346102b457806003193601126102b4576020600254604051908152f35b50346102b457806003193601126102b457604051638b33021d60e01b8152670de0b6b3a764000060048201526020816024817f00000000000000000000000000000000000000000000000000000000000000006001600160a01b03165afa908115610db6578291610d8057602082604051908152f35b50346102b45760403660031901126102b457610918610fbb6110c7565b60243590336111c5565b82346102b457806003193601126102b45780600354908160011c91600181168015611074575b602084108114610b5857838652908115610b31575060011461101757610ad084610ac481860382611152565b600381527fc2575a0e9e593c00f959f8c92f12db2869c3395a3b0502d05e2516446f71f85b939250905b80821061105a57509091508101602001610ac482610ab4565b919260018160209254838588010152019101909291611041565b92607f1692610feb565b91909160208152825180602083015260005b8181106110b1575060409293506000838284010152601f8019910116010190565b8060208092870101516040828601015201611090565b600435906001600160a01b038216820361025857565b602435906001600160a01b038216820361025857565b9181601f840112156102585782359167ffffffffffffffff8311610258576020808501948460051b01011161025857565b9181601f840112156102585782359167ffffffffffffffff8311610258576020838186019501011161025857565b90601f8019910116810190811067ffffffffffffffff82111761117457604052565b634e487b7160e01b600052604160045260246000fd5b9190820180921161119757565b634e487b7160e01b600052601160045260246000fd5b90816020910312610258575180151581036102585790565b6001600160a01b031690811561127c576001600160a01b031691821561122c5760207f8c5be1e5ebec7d5bd14f71427d1e84f3dd0314c0f7b2291e5b200ac8c7c3b925918360005260018252604060002085600052825280604060002055604051908152a3565b60405162461bcd60e51b815260206004820152602260248201527f45524332303a20617070726f766520746f20746865207a65726f206164647265604482015261737360f01b6064820152608490fd5b60405162461bcd60e51b8152602060048201526024808201527f45524332303a20617070726f76652066726f6d20746865207a65726f206164646044820152637265737360e01b6064820152608490fd5b6001600160a01b03169081156113f9576001600160a01b03169182156113a85781600052600060205260406000205481811061135457817fddf252ad1be2c89b69c2b068fc378daa952ba7f163c4a11628f55a4df523b3ef9260209285600052600084520360406000205584600052600082526040600020818154019055604051908152a3565b60405162461bcd60e51b815260206004820152602660248201527f45524332303a207472616e7366657220616d6f756e7420657863656564732062604482015265616c616e636560d01b6064820152608490fd5b60405162461bcd60e51b815260206004820152602360248201527f45524332303a207472616e7366657220746f20746865207a65726f206164647260448201526265737360e81b6064820152608490fd5b60405162461bcd60e51b815260206004820152602560248201527f45524332303a207472616e736665722066726f6d20746865207a65726f206164604482015264647265737360d81b6064820152608490fd5b6040516310446be360e11b81526004810191909152906020826024817f00000000000000000000000000000000000000000000000000000000000000006001600160a01b03165afa91821561158e5760009261155a575b50818015611549573315611504576114bd8160025461118a565b600255336000526000602052604060002081815401905560405190815260007fddf252ad1be2c89b69c2b068fc378daa952ba7f163c4a11628f55a4df523b3ef60203393a3565b60405162461bcd60e51b815260206004820152601f60248201527f45524332303a206d696e7420746f20746865207a65726f2061646472657373006044820152606490fd5b631f2a200560e01b60005260046000fd5b90916020823d602011611586575b8161157560209383611152565b810103126102b457505190386114a3565b3d9150611568565b6040513d6000823e3d90fd5b6001600160a01b031680156116555780600052600060205260406000205491808310611605576020817fddf252ad1be2c89b69c2b068fc378daa952ba7f163c4a11628f55a4df523b3ef926000958587528684520360408620558060025403600255604051908152a3565b60405162461bcd60e51b815260206004820152602260248201527f45524332303a206275726e20616d6f756e7420657863656564732062616c616e604482015261636560f01b6064820152608490fd5b60405162461bcd60e51b815260206004820152602160248201527f45524332303a206275726e2066726f6d20746865207a65726f206164647265736044820152607360f81b6064820152608490fd5b60018060a01b03166040916000808451926116bf8685611152565b602084527f5361666545524332303a206c6f772d6c6576656c2063616c6c206661696c6564602085015260208151910182865af13d156117bc573d9067ffffffffffffffff8211611174578451611735949092611726601f8201601f191660200185611152565b83523d6000602085013e6117c5565b80519081159182156117a2575b50501561174c5750565b5162461bcd60e51b815260206004820152602a60248201527f5361666545524332303a204552433230206f7065726174696f6e20646964206e6044820152691bdd081cdd58d8d9595960b21b6064820152608490fd5b6117b592506020809183010191016111ad565b3880611742565b91611735926060915b9192901561182757508151156117d9575090565b3b156117e25790565b60405162461bcd60e51b815260206004820152601d60248201527f416464726573733a2063616c6c20746f206e6f6e2d636f6e74726163740000006044820152606490fd5b82519091501561183a5750805190602001fd5b60405162461bcd60e51b8152908190611856906004830161107e565b0390fdfea2646970667358221220ad9d7cd0c9707216ac75419cff887ef9a2fbbd4cc43a648b6228c404837a461d64736f6c634300081a0033","linkReferences":{}},"methodIdentifiers":{"allowance(address,address)":"dd62ed3e","approve(address,uint256)":"095ea7b3","balanceOf(address)":"70a08231","decimals()":"313ce567","decreaseAllowance(address,uint256)":"a457c2d7","depositAsset(uint256)":"fa2df414","depositTby(uint256,uint256)":"6e5368f7","increaseAllowance(address,uint256)":"39509351","name()":"06fdde03","onERC1155BatchReceived(address,address,uint256[],uint256[],bytes)":"bc197c81","onERC1155Received(address,address,uint256,uint256,bytes)":"f23a6e61","redeemWstUsdc(uint256)":"fac1a400","stUsdc()":"d7ba31d2","stUsdcByWstUsdc(uint256)":"a0886a5f","stUsdcPerToken()":"16a4c159","symbol()":"95d89b41","tokensPerStUsdc()":"315c281f","totalSupply()":"18160ddd","transfer(address,uint256)":"a9059cbb","transferFrom(address,address,uint256)":"23b872dd","unwrap(uint256)":"de0e9a3e","wrap(uint256)":"ea598cb0","wstUsdcByStUsdc(uint256)":"1c737a29"},"id":96}