{"abi":[{"type":"constructor","inputs":[{"name":"d","type":"uint8","internalType":"uint8"}],"stateMutability":"nonpayable"},{"type":"function","name":"decimals","inputs":[],"outputs":[{"name":"","type":"uint8","internalType":"uint8"}],"stateMutability":"pure"},{"type":"function","name":"latestRoundData","inputs":[],"outputs":[{"name":"","type":"uint80","internalType":"uint80"},{"name":"","type":"int256","internalType":"int256"},{"name":"","type":"uint256","internalType":"uint256"},{"name":"","type":"uint256","internalType":"uint256"},{"name":"","type":"uint80","internalType":"uint80"}],"stateMutability":"view"},{"type":"function","name":"owner","inputs":[],"outputs":[{"name":"","type":"address","internalType":"address"}],"stateMutability":"view"},{"type":"function","name":"renounceOwnership","inputs":[],"outputs":[],"stateMutability":"nonpayable"},{"type":"function","name":"setKeeper","inputs":[{"name":"keeper","type":"address","internalType":"address"}],"outputs":[],"stateMutability":"nonpayable"},{"type":"function","name":"setLatestRoundData","inputs":[{"name":"roundId","type":"uint80","internalType":"uint80"},{"name":"answer","type":"int256","internalType":"int256"},{"name":"startedAt","type":"uint256","internalType":"uint256"},{"name":"updatedAt","type":"uint256","internalType":"uint256"},{"name":"answeredInRound","type":"uint80","internalType":"uint80"}],"outputs":[],"stateMutability":"nonpayable"},{"type":"function","name":"transferOwnership","inputs":[{"name":"newOwner","type":"address","internalType":"address"}],"outputs":[],"stateMutability":"nonpayable"},{"type":"event","name":"OwnershipTransferred","inputs":[{"name":"previousOwner","type":"address","indexed":true,"internalType":"address"},{"name":"newOwner","type":"address","indexed":true,"internalType":"address"}],"anonymous":false}],"bytecode":{"object":"0x60803460c157601f6104e538819003918201601f19168301916001600160401b0383118484101760c65780849260209460405283398101031260c1575160ff8116810360c15760008054336001600160a01b0319821681178355604051939290916001600160a01b0316907f8be0079c531659141344cd1fd0a4f28419497f9722a3daafe3b4186f6b6457e09080a36aff000000000000000000006004549160501b16906aff0000000000000000000019161760045561040890816100dd8239f35b600080fd5b634e487b7160e01b600052604160045260246000fdfe608080604052600436101561001357600080fd5b60003560e01c908163313ce56714610360575080634005e68114610269578063715018a614610210578063748747e6146101b95780638da5cb5b14610190578063f2fde38b146100c55763feaf968c1461006c57600080fd5b346100c05760003660031901126100c05760a06001600160501b03600054821c16600154600254600354906001600160501b0360045416926040519485526020850152604084015260608301526080820152f35b600080fd5b346100c05760203660031901126100c0576004356001600160a01b038116908190036100c0576100f361037a565b801561013c57600080546001600160a01b03198116831782556001600160a01b0316907f8be0079c531659141344cd1fd0a4f28419497f9722a3daafe3b4186f6b6457e09080a3005b60405162461bcd60e51b815260206004820152602660248201527f4f776e61626c653a206e6577206f776e657220697320746865207a65726f206160448201526564647265737360d01b6064820152608490fd5b346100c05760003660031901126100c0576000546040516001600160a01b039091168152602090f35b346100c05760203660031901126100c0576004356001600160a01b03811681036100c0576101e561037a565b60048054600160581b600160f81b03191660589290921b600160581b600160f81b0316919091179055005b346100c05760003660031901126100c05761022961037a565b600080546001600160a01b0319811682556001600160a01b03167f8be0079c531659141344cd1fd0a4f28419497f9722a3daafe3b4186f6b6457e08280a3005b346100c05760a03660031901126100c0576004356001600160501b03811681036100c057608435906001600160501b0382168092036100c0576004549033605883901c6001600160a01b031614801561034c575b15610316576000805469ffffffffffffffffffff60a01b191660a09290921b69ffffffffffffffffffff60a01b1691909117905560243560015560443560025560643560035569ffffffffffffffffffff191617600455005b60405162461bcd60e51b815260206004820152600e60248201526d139bdd08185d5d1a1bdc9a5e995960921b6044820152606490fd5b506000546001600160a01b031633146102bd565b346100c05760003660031901126100c05780600860209252f35b6000546001600160a01b0316330361038e57565b606460405162461bcd60e51b815260206004820152602060248201527f4f776e61626c653a2063616c6c6572206973206e6f7420746865206f776e65726044820152fdfea2646970667358221220eeea93d46ccc0d5e4db8b10013c9cafe4c8215cfd5f766531414e38820f1b02264736f6c634300081a0033","linkReferences":{}},"methodIdentifiers":{"decimals()":"313ce567","latestRoundData()":"feaf968c","owner()":"8da5cb5b","renounceOwnership()":"715018a6","setKeeper(address)":"748747e6","setLatestRoundData(uint80,int256,uint256,uint256,uint80)":"4005e681","transferOwnership(address)":"f2fde38b"},"id":130}