{"abi":[{"type":"constructor","inputs":[{"name":"stakeupStaking","type":"address","internalType":"address"},{"name":"gaugeDistributor","type":"address","internalType":"address"},{"name":"owner","type":"address","internalType":"address"},{"name":"layerZeroEndpoint","type":"address","internalType":"address"},{"name":"layerZeroDelegate","type":"address","internalType":"address"}],"stateMutability":"nonpayable"},{"type":"function","name":"SEND","inputs":[],"outputs":[{"name":"","type":"uint16","internalType":"uint16"}],"stateMutability":"view"},{"type":"function","name":"SEND_AND_CALL","inputs":[],"outputs":[{"name":"","type":"uint16","internalType":"uint16"}],"stateMutability":"view"},{"type":"function","name":"acceptOwnership","inputs":[],"outputs":[],"stateMutability":"nonpayable"},{"type":"function","name":"allowInitializePath","inputs":[{"name":"origin","type":"tuple","internalType":"struct Origin","components":[{"name":"srcEid","type":"uint32","internalType":"uint32"},{"name":"sender","type":"bytes32","internalType":"bytes32"},{"name":"nonce","type":"uint64","internalType":"uint64"}]}],"outputs":[{"name":"","type":"bool","internalType":"bool"}],"stateMutability":"view"},{"type":"function","name":"allowance","inputs":[{"name":"owner","type":"address","internalType":"address"},{"name":"spender","type":"address","internalType":"address"}],"outputs":[{"name":"","type":"uint256","internalType":"uint256"}],"stateMutability":"view"},{"type":"function","name":"approvalRequired","inputs":[],"outputs":[{"name":"","type":"bool","internalType":"bool"}],"stateMutability":"pure"},{"type":"function","name":"approve","inputs":[{"name":"spender","type":"address","internalType":"address"},{"name":"amount","type":"uint256","internalType":"uint256"}],"outputs":[{"name":"","type":"bool","internalType":"bool"}],"stateMutability":"nonpayable"},{"type":"function","name":"balanceOf","inputs":[{"name":"account","type":"address","internalType":"address"}],"outputs":[{"name":"","type":"uint256","internalType":"uint256"}],"stateMutability":"view"},{"type":"function","name":"combineOptions","inputs":[{"name":"_eid","type":"uint32","internalType":"uint32"},{"name":"_msgType","type":"uint16","internalType":"uint16"},{"name":"_extraOptions","type":"bytes","internalType":"bytes"}],"outputs":[{"name":"","type":"bytes","internalType":"bytes"}],"stateMutability":"view"},{"type":"function","name":"composeMsgSender","inputs":[],"outputs":[{"name":"sender","type":"address","internalType":"address"}],"stateMutability":"view"},{"type":"function","name":"decimalConversionRate","inputs":[],"outputs":[{"name":"","type":"uint256","internalType":"uint256"}],"stateMutability":"view"},{"type":"function","name":"decimals","inputs":[],"outputs":[{"name":"","type":"uint8","internalType":"uint8"}],"stateMutability":"view"},{"type":"function","name":"decreaseAllowance","inputs":[{"name":"spender","type":"address","internalType":"address"},{"name":"subtractedValue","type":"uint256","internalType":"uint256"}],"outputs":[{"name":"","type":"bool","internalType":"bool"}],"stateMutability":"nonpayable"},{"type":"function","name":"endpoint","inputs":[],"outputs":[{"name":"","type":"address","internalType":"contract ILayerZeroEndpointV2"}],"stateMutability":"view"},{"type":"function","name":"enforcedOptions","inputs":[{"name":"eid","type":"uint32","internalType":"uint32"},{"name":"msgType","type":"uint16","internalType":"uint16"}],"outputs":[{"name":"enforcedOption","type":"bytes","internalType":"bytes"}],"stateMutability":"view"},{"type":"function","name":"globalSupply","inputs":[],"outputs":[{"name":"","type":"uint256","internalType":"uint256"}],"stateMutability":"view"},{"type":"function","name":"increaseAllowance","inputs":[{"name":"spender","type":"address","internalType":"address"},{"name":"addedValue","type":"uint256","internalType":"uint256"}],"outputs":[{"name":"","type":"bool","internalType":"bool"}],"stateMutability":"nonpayable"},{"type":"function","name":"isPeer","inputs":[{"name":"_eid","type":"uint32","internalType":"uint32"},{"name":"_peer","type":"bytes32","internalType":"bytes32"}],"outputs":[{"name":"","type":"bool","internalType":"bool"}],"stateMutability":"view"},{"type":"function","name":"lzReceive","inputs":[{"name":"_origin","type":"tuple","internalType":"struct Origin","components":[{"name":"srcEid","type":"uint32","internalType":"uint32"},{"name":"sender","type":"bytes32","internalType":"bytes32"},{"name":"nonce","type":"uint64","internalType":"uint64"}]},{"name":"_guid","type":"bytes32","internalType":"bytes32"},{"name":"_message","type":"bytes","internalType":"bytes"},{"name":"_executor","type":"address","internalType":"address"},{"name":"_extraData","type":"bytes","internalType":"bytes"}],"outputs":[],"stateMutability":"payable"},{"type":"function","name":"lzReceiveAndRevert","inputs":[{"name":"_packets","type":"tuple[]","internalType":"struct InboundPacket[]","components":[{"name":"origin","type":"tuple","internalType":"struct Origin","components":[{"name":"srcEid","type":"uint32","internalType":"uint32"},{"name":"sender","type":"bytes32","internalType":"bytes32"},{"name":"nonce","type":"uint64","internalType":"uint64"}]},{"name":"dstEid","type":"uint32","internalType":"uint32"},{"name":"receiver","type":"address","internalType":"address"},{"name":"guid","type":"bytes32","internalType":"bytes32"},{"name":"value","type":"uint256","internalType":"uint256"},{"name":"executor","type":"address","internalType":"address"},{"name":"message","type":"bytes","internalType":"bytes"},{"name":"extraData","type":"bytes","internalType":"bytes"}]}],"outputs":[],"stateMutability":"payable"},{"type":"function","name":"lzReceiveSimulate","inputs":[{"name":"_origin","type":"tuple","internalType":"struct Origin","components":[{"name":"srcEid","type":"uint32","internalType":"uint32"},{"name":"sender","type":"bytes32","internalType":"bytes32"},{"name":"nonce","type":"uint64","internalType":"uint64"}]},{"name":"_guid","type":"bytes32","internalType":"bytes32"},{"name":"_message","type":"bytes","internalType":"bytes"},{"name":"_executor","type":"address","internalType":"address"},{"name":"_extraData","type":"bytes","internalType":"bytes"}],"outputs":[],"stateMutability":"payable"},{"type":"function","name":"mint","inputs":[{"name":"to","type":"address","internalType":"address"},{"name":"amount","type":"uint256","internalType":"uint256"}],"outputs":[],"stateMutability":"nonpayable"},{"type":"function","name":"mintAndStartVest","inputs":[{"name":"to","type":"address","internalType":"address"},{"name":"amount","type":"uint256","internalType":"uint256"}],"outputs":[],"stateMutability":"nonpayable"},{"type":"function","name":"mintRewards","inputs":[{"name":"recipient","type":"address","internalType":"address"},{"name":"amount","type":"uint256","internalType":"uint256"}],"outputs":[],"stateMutability":"nonpayable"},{"type":"function","name":"msgInspector","inputs":[],"outputs":[{"name":"","type":"address","internalType":"address"}],"stateMutability":"view"},{"type":"function","name":"name","inputs":[],"outputs":[{"name":"","type":"string","internalType":"string"}],"stateMutability":"view"},{"type":"function","name":"nextNonce","inputs":[{"name":"","type":"uint32","internalType":"uint32"},{"name":"","type":"bytes32","internalType":"bytes32"}],"outputs":[{"name":"nonce","type":"uint64","internalType":"uint64"}],"stateMutability":"view"},{"type":"function","name":"oApp","inputs":[],"outputs":[{"name":"","type":"address","internalType":"address"}],"stateMutability":"view"},{"type":"function","name":"oAppVersion","inputs":[],"outputs":[{"name":"senderVersion","type":"uint64","internalType":"uint64"},{"name":"receiverVersion","type":"uint64","internalType":"uint64"}],"stateMutability":"pure"},{"type":"function","name":"oftVersion","inputs":[],"outputs":[{"name":"interfaceId","type":"bytes4","internalType":"bytes4"},{"name":"version","type":"uint64","internalType":"uint64"}],"stateMutability":"pure"},{"type":"function","name":"owner","inputs":[],"outputs":[{"name":"","type":"address","internalType":"address"}],"stateMutability":"view"},{"type":"function","name":"peers","inputs":[{"name":"eid","type":"uint32","internalType":"uint32"}],"outputs":[{"name":"peer","type":"bytes32","internalType":"bytes32"}],"stateMutability":"view"},{"type":"function","name":"pendingOwner","inputs":[],"outputs":[{"name":"","type":"address","internalType":"address"}],"stateMutability":"view"},{"type":"function","name":"preCrime","inputs":[],"outputs":[{"name":"","type":"address","internalType":"address"}],"stateMutability":"view"},{"type":"function","name":"quoteOFT","inputs":[{"name":"_sendParam","type":"tuple","internalType":"struct SendParam","components":[{"name":"dstEid","type":"uint32","internalType":"uint32"},{"name":"to","type":"bytes32","internalType":"bytes32"},{"name":"amountLD","type":"uint256","internalType":"uint256"},{"name":"minAmountLD","type":"uint256","internalType":"uint256"},{"name":"extraOptions","type":"bytes","internalType":"bytes"},{"name":"composeMsg","type":"bytes","internalType":"bytes"},{"name":"oftCmd","type":"bytes","internalType":"bytes"}]}],"outputs":[{"name":"oftLimit","type":"tuple","internalType":"struct OFTLimit","components":[{"name":"minAmountLD","type":"uint256","internalType":"uint256"},{"name":"maxAmountLD","type":"uint256","internalType":"uint256"}]},{"name":"oftFeeDetails","type":"tuple[]","internalType":"struct OFTFeeDetail[]","components":[{"name":"feeAmountLD","type":"int256","internalType":"int256"},{"name":"description","type":"string","internalType":"string"}]},{"name":"oftReceipt","type":"tuple","internalType":"struct OFTReceipt","components":[{"name":"amountSentLD","type":"uint256","internalType":"uint256"},{"name":"amountReceivedLD","type":"uint256","internalType":"uint256"}]}],"stateMutability":"view"},{"type":"function","name":"quoteSend","inputs":[{"name":"_sendParam","type":"tuple","internalType":"struct SendParam","components":[{"name":"dstEid","type":"uint32","internalType":"uint32"},{"name":"to","type":"bytes32","internalType":"bytes32"},{"name":"amountLD","type":"uint256","internalType":"uint256"},{"name":"minAmountLD","type":"uint256","internalType":"uint256"},{"name":"extraOptions","type":"bytes","internalType":"bytes"},{"name":"composeMsg","type":"bytes","internalType":"bytes"},{"name":"oftCmd","type":"bytes","internalType":"bytes"}]},{"name":"_payInLzToken","type":"bool","internalType":"bool"}],"outputs":[{"name":"msgFee","type":"tuple","internalType":"struct MessagingFee","components":[{"name":"nativeFee","type":"uint256","internalType":"uint256"},{"name":"lzTokenFee","type":"uint256","internalType":"uint256"}]}],"stateMutability":"view"},{"type":"function","name":"renounceOwnership","inputs":[],"outputs":[],"stateMutability":"nonpayable"},{"type":"function","name":"send","inputs":[{"name":"_sendParam","type":"tuple","internalType":"struct SendParam","components":[{"name":"dstEid","type":"uint32","internalType":"uint32"},{"name":"to","type":"bytes32","internalType":"bytes32"},{"name":"amountLD","type":"uint256","internalType":"uint256"},{"name":"minAmountLD","type":"uint256","internalType":"uint256"},{"name":"extraOptions","type":"bytes","internalType":"bytes"},{"name":"composeMsg","type":"bytes","internalType":"bytes"},{"name":"oftCmd","type":"bytes","internalType":"bytes"}]},{"name":"_fee","type":"tuple","internalType":"struct MessagingFee","components":[{"name":"nativeFee","type":"uint256","internalType":"uint256"},{"name":"lzTokenFee","type":"uint256","internalType":"uint256"}]},{"name":"_refundAddress","type":"address","internalType":"address"}],"outputs":[{"name":"msgReceipt","type":"tuple","internalType":"struct MessagingReceipt","components":[{"name":"guid","type":"bytes32","internalType":"bytes32"},{"name":"nonce","type":"uint64","internalType":"uint64"},{"name":"fee","type":"tuple","internalType":"struct MessagingFee","components":[{"name":"nativeFee","type":"uint256","internalType":"uint256"},{"name":"lzTokenFee","type":"uint256","internalType":"uint256"}]}]},{"name":"oftReceipt","type":"tuple","internalType":"struct OFTReceipt","components":[{"name":"amountSentLD","type":"uint256","internalType":"uint256"},{"name":"amountReceivedLD","type":"uint256","internalType":"uint256"}]}],"stateMutability":"payable"},{"type":"function","name":"setDelegate","inputs":[{"name":"_delegate","type":"address","internalType":"address"}],"outputs":[],"stateMutability":"nonpayable"},{"type":"function","name":"setEnforcedOptions","inputs":[{"name":"_enforcedOptions","type":"tuple[]","internalType":"struct EnforcedOptionParam[]","components":[{"name":"eid","type":"uint32","internalType":"uint32"},{"name":"msgType","type":"uint16","internalType":"uint16"},{"name":"options","type":"bytes","internalType":"bytes"}]}],"outputs":[],"stateMutability":"nonpayable"},{"type":"function","name":"setMsgInspector","inputs":[{"name":"_msgInspector","type":"address","internalType":"address"}],"outputs":[],"stateMutability":"nonpayable"},{"type":"function","name":"setPeer","inputs":[{"name":"_eid","type":"uint32","internalType":"uint32"},{"name":"_peer","type":"bytes32","internalType":"bytes32"}],"outputs":[],"stateMutability":"nonpayable"},{"type":"function","name":"setPreCrime","inputs":[{"name":"_preCrime","type":"address","internalType":"address"}],"outputs":[],"stateMutability":"nonpayable"},{"type":"function","name":"sharedDecimals","inputs":[],"outputs":[{"name":"","type":"uint8","internalType":"uint8"}],"stateMutability":"pure"},{"type":"function","name":"symbol","inputs":[],"outputs":[{"name":"","type":"string","internalType":"string"}],"stateMutability":"view"},{"type":"function","name":"token","inputs":[],"outputs":[{"name":"","type":"address","internalType":"address"}],"stateMutability":"view"},{"type":"function","name":"totalSupply","inputs":[],"outputs":[{"name":"","type":"uint256","internalType":"uint256"}],"stateMutability":"view"},{"type":"function","name":"transfer","inputs":[{"name":"to","type":"address","internalType":"address"},{"name":"amount","type":"uint256","internalType":"uint256"}],"outputs":[{"name":"","type":"bool","internalType":"bool"}],"stateMutability":"nonpayable"},{"type":"function","name":"transferFrom","inputs":[{"name":"from","type":"address","internalType":"address"},{"name":"to","type":"address","internalType":"address"},{"name":"amount","type":"uint256","internalType":"uint256"}],"outputs":[{"name":"","type":"bool","internalType":"bool"}],"stateMutability":"nonpayable"},{"type":"function","name":"transferOwnership","inputs":[{"name":"newOwner","type":"address","internalType":"address"}],"outputs":[],"stateMutability":"nonpayable"},{"type":"event","name":"Approval","inputs":[{"name":"owner","type":"address","indexed":true,"internalType":"address"},{"name":"spender","type":"address","indexed":true,"internalType":"address"},{"name":"value","type":"uint256","indexed":false,"internalType":"uint256"}],"anonymous":false},{"type":"event","name":"EnforcedOptionSet","inputs":[{"name":"_enforcedOptions","type":"tuple[]","indexed":false,"internalType":"struct EnforcedOptionParam[]","components":[{"name":"eid","type":"uint32","internalType":"uint32"},{"name":"msgType","type":"uint16","internalType":"uint16"},{"name":"options","type":"bytes","internalType":"bytes"}]}],"anonymous":false},{"type":"event","name":"MsgInspectorSet","inputs":[{"name":"inspector","type":"address","indexed":false,"internalType":"address"}],"anonymous":false},{"type":"event","name":"OFTReceived","inputs":[{"name":"guid","type":"bytes32","indexed":true,"internalType":"bytes32"},{"name":"srcEid","type":"uint32","indexed":false,"internalType":"uint32"},{"name":"toAddress","type":"address","indexed":true,"internalType":"address"},{"name":"amountReceivedLD","type":"uint256","indexed":false,"internalType":"uint256"}],"anonymous":false},{"type":"event","name":"OFTSent","inputs":[{"name":"guid","type":"bytes32","indexed":true,"internalType":"bytes32"},{"name":"dstEid","type":"uint32","indexed":false,"internalType":"uint32"},{"name":"fromAddress","type":"address","indexed":true,"internalType":"address"},{"name":"amountSentLD","type":"uint256","indexed":false,"internalType":"uint256"},{"name":"amountReceivedLD","type":"uint256","indexed":false,"internalType":"uint256"}],"anonymous":false},{"type":"event","name":"OwnershipTransferStarted","inputs":[{"name":"previousOwner","type":"address","indexed":true,"internalType":"address"},{"name":"newOwner","type":"address","indexed":true,"internalType":"address"}],"anonymous":false},{"type":"event","name":"OwnershipTransferred","inputs":[{"name":"previousOwner","type":"address","indexed":true,"internalType":"address"},{"name":"newOwner","type":"address","indexed":true,"internalType":"address"}],"anonymous":false},{"type":"event","name":"PeerSet","inputs":[{"name":"eid","type":"uint32","indexed":false,"internalType":"uint32"},{"name":"peer","type":"bytes32","indexed":false,"internalType":"bytes32"}],"anonymous":false},{"type":"event","name":"PreCrimeSet","inputs":[{"name":"preCrimeAddress","type":"address","indexed":false,"internalType":"address"}],"anonymous":false},{"type":"event","name":"Transfer","inputs":[{"name":"from","type":"address","indexed":true,"internalType":"address"},{"name":"to","type":"address","indexed":true,"internalType":"address"},{"name":"value","type":"uint256","indexed":false,"internalType":"uint256"}],"anonymous":false},{"type":"error","name":"ExceedsMaxSupply","inputs":[]},{"type":"error","name":"InvalidDelegate","inputs":[]},{"type":"error","name":"InvalidEndpointCall","inputs":[]},{"type":"error","name":"InvalidLocalDecimals","inputs":[]},{"type":"error","name":"InvalidOptions","inputs":[{"name":"options","type":"bytes","internalType":"bytes"}]},{"type":"error","name":"InvalidRecipient","inputs":[]},{"type":"error","name":"LzTokenUnavailable","inputs":[]},{"type":"error","name":"NoPeer","inputs":[{"name":"eid","type":"uint32","internalType":"uint32"}]},{"type":"error","name":"NotEnoughNative","inputs":[{"name":"msgValue","type":"uint256","internalType":"uint256"}]},{"type":"error","name":"OnlyEndpoint","inputs":[{"name":"addr","type":"address","internalType":"address"}]},{"type":"error","name":"OnlyPeer","inputs":[{"name":"eid","type":"uint32","internalType":"uint32"},{"name":"sender","type":"bytes32","internalType":"bytes32"}]},{"type":"error","name":"OnlySelf","inputs":[]},{"type":"error","name":"SimulationResult","inputs":[{"name":"result","type":"bytes","internalType":"bytes"}]},{"type":"error","name":"SlippageExceeded","inputs":[{"name":"amountLD","type":"uint256","internalType":"uint256"},{"name":"minAmountLD","type":"uint256","internalType":"uint256"}]},{"type":"error","name":"UnauthorizedCaller","inputs":[]}],"bytecode":{"object":"0x60e080604052346105d957600060a082613490803803809161002182856105de565b8339810103126105d65761003482610617565b61004060208401610617565b9061004d60408501610617565b93610066608061005f60608401610617565b9201610617565b90604051906100766040836105de565b600d82526c29ba30b5b2aab8102a37b5b2b760991b60208301526040519261009f6040856105de565b600384526205355560ec1b6020850152600a80546001600160a01b0319908116909155875490811633908117895560405193916001600160a01b03166000805160206134708339815191528a80a36001600160a01b039081166080819052911680156105c757813b156105c357602483898094829463ca5eb5e160e01b845260048401525af180156105b8576105a4575b5064e8d4a5100060a0528051906001600160401b03821161059057600854600181811c91168015610586575b6020821014610572579081601f849311610504575b50602090601f831160011461049f578792610494575b50508160011b916000199060031b1c1916176008555b8051906001600160401b03821161048057600954600181811c91168015610476575b602082101461046257601f81116103ff575b50602090601f831160011461039557918060049492602094889261038a575b50508160011b916000199060031b1c1916176009555b60c08190526001600160a01b0316808552600c82526040808620805460ff1916600117905551636bdd18e960e11b815292839182905afa90811561037f578391610339575b506001600160a01b039081168352600c60205260408320805460ff19166001179055168061031d575b50600a80546001600160a01b031990811690915581546001600160a01b03938416918116821783556040519391929116906000805160206134708339815191529080a3612e44908161062c823960805181818161055e0152818161065c0152818161089801528181610a090152818161178901528181611a380152611d29015260a05181818161044001528181610756015281816113dc0152612a0a015260c051816118950152f35b8152600c60205260408120805460ff1916600117905538610274565b90506020813d602011610377575b81610354602093836105de565b8101031261037357516001600160a01b0381168103610373573861024b565b8280fd5b3d9150610347565b6040513d85823e3d90fd5b0151905038806101f0565b600986528186209190601f198416875b8181106103e7575092600192859260209660049896106103ce575b505050811b01600955610206565b015160001960f88460031b161c191690553880806103c0565b929360206001819287860151815501950193016103a5565b600986527f6e1540171b6c0c960b71a7020d9f60077f6af931a8bbf590da0223dacf75c7af601f840160051c81019160208510610458575b601f0160051c01905b81811061044d57506101d1565b868155600101610440565b9091508190610437565b634e487b7160e01b86526022600452602486fd5b90607f16906101bf565b634e487b7160e01b85526041600452602485fd5b015190503880610187565b600888528188209250601f198416885b8181106104ec57509084600195949392106104d3575b505050811b0160085561019d565b015160001960f88460031b161c191690553880806104c5565b929360206001819287860151815501950193016104af565b600888529091507ff3f7a9fe364faab93b216da50a3214154f22a0a2b415b23a84c8169e8b636ee3601f840160051c81019160208510610568575b90601f859493920160051c01905b81811061055a5750610171565b88815584935060010161054d565b909150819061053f565b634e487b7160e01b87526022600452602487fd5b90607f169061015c565b634e487b7160e01b86526041600452602486fd5b856105b1919692966105de565b9338610130565b6040513d88823e3d90fd5b8780fd5b632d618d8160e21b8852600488fd5b80fd5b600080fd5b601f909101601f19168101906001600160401b0382119082101761060157604052565b634e487b7160e01b600052604160045260246000fd5b51906001600160a01b03821682036105d95756fe608080604052600436101561001357600080fd5b600090813560e01c90816306fdde03146120d557508063095ea7b3146120ae5780630d35b41514611f5f578063111ecdad14611f3657806313137d6514611d16578063134d4f2514611cfa578063156a0d0f14611cd357806317442b7014611cb157806318160ddd14611c935780631f5e133414611c7757806323b872dd14611bb4578063313ce56714611b985780633400288b14611b2d5780633950935114611adb5780633b6f743b1461195657806340c10f19146119285780634a06a05f1461185d57806352ae28791461028d5780635535d461146117fd5780635a0dfe4d146117b85780635e280f11146117735780636a20de92146117255780636fc1b31e146116b757806370a082311461167e578063715018a61461161957806379ba5097146115555780637d25a05e1461152f578063857749b0146115135780638b723821146114f55780638da5cb5b146114ce57806395d89b41146113ff578063963efcaa146113c45780639f68b964146113a8578063a457c2d714611303578063a9059cbb146112d1578063b731ea0a146112a8578063b92d0eff1461028d578063b98bd07014610fbf578063bb0b6a5314610f8a578063bc70b35414610f20578063bd815db014610cc2578063c7c7f5b3146106d9578063ca5eb5e114610637578063d045a0dc146103eb578063d42438851461037d578063dd62ed3e14610328578063e30c3978146102ff578063f2fde38b14610292578063fc0c546a1461028d5763ff7bd03d1461024757600080fd5b3461028a57606036600319011261028a5760043563ffffffff811690818103610286579160409160209350815260018352205460405190602435148152f35b8280fd5b80fd5b6122b5565b503461028a57602036600319011261028a576102ac6121bf565b6102b461298a565b600a80546001600160a01b0319166001600160a01b0392831690811790915582549091167f38d16b8cac22d99fc7c124b9cd0de2d3fa1faef420bfe791d8c362d765e227008380a380f35b503461028a578060031936011261028a57600a546040516001600160a01b039091168152602090f35b503461028a57604036600319011261028a5760406103446121bf565b9161034d6121da565b9260018060a01b031681526006602052209060018060a01b03166000526020526020604060002054604051908152f35b503461028a57602036600319011261028a577fd48d879cef83a1c0bdda516f27b13ddb1b3f8bbac1c9e1511bb2a659c242776060206103ba6121bf565b6103c261298a565b600280546001600160a01b0319166001600160a01b03929092169182179055604051908152a180f35b506103f53661221d565b505050909230330361062857816020116105f55783356001600160a01b03169385906104686104248583612580565b6001600160c01b031991359182169160088210610608575b50507f00000000000000000000000000000000000000000000000000000000000000009060c01c612d62565b936104728461246f565b5061047d8588612c24565b602881116104cb575b5050507fefed6d3500546b29533b128a29e3a94d70788727f0507505ac12eaf2e578fd9c916104b660409261246f565b9063ffffffff8351921682526020820152a380f35b6040840135906001600160401b03821682036106045761055c916105056104fe83604c946104f88a61246f565b97612591565b3691612549565b6040519485926001600160401b0360c01b9060c01b16602084015263ffffffff60e01b9060e01b16602883015287602c83015261054b8151809260208686019101612177565b81010301601f198101835282612405565b7f00000000000000000000000000000000000000000000000000000000000000006001600160a01b0316803b15610286576105cb8392918392604051948580948193633e5ac80960e11b83528d60048401528c602484015283604484015260806064840152608483019061219a565b03925af180156105f9576105e0575b80610486565b816105ea91612405565b6105f55784386105da565b8480fd5b6040513d84823e3d90fd5b8380fd5b6001600160c01b031960089290920360031b82901b16169050388061043c565b63029a949d60e31b8552600485fd5b503461028a57602036600319011261028a57806106526121bf565b61065a61298a565b7f00000000000000000000000000000000000000000000000000000000000000006001600160a01b031690813b156106d55760405163ca5eb5e160e01b81526001600160a01b0390911660048201529082908290602490829084905af180156105f9576106c45750f35b816106ce91612405565b61028a5780f35b5050fd5b50608036600319011261028a57600435906001600160401b03821161028a578160040160e060031984360301126109dd5760403660231901126109dd57606435926001600160a01b038416840361028657610732612699565b5061073b612456565b50610784604461077f6064840135936107538661246f565b507f00000000000000000000000000000000000000000000000000000000000000009283910135612d42565b612d62565b90808210610caa57503315610c5b5733835260056020526040832054818110610c0b57819033855260056020520360408420558060075403600755826040518281527fddf252ad1be2c89b69c2b068fc378daa952ba7f163c4a11628f55a4df523b3ef60203392a36107f681836129fa565b94906108018461246f565b60405161080d8161239e565b602435815260208101906044358252610824612699565b505192833403610bf8578151806109f4575b509061089498839261084b60809796956127d7565b925115159263ffffffff60405195610862876123cf565b168552602085015260408401526060830152848201526040518098819482936302637a4560e41b845260048401612bb6565b03917f00000000000000000000000000000000000000000000000000000000000000006001600160a01b03165af19283156109e8578093610970575b5060c09350604051906108e28261239e565b80825260208201928184526108f885519161246f565b9163ffffffff6040519316835280602084015260408301527f85496b760a4b7f8d66384b9df21b381f5d1b1e79f229a47aaf4c232edc2fe59a60603393a360206040805194805186526001600160401b03838201511683870152015180516040860152015160608401525160808301525160a0820152f35b90925060803d6080116109e1575b6109888186612405565b8401936080818603126109dd57604051916109a2836123ea565b815183526020820151906001600160401b038216820361028a5750602083015260c0946109d191604001612b8e565b604082015291386108d0565b5080fd5b503d61097e565b604051903d90823e3d90fd5b60405163393f876560e21b81529195949392917f00000000000000000000000000000000000000000000000000000000000000006001600160a01b031690602081600481855afa908115610bed578b91610ba7575b506001600160a01b0316908115610b9857908a80610b0094936040519460208601916323b872dd60e01b83523360248801526044870152606486015260648552610a94608486612405565b60405194610aa3604087612405565b602086527f5361666545524332303a206c6f772d6c6576656c2063616c6c206661696c65646020870152519082855af13d15610b90573d91610ae48361252e565b92610af26040519485612405565b83523d8d602085013e612d75565b8051908115918215610b76575b505015610b1e579091929338610836565b60405162461bcd60e51b815260206004820152602a60248201527f5361666545524332303a204552433230206f7065726174696f6e20646964206e6044820152691bdd081cdd58d8d9595960b21b6064820152608490fd5b610b8992506020809183010191016129e2565b3880610b0d565b606091612d75565b6329b99a9560e11b8b5260048bfd5b90506020813d602011610be5575b81610bc260209383612405565b81010312610be157516001600160a01b0381168103610be15738610a49565b8a80fd5b3d9150610bb5565b6040513d8d823e3d90fd5b6304fb820960e51b885234600452602488fd5b60405162461bcd60e51b815260206004820152602260248201527f45524332303a206275726e20616d6f756e7420657863656564732062616c616e604482015261636560f01b6064820152608490fd5b60405162461bcd60e51b815260206004820152602160248201527f45524332303a206275726e2066726f6d20746865207a65726f206164647265736044820152607360f81b6064820152608490fd5b6371c4efed60e01b8452600491909152602452604482fd5b50602036600319011261028a576004356001600160401b0381116109dd57610cee903690600401612426565b903681900361013e190190835b83811015610e5757848160051b830135848112156109dd578301610d1e8161246f565b90610d416020820135809363ffffffff1660005260016020526040600020541490565b15610e4c57610d546101008201826124db565b60e08301356001600160a01b03811693919290849003610e4857610d7c6101208301836124db565b939091303b15610e4457604051633411683760e21b81529663ffffffff610da2866122a4565b16600489015260248801526040840135916001600160401b038316809303610e4057889688968795610df68795610e0d9560c098604489015260a08b0135606489015260e0608489015260e488019161250d565b9260a48601526003198584030160c486015261250d565b03920135305af180156105f957610e2b575b50506001905b01610cfb565b81610e3591612405565b6105f5578438610e1f565b8880fd5b8780fd5b8580fd5b505050600190610e25565b604051638e9e709960e01b815285908181600481335afa9081156105f9578291610ea2575b604051638351eea760e01b81526020600482015280610e9e602482018561219a565b0390fd5b90503d8083833e610eb38183612405565b810190602081830312610286578051906001600160401b038211610604570181601f8201121561028657805192610ee98461252e565b92610ef76040519485612405565b8484526020858401011161028a5750610e9e92610f1a9160208085019101612177565b82610e7c565b503461028a57606036600319011261028a57610f3a612291565b610f426122d0565b91604435906001600160401b03821161028a57610f86610f728585610f6a36600488016121f0565b9290916125ae565b60405191829160208352602083019061219a565b0390f35b503461028a57602036600319011261028a57604060209163ffffffff610fae612291565b168152600183522054604051908152f35b503461028a57602036600319011261028a576004356001600160401b0381116109dd57610ff0903690600401612426565b610ff861298a565b825b8181106110fa575060405191816020840160208552526040830160408360051b85010192828690605e19813603015b83831061105a57887fbe4864a8e820971c0247f5992e2da559595f7bf076a21cb5928d443d2a13b6748989038aa180f35b909192939495603f198882030186528635828112156110f657830163ffffffff611083826122a4565b168252602081013561ffff8116809103610be15760208301526040810135601e1982360301811215610be15701602081359101906001600160401b038111610be1578036038213610be1576110e860209283926060868160406001990152019161250d565b980196019493019190611029565b8980fd5b92919061111e61111861110e8684866124a3565b60408101906124db565b90612d05565b61112c61110e8583856124a3565b63ffffffff6111476111428886889a969a6124a3565b61246f565b16855260036020526040852060206111608486886124a3565b01359061ffff821682036112a4579060409161ffff60009216825260205220906001600160401b0381116112905761119882546122e1565b601f811161124b575b508596601f82116001146111e357869782916001969798926111d8575b5050600019600383901b1c191690841b1790555b01610ffa565b0135905038806111be565b8287526020872090601f198316885b818110611233575090600196979899848895949310611219575b505050811b0190556111d2565b0135600019600384901b60f8161c1916905538808061120c565b99926020600181928686013581550194019a016111f2565b82875260208720601f830160051c81019160208410611286575b601f0160051c01905b81811061127b57506111a1565b87815560010161126e565b9091508190611265565b634e487b7160e01b86526041600452602486fd5b8680fd5b503461028a578060031936011261028a576002546040516001600160a01b039091168152602090f35b503461028a57604036600319011261028a576112f86112ee6121bf565b602435903361280b565b602060405160018152f35b503461028a57604036600319011261028a5761131d6121bf565b60406024359233815260066020522060018060a01b03821660005260205260406000205491808310611355576112f8920390336126cf565b60405162461bcd60e51b815260206004820152602560248201527f45524332303a2064656372656173656420616c6c6f77616e63652062656c6f77604482015264207a65726f60d81b6064820152608490fd5b503461028a578060031936011261028a57602090604051908152f35b503461028a578060031936011261028a5760206040517f00000000000000000000000000000000000000000000000000000000000000008152f35b503461028a578060031936011261028a57604051908060095490611422826122e1565b80855291600181169081156114a7575060011461144a575b610f8684610f7281860382612405565b600981527f6e1540171b6c0c960b71a7020d9f60077f6af931a8bbf590da0223dacf75c7af939250905b80821061148d57509091508101602001610f728261143a565b919260018160209254838588010152019101909291611474565b60ff191660208087019190915292151560051b85019092019250610f72915083905061143a565b503461028a578060031936011261028a57546040516001600160a01b039091168152602090f35b503461028a578060031936011261028a576020600b54604051908152f35b503461028a578060031936011261028a57602060405160068152f35b503461028a57604036600319011261028a5760209061154c612291565b50604051908152f35b503461028a578060031936011261028a57600a54336001600160a01b038216036115c2576001600160a01b0319908116600a55815433918116821783556001600160a01b03167f8be0079c531659141344cd1fd0a4f28419497f9722a3daafe3b4186f6b6457e08380a380f35b60405162461bcd60e51b815260206004820152602960248201527f4f776e61626c6532537465703a2063616c6c6572206973206e6f7420746865206044820152683732bb9037bbb732b960b91b6064820152608490fd5b503461028a578060031936011261028a5761163261298a565b600a80546001600160a01b03199081169091558154908116825581906001600160a01b03167f8be0079c531659141344cd1fd0a4f28419497f9722a3daafe3b4186f6b6457e08280a380f35b503461028a57602036600319011261028a576020906040906001600160a01b036116a66121bf565b168152600583522054604051908152f35b503461028a57602036600319011261028a577ff0be4f1e87349231d80c36b33f9e8639658eeaf474014dee15a3e6a4d441419760206116f46121bf565b6116fc61298a565b600480546001600160a01b0319166001600160a01b03929092169182179055604051908152a180f35b503461028a57604036600319011261028a5761173f6121bf565b338252600c60205260ff60408320541615611764576117619060243590612c24565b80f35b635c427cd960e01b8252600482fd5b503461028a578060031936011261028a576040517f00000000000000000000000000000000000000000000000000000000000000006001600160a01b03168152602090f35b503461028a57604036600319011261028a5760206117f36117d7612291565b6024359063ffffffff1660005260016020526040600020541490565b6040519015158152f35b503461028a57604036600319011261028a5761ffff604061181c612291565b9263ffffffff61182a6122d0565b941681526003602052209116600052602052610f86611856610f7260406000206040519283809261231b565b0382612405565b503461028a57604036600319011261028a576118776121bf565b6024359061188361298a565b6001600160a01b0316908115611919577f00000000000000000000000000000000000000000000000000000000000000009183906001600160a01b03841690813b156102865782916044839260405194859384926331951f2960e11b845260048401528860248401525af180156105f957611904575b505061176191612c24565b8161190e91612405565b6102865782386118f9565b634e46966960e11b8352600483fd5b503461028a57604036600319011261028a576117616119456121bf565b61194d61298a565b60243590612c24565b503461028a57604036600319011261028a576004356001600160401b0381116109dd57806004019060e060031982360301126102865760243590811515809203610604576119a2612456565b506119ba604461077f6064840135936107538761246f565b90808210611ac35750916040916119df6119d7611a3495846129fa565b91909361246f565b926119e8612456565b506119f2846127d7565b63ffffffff865195611a03876123cf565b16855260208501528484015260608301526080820152815180938192631bb8518b60e31b8352309060048401612bb6565b03817f00000000000000000000000000000000000000000000000000000000000000006001600160a01b03165afa9081156105f9578291611a85575b60408260208251918051835201516020820152f35b905060403d604011611abc575b611a9c8183612405565b81019160408284031261028a5750604091611ab691612b8e565b38611a70565b503d611a92565b6371c4efed60e01b8552600491909152602452604483fd5b503461028a57604036600319011261028a576112f8906040611afb6121bf565b9133815260066020522060018060a01b038216600052602052611b2660406000206024359054612480565b90336126cf565b503461028a57604036600319011261028a577f238399d427b947898edb290f5ff0f9109849b1c3ba196a42e35f00c50a54b98b6040611b6a612291565b63ffffffff60243591611b7b61298a565b16908185526001602052808386205582519182526020820152a180f35b503461028a578060031936011261028a57602060405160128152f35b503461028a57606036600319011261028a57611bce6121bf565b90611bd76121da565b6001600160a01b0383168252600660209081526040928390203360009081529152919091205491604435919060018401611c16575b6112f8935061280b565b828410611c3257611c2d836112f8950333836126cf565b611c0c565b60405162461bcd60e51b815260206004820152601d60248201527f45524332303a20696e73756666696369656e7420616c6c6f77616e63650000006044820152606490fd5b503461028a578060031936011261028a57602060405160018152f35b503461028a578060031936011261028a576020600754604051908152f35b503461028a578060031936011261028a57604080516001815260016020820152f35b503461028a578060031936011261028a576040805162b9270b60e21b815260016020820152f35b503461028a578060031936011261028a57602060405160028152f35b50611d203661221d565b509294919250507f00000000000000000000000000000000000000000000000000000000000000006001600160a01b0316338103611f2357611d69611d648361246f565b6127d7565b6020830135809103611efe57508590836020116109dd5785356001600160a01b031695611d996104248683612580565b94611da38561246f565b50611dae8689612c24565b60288111611de8575b505050507fefed6d3500546b29533b128a29e3a94d70788727f0507505ac12eaf2e578fd9c916104b660409261246f565b6040850135906001600160401b03821682036105f557611e5b91611e156104fe83604c946104f88b61246f565b6040519485926001600160401b0360c01b9060c01b16602084015263ffffffff60e01b9060e01b16602883015288602c83015261054b8151809260208686019101612177565b813b15610286578291611e9e91604051948580948193633e5ac80960e11b83528c60048401528b602484015283604484015260806064840152608483019061219a565b03925af18015611ef357611eb6575b80808792611db7565b916104b686611ee9604094987fefed6d3500546b29533b128a29e3a94d70788727f0507505ac12eaf2e578fd9c96612405565b9692505091611ead565b6040513d88823e3d90fd5b8660449163ffffffff611f108661246f565b63309afaf360e21b845216600452602452fd5b6391ac5e4f60e01b865233600452602486fd5b503461028a578060031936011261028a576004546040516001600160a01b039091168152602090f35b503461028a57602036600319011261028a576004356001600160401b0381116109dd5760e060031982360301126109dd57611f98612456565b50611fa1612456565b50604051611fae8161239e565b82815260208101916001600160401b03835260209160405192611fd18185612405565b858452611fee604461077f6064860135956107538160040161246f565b9280841061209757509490604051956120068761239e565b8387528087019384526040519560a0870192518752518187015260a06040870152845180925260c086018160c08460051b890101960193905b83821061205a57885160608901528551608089015287870388f35b9091929395838061208860019360bf198c82030186526040838c51805184520151918185820152019061219a565b9801920192019093929161203f565b6371c4efed60e01b87526004849052602452604486fd5b503461028a57604036600319011261028a576112f86120cb6121bf565b60243590336126cf565b823461028a578060031936011261028a57600854816120f3826122e1565b80855291600181169081156114a7575060011461211a57610f8684610f7281860382612405565b600881527ff3f7a9fe364faab93b216da50a3214154f22a0a2b415b23a84c8169e8b636ee3939250905b80821061215d57509091508101602001610f728261143a565b919260018160209254838588010152019101909291612144565b60005b83811061218a5750506000910152565b818101518382015260200161217a565b906020916121b381518092818552858086019101612177565b601f01601f1916010190565b600435906001600160a01b03821682036121d557565b600080fd5b602435906001600160a01b03821682036121d557565b9181601f840112156121d5578235916001600160401b0383116121d557602083818601950101116121d557565b90600319820160e081126121d5576060136121d557600491606435916084356001600160401b0381116121d55782612257916004016121f0565b9092909160a4356001600160a01b03811681036121d5579160c435906001600160401b0382116121d55761228d916004016121f0565b9091565b6004359063ffffffff821682036121d557565b359063ffffffff821682036121d557565b346121d55760003660031901126121d5576020604051308152f35b6024359061ffff821682036121d557565b90600182811c92168015612311575b60208310146122fb57565b634e487b7160e01b600052602260045260246000fd5b91607f16916122f0565b6000929181549161232b836122e1565b8083529260018116908115612381575060011461234757505050565b60009081526020812093945091925b838310612367575060209250010190565b600181602092949394548385870101520191019190612356565b915050602093945060ff929192191683830152151560051b010190565b604081019081106001600160401b038211176123b957604052565b634e487b7160e01b600052604160045260246000fd5b60a081019081106001600160401b038211176123b957604052565b606081019081106001600160401b038211176123b957604052565b90601f801991011681019081106001600160401b038211176123b957604052565b9181601f840112156121d5578235916001600160401b0383116121d5576020808501948460051b0101116121d557565b604051906124638261239e565b60006020838281520152565b3563ffffffff811681036121d55790565b9190820180921161248d57565b634e487b7160e01b600052601160045260246000fd5b91908110156124c55760051b81013590605e19813603018212156121d5570190565b634e487b7160e01b600052603260045260246000fd5b903590601e19813603018212156121d557018035906001600160401b0382116121d5576020019181360383136121d557565b908060209392818452848401376000828201840152601f01601f1916010190565b6001600160401b0381116123b957601f01601f191660200190565b9291926125558261252e565b916125636040519384612405565b8294818452818301116121d5578281602093846000960137010152565b906028116121d55760200190600890565b90929192836028116121d55783116121d557602801916027190190565b63ffffffff9094929416600052600360205261ffff604060002091166000526020526118566125e760406000206040519283809261231b565b80511561268c578215612686576002831015612623575050610e9e604051928392639a6d49cd60e01b845260206004850152602484019161250d565b9190926126308282612d05565b816002116121d55761268391602091604051946126558151809286808a019101612177565b850190600119830190600201848301370101600060011982015282600119910301601f198101835282612405565b90565b92509050565b5091612683913691612549565b604051906126a6826123ea565b81600081526000602082015260408051916126c08361239e565b60008352600060208401520152565b6001600160a01b0316908115612786576001600160a01b03169182156127365760207f8c5be1e5ebec7d5bd14f71427d1e84f3dd0314c0f7b2291e5b200ac8c7c3b925918360005260068252604060002085600052825280604060002055604051908152a3565b60405162461bcd60e51b815260206004820152602260248201527f45524332303a20617070726f766520746f20746865207a65726f206164647265604482015261737360f01b6064820152608490fd5b60405162461bcd60e51b8152602060048201526024808201527f45524332303a20617070726f76652066726f6d20746865207a65726f206164646044820152637265737360e01b6064820152608490fd5b63ffffffff168060005260016020526040600020549081156127f7575090565b63f6ff4fb760e01b60005260045260246000fd5b6001600160a01b0316908115612937576001600160a01b03169182156128e65781600052600560205260406000205481811061289257817fddf252ad1be2c89b69c2b068fc378daa952ba7f163c4a11628f55a4df523b3ef9260209285600052600584520360406000205584600052600582526040600020818154019055604051908152a3565b60405162461bcd60e51b815260206004820152602660248201527f45524332303a207472616e7366657220616d6f756e7420657863656564732062604482015265616c616e636560d01b6064820152608490fd5b60405162461bcd60e51b815260206004820152602360248201527f45524332303a207472616e7366657220746f20746865207a65726f206164647260448201526265737360e81b6064820152608490fd5b60405162461bcd60e51b815260206004820152602560248201527f45524332303a207472616e736665722066726f6d20746865207a65726f206164604482015264647265737360d81b6064820152608490fd5b6000546001600160a01b0316330361299e57565b606460405162461bcd60e51b815260206004820152602060248201527f4f776e61626c653a2063616c6c6572206973206e6f7420746865206f776e65726044820152fd5b908160209103126121d5575180151581036121d55790565b9091612ab1612a2f6020840135947f000000000000000000000000000000000000000000000000000000000000000090612d42565b612a3f6104fe60a08601866124db565b8051158015969190612b5957612a8b9160689160405194859260208401526001600160401b0360c01b9060c01b16604083015233604883015261054b8151809260208686019101612177565b925b8394600014612b51576002905b610f6a612aa68261246f565b9160808101906124db565b6004549092906001600160a01b031680612ac9575050565b612af7602091612b099360405180958194829363043a78eb60e01b845260406004850152604484019061219a565b8281036003190160248401528961219a565b03915afa8015612b4557612b1a5750565b612b3b9060203d602011612b3e575b612b338183612405565b8101906129e2565b50565b503d612b29565b6040513d6000823e3d90fd5b600190612a9a565b50906040519160208301526001600160401b0360c01b9060c01b16604082015260288152612b88604882612405565b92612a8d565b91908260409103126121d557604051612ba68161239e565b6020808294805184520151910152565b906020909392936040835263ffffffff81511660408401528181015160608401526080612c0a612bf4604084015160a08488015260e087019061219a565b6060840151868203603f190160a088015261219a565b910151151560c08401526001600160a01b03909416910152565b600b546b033b2e3c9fd0803ce8000000612c3e8483612480565b11612cf45782612c4d91612480565b600b556001600160a01b0316908115612caf577fddf252ad1be2c89b69c2b068fc378daa952ba7f163c4a11628f55a4df523b3ef602082612c92600094600754612480565b6007558484526005825260408420818154019055604051908152a3565b60405162461bcd60e51b815260206004820152601f60248201527f45524332303a206d696e7420746f20746865207a65726f2061646472657373006044820152606490fd5b63c30436e960e01b60005260046000fd5b90806002116121d5576003823560f01c03612d1e575050565b610e9e604051928392639a6d49cd60e01b845260206004850152602484019161250d565b8115612d4c570490565b634e487b7160e01b600052601260045260246000fd5b8181029291811591840414171561248d57565b91929015612dd75750815115612d89575090565b3b15612d925790565b60405162461bcd60e51b815260206004820152601d60248201527f416464726573733a2063616c6c20746f206e6f6e2d636f6e74726163740000006044820152606490fd5b825190915015612dea5750805190602001fd5b60405162461bcd60e51b815260206004820152908190610e9e90602483019061219a56fea2646970667358221220c156144aec0aab2bdb84f19596b45c1c025ec656cb5810aed8b8c874e42f4f4964736f6c634300081a00338be0079c531659141344cd1fd0a4f28419497f9722a3daafe3b4186f6b6457e0","linkReferences":{}},"methodIdentifiers":{"SEND()":"1f5e1334","SEND_AND_CALL()":"134d4f25","acceptOwnership()":"79ba5097","allowInitializePath((uint32,bytes32,uint64))":"ff7bd03d","allowance(address,address)":"dd62ed3e","approvalRequired()":"9f68b964","approve(address,uint256)":"095ea7b3","balanceOf(address)":"70a08231","combineOptions(uint32,uint16,bytes)":"bc70b354","composeMsgSender()":"b92d0eff","decimalConversionRate()":"963efcaa","decimals()":"313ce567","decreaseAllowance(address,uint256)":"a457c2d7","endpoint()":"5e280f11","enforcedOptions(uint32,uint16)":"5535d461","globalSupply()":"8b723821","increaseAllowance(address,uint256)":"39509351","isPeer(uint32,bytes32)":"5a0dfe4d","lzReceive((uint32,bytes32,uint64),bytes32,bytes,address,bytes)":"13137d65","lzReceiveAndRevert(((uint32,bytes32,uint64),uint32,address,bytes32,uint256,address,bytes,bytes)[])":"bd815db0","lzReceiveSimulate((uint32,bytes32,uint64),bytes32,bytes,address,bytes)":"d045a0dc","mint(address,uint256)":"40c10f19","mintAndStartVest(address,uint256)":"4a06a05f","mintRewards(address,uint256)":"6a20de92","msgInspector()":"111ecdad","name()":"06fdde03","nextNonce(uint32,bytes32)":"7d25a05e","oApp()":"52ae2879","oAppVersion()":"17442b70","oftVersion()":"156a0d0f","owner()":"8da5cb5b","peers(uint32)":"bb0b6a53","pendingOwner()":"e30c3978","preCrime()":"b731ea0a","quoteOFT((uint32,bytes32,uint256,uint256,bytes,bytes,bytes))":"0d35b415","quoteSend((uint32,bytes32,uint256,uint256,bytes,bytes,bytes),bool)":"3b6f743b","renounceOwnership()":"715018a6","send((uint32,bytes32,uint256,uint256,bytes,bytes,bytes),(uint256,uint256),address)":"c7c7f5b3","setDelegate(address)":"ca5eb5e1","setEnforcedOptions((uint32,uint16,bytes)[])":"b98bd070","setMsgInspector(address)":"6fc1b31e","setPeer(uint32,bytes32)":"3400288b","setPreCrime(address)":"d4243885","sharedDecimals()":"857749b0","symbol()":"95d89b41","token()":"fc0c546a","totalSupply()":"18160ddd","transfer(address,uint256)":"a9059cbb","transferFrom(address,address,uint256)":"23b872dd","transferOwnership(address)":"f2fde38b"},"id":101}