{"abi":[{"type":"constructor","inputs":[{"name":"stUsdc_","type":"address","internalType":"address"}],"stateMutability":"nonpayable"},{"type":"function","name":"allowance","inputs":[{"name":"owner","type":"address","internalType":"address"},{"name":"spender","type":"address","internalType":"address"}],"outputs":[{"name":"","type":"uint256","internalType":"uint256"}],"stateMutability":"view"},{"type":"function","name":"approve","inputs":[{"name":"spender","type":"address","internalType":"address"},{"name":"amount","type":"uint256","internalType":"uint256"}],"outputs":[{"name":"","type":"bool","internalType":"bool"}],"stateMutability":"nonpayable"},{"type":"function","name":"balanceOf","inputs":[{"name":"account","type":"address","internalType":"address"}],"outputs":[{"name":"","type":"uint256","internalType":"uint256"}],"stateMutability":"view"},{"type":"function","name":"decimals","inputs":[],"outputs":[{"name":"","type":"uint8","internalType":"uint8"}],"stateMutability":"view"},{"type":"function","name":"decreaseAllowance","inputs":[{"name":"spender","type":"address","internalType":"address"},{"name":"subtractedValue","type":"uint256","internalType":"uint256"}],"outputs":[{"name":"","type":"bool","internalType":"bool"}],"stateMutability":"nonpayable"},{"type":"function","name":"increaseAllowance","inputs":[{"name":"spender","type":"address","internalType":"address"},{"name":"addedValue","type":"uint256","internalType":"uint256"}],"outputs":[{"name":"","type":"bool","internalType":"bool"}],"stateMutability":"nonpayable"},{"type":"function","name":"name","inputs":[],"outputs":[{"name":"","type":"string","internalType":"string"}],"stateMutability":"view"},{"type":"function","name":"stUsdc","inputs":[],"outputs":[{"name":"","type":"address","internalType":"contract IStUsdc"}],"stateMutability":"view"},{"type":"function","name":"stUsdcByWstUsdc","inputs":[{"name":"wstUsdcAmount","type":"uint256","internalType":"uint256"}],"outputs":[{"name":"","type":"uint256","internalType":"uint256"}],"stateMutability":"view"},{"type":"function","name":"stUsdcPerToken","inputs":[],"outputs":[{"name":"","type":"uint256","internalType":"uint256"}],"stateMutability":"view"},{"type":"function","name":"symbol","inputs":[],"outputs":[{"name":"","type":"string","internalType":"string"}],"stateMutability":"view"},{"type":"function","name":"tokensPerStUsdc","inputs":[],"outputs":[{"name":"","type":"uint256","internalType":"uint256"}],"stateMutability":"view"},{"type":"function","name":"totalSupply","inputs":[],"outputs":[{"name":"","type":"uint256","internalType":"uint256"}],"stateMutability":"view"},{"type":"function","name":"transfer","inputs":[{"name":"to","type":"address","internalType":"address"},{"name":"amount","type":"uint256","internalType":"uint256"}],"outputs":[{"name":"","type":"bool","internalType":"bool"}],"stateMutability":"nonpayable"},{"type":"function","name":"transferFrom","inputs":[{"name":"from","type":"address","internalType":"address"},{"name":"to","type":"address","internalType":"address"},{"name":"amount","type":"uint256","internalType":"uint256"}],"outputs":[{"name":"","type":"bool","internalType":"bool"}],"stateMutability":"nonpayable"},{"type":"function","name":"unwrap","inputs":[{"name":"wstUsdcAmount","type":"uint256","internalType":"uint256"}],"outputs":[{"name":"stUsdcAmount","type":"uint256","internalType":"uint256"}],"stateMutability":"nonpayable"},{"type":"function","name":"wrap","inputs":[{"name":"stUsdcAmount","type":"uint256","internalType":"uint256"}],"outputs":[{"name":"wstUsdcAmount","type":"uint256","internalType":"uint256"}],"stateMutability":"nonpayable"},{"type":"function","name":"wstUsdcByStUsdc","inputs":[{"name":"stUsdcAmount","type":"uint256","internalType":"uint256"}],"outputs":[{"name":"","type":"uint256","internalType":"uint256"}],"stateMutability":"view"},{"type":"event","name":"Approval","inputs":[{"name":"owner","type":"address","indexed":true,"internalType":"address"},{"name":"spender","type":"address","indexed":true,"internalType":"address"},{"name":"value","type":"uint256","indexed":false,"internalType":"uint256"}],"anonymous":false},{"type":"event","name":"StUsdcWrapped","inputs":[{"name":"user","type":"address","indexed":true,"internalType":"address"},{"name":"stUsdcAmount","type":"uint256","indexed":false,"internalType":"uint256"},{"name":"wstUsdcAmount","type":"uint256","indexed":false,"internalType":"uint256"}],"anonymous":false},{"type":"event","name":"Transfer","inputs":[{"name":"from","type":"address","indexed":true,"internalType":"address"},{"name":"to","type":"address","indexed":true,"internalType":"address"},{"name":"value","type":"uint256","indexed":false,"internalType":"uint256"}],"anonymous":false},{"type":"event","name":"WtTBYUnwrapped","inputs":[{"name":"user","type":"address","indexed":true,"internalType":"address"},{"name":"wstUsdcAmount","type":"uint256","indexed":false,"internalType":"uint256"},{"name":"stUsdcAmount","type":"uint256","indexed":false,"internalType":"uint256"}],"anonymous":false},{"type":"error","name":"ZeroAmount","inputs":[]}],"bytecode":{"object":"0x60a06040523461038a576113576020813803918261001c8161038f565b93849283398101031261038a57516001600160a01b0381169081900361038a57610046604061038f565b90601382527f77726170706564207374616b6564205553444300000000000000000000000000602083015261007b604061038f565b60078152667773745553444360c81b602082015282519091906001600160401b03811161029357600354600181811c91168015610380575b602082101461027357601f811161031b575b506020601f82116001146102b457819293946000926102a9575b50508160011b916000199060031b1c1916176003555b81516001600160401b03811161029357600454600181811c91168015610289575b602082101461027357601f811161020e575b50602092601f82116001146101a9579281929360009261019e575b50508160011b916000199060031b1c1916176004555b608052604051610fa290816103b5823960805181818161011001528181610321015281816105a2015281816106d70152818161091401528181610a5e0152610af20152f35b015190503880610143565b601f198216936004600052806000209160005b8681106101f657508360019596106101dd575b505050811b01600455610159565b015160001960f88460031b161c191690553880806101cf565b919260206001819286850151815501940192016101bc565b60046000527f8a35acfbc15ff81a39ae7d344fd709f28e8600b4aa8c65c6b64bfe7fe36bd19b601f830160051c81019160208410610269575b601f0160051c01905b81811061025d5750610128565b60008155600101610250565b9091508190610247565b634e487b7160e01b600052602260045260246000fd5b90607f1690610116565b634e487b7160e01b600052604160045260246000fd5b0151905038806100df565b601f198216906003600052806000209160005b818110610303575095836001959697106102ea575b505050811b016003556100f5565b015160001960f88460031b161c191690553880806102dc565b9192602060018192868b0151815501940192016102c7565b60036000527fc2575a0e9e593c00f959f8c92f12db2869c3395a3b0502d05e2516446f71f85b601f830160051c81019160208410610376575b601f0160051c01905b81811061036a57506100c5565b6000815560010161035d565b9091508190610354565b90607f16906100b3565b600080fd5b6040519190601f01601f191682016001600160401b038111838210176102935760405256fe608080604052600436101561001357600080fd5b60003560e01c90816306fdde0314610b5a57508063095ea7b314610b3457806316a4c15914610abe57806318160ddd14610aa05780631c737a2914610a3057806323b872dd14610972578063313ce56714610956578063315c281f146108e0578063395093511461088e57806370a082311461085457806395d89b411461074d578063a0886a5f146106a9578063a457c2d714610602578063a9059cbb146105d1578063d7ba31d21461058c578063dd62ed3e1461053b578063de0e9a3e146102f75763ea598cb0146100e557600080fd5b34610251576020366003190112610251576040516310446be360e11b815260048035908201819052907f00000000000000000000000000000000000000000000000000000000000000006001600160a01b0316602082602481845afa91821561025e576000926102c0575b5081156102af57331561026a57602060009161016e84600254610cc2565b60025533835282825260408320848154019055604051848152837fddf252ad1be2c89b69c2b068fc378daa952ba7f163c4a11628f55a4df523b3ef843393a36064604051809481936323b872dd60e01b83523360048401523060248401528860448401525af1801561025e5761021c575b5060209160405190815281838201527f36de104d934f136a21423ada7fdfc6f572e9b942bad35dd18d15de173c9c3dfb60403392a2604051908152f35b6020813d602011610256575b8161023560209383610c8a565b81010312610251575191821515830361025157915060206101df565b600080fd5b3d9150610228565b6040513d6000823e3d90fd5b60405162461bcd60e51b815260206004820152601f60248201527f45524332303a206d696e7420746f20746865207a65726f2061646472657373006044820152606490fd5b631f2a200560e01b60005260046000fd5b90916020823d6020116102ef575b816102db60209383610c8a565b810103126102ec5750519038610150565b80fd5b3d91506102ce565b3461025157602036600319011261025157604051638b33021d60e01b8152600480359082018190527f00000000000000000000000000000000000000000000000000000000000000006001600160a01b03169190602082602481865afa91821561025e57600092610507575b5081156102af5733156104b85733600052600060205260406000205481811061046857600093826020923387528684520360408620558260025403600255846040518481527fddf252ad1be2c89b69c2b068fc378daa952ba7f163c4a11628f55a4df523b3ef843392a3604460405180968193638fcb4e5b60e01b83523360048401528660248401525af1801561025e57610436575b6020925060405190815281838201527fa22dd380d4f3d8195a224a2c2e1a09eb54db87e2d25ab61eec3d558d36a1970e60403392a2604051908152f35b6020833d602011610460575b8161044f60209383610c8a565b8101031261025157602092506103f9565b3d9150610442565b60405162461bcd60e51b815260206004820152602260248201527f45524332303a206275726e20616d6f756e7420657863656564732062616c616e604482015261636560f01b6064820152608490fd5b60405162461bcd60e51b815260206004820152602160248201527f45524332303a206275726e2066726f6d20746865207a65726f206164647265736044820152607360f81b6064820152608490fd5b90916020823d602011610533575b8161052260209383610c8a565b810103126102ec5750519083610363565b3d9150610515565b3461025157604036600319011261025157610554610c5e565b61055c610c74565b6001600160a01b039182166000908152600160209081526040808320949093168252928352819020549051908152f35b34610251576000366003190112610251576040517f00000000000000000000000000000000000000000000000000000000000000006001600160a01b03168152602090f35b34610251576040366003190112610251576105f76105ed610c5e565b6024359033610ded565b602060405160018152f35b346102515760403660031901126102515761061b610c5e565b60243590336000526001602052604060002060018060a01b03821660005260205260406000205491808310610656576105f792039033610ce5565b60405162461bcd60e51b815260206004820152602560248201527f45524332303a2064656372656173656420616c6c6f77616e63652062656c6f77604482015264207a65726f60d81b6064820152608490fd5b3461025157602036600319011261025157604051638b33021d60e01b815260048035908201526020816024817f00000000000000000000000000000000000000000000000000000000000000006001600160a01b03165afa801561025e5760009061071a575b602090604051908152f35b506020813d602011610745575b8161073460209383610c8a565b81010312610251576020905161070f565b3d9150610727565b346102515760003660031901126102515760405160006004548060011c9060018116801561084a575b6020831081146108365782855290811561081257506001146107b3575b6107af836107a381850382610c8a565b60405191829182610c15565b0390f35b600460009081527f8a35acfbc15ff81a39ae7d344fd709f28e8600b4aa8c65c6b64bfe7fe36bd19b939250905b8082106107f8575090915081016020016107a3610793565b9192600181602092548385880101520191019092916107e0565b60ff191660208086019190915291151560051b840190910191506107a39050610793565b634e487b7160e01b84526022600452602484fd5b91607f1691610776565b34610251576020366003190112610251576001600160a01b03610875610c5e565b1660005260006020526020604060002054604051908152f35b34610251576040366003190112610251576105f76108aa610c5e565b336000526001602052604060002060018060a01b0382166000526020526108d960406000206024359054610cc2565b9033610ce5565b34610251576000366003190112610251576040516310446be360e11b8152670de0b6b3a764000060048201526020816024817f00000000000000000000000000000000000000000000000000000000000000006001600160a01b03165afa801561025e5760009061071a57602090604051908152f35b3461025157600036600319011261025157602060405160128152f35b346102515760603660031901126102515761098b610c5e565b610993610c74565b6001600160a01b03821660009081526001602081815260408084203385529091529091205492604435929184016109cf575b6105f79350610ded565b8284106109eb576109e6836105f795033383610ce5565b6109c5565b60405162461bcd60e51b815260206004820152601d60248201527f45524332303a20696e73756666696369656e7420616c6c6f77616e63650000006044820152606490fd5b34610251576020366003190112610251576040516310446be360e11b815260048035908201526020816024817f00000000000000000000000000000000000000000000000000000000000000006001600160a01b03165afa801561025e5760009061071a57602090604051908152f35b34610251576000366003190112610251576020600254604051908152f35b3461025157600036600319011261025157604051638b33021d60e01b8152670de0b6b3a764000060048201526020816024817f00000000000000000000000000000000000000000000000000000000000000006001600160a01b03165afa801561025e5760009061071a57602090604051908152f35b34610251576040366003190112610251576105f7610b50610c5e565b6024359033610ce5565b346102515760003660031901126102515760006003548060011c90600181168015610c0b575b602083108114610836578285529081156108125750600114610bac576107af836107a381850382610c8a565b600360009081527fc2575a0e9e593c00f959f8c92f12db2869c3395a3b0502d05e2516446f71f85b939250905b808210610bf1575090915081016020016107a3610793565b919260018160209254838588010152019101909291610bd9565b91607f1691610b80565b91909160208152825180602083015260005b818110610c48575060409293506000838284010152601f8019910116010190565b8060208092870101516040828601015201610c27565b600435906001600160a01b038216820361025157565b602435906001600160a01b038216820361025157565b90601f8019910116810190811067ffffffffffffffff821117610cac57604052565b634e487b7160e01b600052604160045260246000fd5b91908201809211610ccf57565b634e487b7160e01b600052601160045260246000fd5b6001600160a01b0316908115610d9c576001600160a01b0316918215610d4c5760207f8c5be1e5ebec7d5bd14f71427d1e84f3dd0314c0f7b2291e5b200ac8c7c3b925918360005260018252604060002085600052825280604060002055604051908152a3565b60405162461bcd60e51b815260206004820152602260248201527f45524332303a20617070726f766520746f20746865207a65726f206164647265604482015261737360f01b6064820152608490fd5b60405162461bcd60e51b8152602060048201526024808201527f45524332303a20617070726f76652066726f6d20746865207a65726f206164646044820152637265737360e01b6064820152608490fd5b6001600160a01b0316908115610f19576001600160a01b0316918215610ec857816000526000602052604060002054818110610e7457817fddf252ad1be2c89b69c2b068fc378daa952ba7f163c4a11628f55a4df523b3ef9260209285600052600084520360406000205584600052600082526040600020818154019055604051908152a3565b60405162461bcd60e51b815260206004820152602660248201527f45524332303a207472616e7366657220616d6f756e7420657863656564732062604482015265616c616e636560d01b6064820152608490fd5b60405162461bcd60e51b815260206004820152602360248201527f45524332303a207472616e7366657220746f20746865207a65726f206164647260448201526265737360e81b6064820152608490fd5b60405162461bcd60e51b815260206004820152602560248201527f45524332303a207472616e736665722066726f6d20746865207a65726f206164604482015264647265737360d81b6064820152608490fdfea2646970667358221220ceb37b00ab49b069a598603c503b83879d2a91d75298fba4550d1118ac3653ec64736f6c634300081a0033","linkReferences":{}},"methodIdentifiers":{"allowance(address,address)":"dd62ed3e","approve(address,uint256)":"095ea7b3","balanceOf(address)":"70a08231","decimals()":"313ce567","decreaseAllowance(address,uint256)":"a457c2d7","increaseAllowance(address,uint256)":"39509351","name()":"06fdde03","stUsdc()":"d7ba31d2","stUsdcByWstUsdc(uint256)":"a0886a5f","stUsdcPerToken()":"16a4c159","symbol()":"95d89b41","tokensPerStUsdc()":"315c281f","totalSupply()":"18160ddd","transfer(address,uint256)":"a9059cbb","transferFrom(address,address,uint256)":"23b872dd","unwrap(uint256)":"de0e9a3e","wrap(uint256)":"ea598cb0","wstUsdcByStUsdc(uint256)":"1c737a29"},"id":97}