{"abi":[{"type":"function","name":"add_reward","inputs":[{"name":"reward_token","type":"address","internalType":"address"},{"name":"distributor","type":"address","internalType":"address"}],"outputs":[],"stateMutability":"nonpayable"},{"type":"function","name":"deposit_reward_token","inputs":[{"name":"reward_token","type":"address","internalType":"address"},{"name":"amount","type":"uint256","internalType":"uint256"}],"outputs":[],"stateMutability":"nonpayable"},{"type":"function","name":"reward_tokens","inputs":[{"name":"index","type":"uint256","internalType":"uint256"}],"outputs":[{"name":"","type":"address","internalType":"address"}],"stateMutability":"view"},{"type":"function","name":"set_gauge_manager","inputs":[{"name":"_gauge_manager","type":"address","internalType":"address"}],"outputs":[],"stateMutability":"nonpayable"}],"bytecode":{"object":"0x6080806040523460155761023d908161001b8239f35b600080fdfe608080604052600436101561001357600080fd5b60003560e01c90816354c49fe9146101d75750806393f7aa67146100c8578063aace1d48146100ad5763e8de0d4d1461004b57600080fd5b346100a85760403660031901126100a8576100646101f1565b6024356001600160a01b03811691908290036100a857600080546001600160a01b03929092166001600160a01b031992831617905560018054909116919091179055005b600080fd5b346100a85760203660031901126100a8576100c66101f1565b005b346100a85760403660031901126100a8576100e16101f1565b6001546001600160a01b031633036101a15760206000916064604051809481936323b872dd60e01b8352336004840152306024840152602435604484015260018060a01b03165af180156101955761013557005b60203d60201161018e575b601f8101601f1916820167ffffffffffffffff811183821017610178576020918391604052810103126100a85751801515036100a857005b634e487b7160e01b600052604160045260246000fd5b503d610140565b6040513d6000823e3d90fd5b60405162461bcd60e51b815260206004820152600e60248201526d24b73b30b634b21031b0b63632b960911b6044820152606490fd5b346100a85760203660031901126100a85780600060209252f35b600435906001600160a01b03821682036100a85756fea264697066735822122087e5212e162e358a07b6a6f84a8697e628d459450173a75ed648648b3b137e5164736f6c634300081a0033","linkReferences":{}},"methodIdentifiers":{"add_reward(address,address)":"e8de0d4d","deposit_reward_token(address,uint256)":"93f7aa67","reward_tokens(uint256)":"54c49fe9","set_gauge_manager(address)":"aace1d48"},"id":65}