{"abi":[{"type":"constructor","inputs":[{"name":"owner","type":"address","internalType":"address"}],"stateMutability":"nonpayable"},{"type":"function","name":"acceptOwnership","inputs":[],"outputs":[],"stateMutability":"nonpayable"},{"type":"function","name":"curvePoolData","inputs":[],"outputs":[{"name":"","type":"tuple[]","internalType":"struct ICurveGaugeDistributor.CurvePoolData[]","components":[{"name":"curvePool","type":"address","internalType":"address"},{"name":"curveGauge","type":"address","internalType":"address"},{"name":"curveFactory","type":"address","internalType":"address"},{"name":"rewardsRemaining","type":"uint256","internalType":"uint256"},{"name":"maxRewards","type":"uint256","internalType":"uint256"}]}],"stateMutability":"view"},{"type":"function","name":"initialize","inputs":[{"name":"curvePools","type":"tuple[]","internalType":"struct ICurveGaugeDistributor.CurvePoolData[]","components":[{"name":"curvePool","type":"address","internalType":"address"},{"name":"curveGauge","type":"address","internalType":"address"},{"name":"curveFactory","type":"address","internalType":"address"},{"name":"rewardsRemaining","type":"uint256","internalType":"uint256"},{"name":"maxRewards","type":"uint256","internalType":"uint256"}]},{"name":"stakeupToken","type":"address","internalType":"address"}],"outputs":[],"stateMutability":"nonpayable"},{"type":"function","name":"owner","inputs":[],"outputs":[{"name":"","type":"address","internalType":"address"}],"stateMutability":"view"},{"type":"function","name":"pendingOwner","inputs":[],"outputs":[{"name":"","type":"address","internalType":"address"}],"stateMutability":"view"},{"type":"function","name":"renounceOwnership","inputs":[],"outputs":[],"stateMutability":"nonpayable"},{"type":"function","name":"seedGauges","inputs":[],"outputs":[],"stateMutability":"nonpayable"},{"type":"function","name":"transferOwnership","inputs":[{"name":"newOwner","type":"address","internalType":"address"}],"outputs":[],"stateMutability":"nonpayable"},{"type":"event","name":"GaugeDeployed","inputs":[{"name":"gauge","type":"address","indexed":true,"internalType":"address"},{"name":"pool","type":"address","indexed":true,"internalType":"address"}],"anonymous":false},{"type":"event","name":"GaugeSeeded","inputs":[{"name":"gauge","type":"address","indexed":true,"internalType":"address"},{"name":"amount","type":"uint256","indexed":false,"internalType":"uint256"}],"anonymous":false},{"type":"event","name":"OwnershipTransferStarted","inputs":[{"name":"previousOwner","type":"address","indexed":true,"internalType":"address"},{"name":"newOwner","type":"address","indexed":true,"internalType":"address"}],"anonymous":false},{"type":"event","name":"OwnershipTransferred","inputs":[{"name":"previousOwner","type":"address","indexed":true,"internalType":"address"},{"name":"newOwner","type":"address","indexed":true,"internalType":"address"}],"anonymous":false},{"type":"error","name":"AlreadyInitialized","inputs":[]},{"type":"error","name":"InvalidAddress","inputs":[]},{"type":"error","name":"NotInitialized","inputs":[]},{"type":"error","name":"RewardAllocationNotMet","inputs":[]},{"type":"error","name":"TooEarlyToSeed","inputs":[]},{"type":"error","name":"ZeroAddress","inputs":[]}],"bytecode":{"object":"0x608034607757601f61124538819003918201601f19168301916001600160401b03831184841017607c57808492602094604052833981010312607757516001600160a01b03811681036077576068906001600055605a336092565b60ff19600654166006556092565b60405161115e90816100e78239f35b600080fd5b634e487b7160e01b600052604160045260246000fd5b600280546001600160a01b0319908116909155600180549182166001600160a01b0393841690811790915591167f8be0079c531659141344cd1fd0a4f28419497f9722a3daafe3b4186f6b6457e0600080a356fe608080604052600436101561001357600080fd5b60003560e01c9081636bda44ab1461068157508063715018a61461061a57806379ba50971461054e5780638da5cb5b14610525578063e30c3978146104fc578063f2fde38b14610489578063f88edd111461011a5763fc5568761461007757600080fd5b3461011557600036600319011261011557610090610c57565b60405180916020820160208352815180915260206040840192019060005b8181106100bc575050500390f35b825180516001600160a01b03908116865260208281015182168188015260408084015190921691870191909152606080830151908701526080918201519186019190915286955060a090940193909201916001016100ae565b600080fd5b346101155760403660031901126101155760043567ffffffffffffffff8111610115573660238201121561011557806004013567ffffffffffffffff81116101155760248201916024369160a08402010111610115576024356001600160a01b038116908190036101155761018d610fdc565b80156104785760065460ff811661046857600480546001600160a01b03191690921790915560ff191660011760065560005b818110610331576003546b0121836204bc2ce21e0000009060005b8181106101f957826101e857005b635ae2a5bd60e01b60005260046000fd5b600092602061020783610d7d565b50600201546001600160a01b0316602461022085610d7d565b50546040516325afaecd60e21b81526001600160a01b0390911660048201529687928391905af1938415610325576000946102d7575b50906102936001928361026884610d7d565b5001848060a01b038716858060a01b0319825416179055600461028a84610d7d565b50015490610d30565b9361029d82610d7d565b505460a084901b84900390811691167f84c1e815d16f55e70a8f12eb8017c6b7d2e5818e20c50f2a1ab8dfb499bbef81600080a3016101da565b6020949194813d821161031d575b816102f260209383610c35565b810103126103195751906001600160a01b0382168203610316575092610293610256565b80fd5b5080fd5b3d91506102e5565b6040513d6000823e3d90fd5b6001600160a01b0361034f6040610349848688611034565b01611044565b1615610457576001600160a01b0361037061036b838587611034565b611044565b161561045757610381818385611034565b90600354600160401b811015610441578060016103a19201600355610d7d565b61042b576001926004906080906001600160a01b036103bf82611044565b16868060a01b03198554161784556103d960208201611044565b86850190878060a01b0316878060a01b03198254161790556103fd60408201611044565b6002850190878060a01b0316878060a01b0319825416179055606081013560038501550135910155016101bf565b634e487b7160e01b600052600060045260246000fd5b634e487b7160e01b600052604160045260246000fd5b63d92e233d60e01b60005260046000fd5b62dc149f60e41b60005260046000fd5b63e6c4247b60e01b60005260046000fd5b34610115576020366003190112610115576004356001600160a01b03811690819003610115576104b7610fdc565b600280546001600160a01b031916821790556001546001600160a01b03167f38d16b8cac22d99fc7c124b9cd0de2d3fa1faef420bfe791d8c362d765e22700600080a3005b34610115576000366003190112610115576002546040516001600160a01b039091168152602090f35b34610115576000366003190112610115576001546040516001600160a01b039091168152602090f35b3461011557600036600319011261011557600254336001600160a01b03909116036105c357600280546001600160a01b0319908116909155600180543392811683179091556001600160a01b03167f8be0079c531659141344cd1fd0a4f28419497f9722a3daafe3b4186f6b6457e0600080a3005b60405162461bcd60e51b815260206004820152602960248201527f4f776e61626c6532537465703a2063616c6c6572206973206e6f7420746865206044820152683732bb9037bbb732b960b91b6064820152608490fd5b3461011557600036600319011261011557610633610fdc565b600280546001600160a01b03199081169091556001805491821690556000906001600160a01b03167f8be0079c531659141344cd1fd0a4f28419497f9722a3daafe3b4186f6b6457e08280a3005b346101155760003660031901126101155760ff6006541615610c2457600260005414610be25760026000556106b4610c57565b805160055460801c6106c68142610d30565b9015159081610bd5575b50610bc45760005b81811061070457600580546001600160801b03164260801b6001600160801b0319161790556001600055005b6005548060801c15610b32575b5061074560806107218386610d53565b5101516001600160801b0360055416606061073c8588610d53565b51015191610dbe565b80610754575b506001016106d8565b60606107608386610d53565b51015180821015610b2b57505b600361077883610d7d565b5001610785828254610d30565b90556004546001600160a01b0316803b15610115576040516335106f4960e11b815230600482015260248101839052906000908290604490829084905af1801561032557610b1a575b506004546001600160a01b03908116919060206107eb8588610d53565b510151169181158015610aa7575b15610a435760405163095ea7b360e01b602082019081526001600160a01b039490941660248201526044808201849052815290610837606483610c35565b60008060409586519461084a8887610c35565b602086527f5361666545524332303a206c6f772d6c6576656c2063616c6c206661696c65646020870152519082855af13d15610a35573d91600067ffffffffffffffff8411610a21575085516108c29493909291906108b3601f8201601f191660200185610c35565b83523d6000602085013e611058565b80519081159182156109fe575b5050156109a7576001600160a01b0360206108ea8588610d53565b5101516004546001600160a01b03169116803b156101155783516393f7aa6760e01b81526001600160a01b03929092166004830152602482018390526000908290604490829084905af1801561099c5760019493927f634ddc232dfe6fdeab68490f1f03b092d432b279729c13080a77b73749789b829260209261098b575b50858060a01b038261097b878b610d53565b510151169351908152a29061074b565b600061099691610c35565b88610969565b83513d6000823e3d90fd5b815162461bcd60e51b815260206004820152602a60248201527f5361666545524332303a204552433230206f7065726174696f6e20646964206e6044820152691bdd081cdd58d8d9595960b21b6064820152608490fd5b8192509060209181010312610115576020015180151581036101155786806108cf565b634e487b7160e01b81526041600452602490fd5b906108c29291606091611058565b60405162461bcd60e51b815260206004820152603660248201527f5361666545524332303a20617070726f76652066726f6d206e6f6e2d7a65726f60448201527520746f206e6f6e2d7a65726f20616c6c6f77616e636560501b6064820152608490fd5b50604051636eb1769f60e11b81523060048201526001600160a01b0384166024820152602081604481855afa90811561032557600091610ae9575b50156107f9565b906020823d8211610b12575b81610b0260209383610c35565b8101031261031657505187610ae2565b3d9150610af5565b6000610b2591610c35565b846107ce565b905061076d565b6001600160801b031916426001600160801b0316176005556001600160a01b036020610b5e8386610d53565b5101516004546001600160a01b03169116803b156101155760405163e8de0d4d60e01b81526001600160a01b039290921660048301523060248301526000908290604490829084905af180156103255715610711576000610bbe91610c35565b83610711565b6301ab534d60e01b60005260046000fd5b62093a80915010836106d0565b62461bcd60e51b815260206004820152601f60248201527f5265656e7472616e637947756172643a207265656e7472616e742063616c6c006044820152606490fd5b6321c4e35760e21b60005260046000fd5b90601f8019910116810190811067ffffffffffffffff82111761044157604052565b6003549067ffffffffffffffff82116104415760405191610c7e60208260051b0184610c35565b808352600360009081527fc2575a0e9e593c00f959f8c92f12db2869c3395a3b0502d05e2516446f71f85b9190602085015b828210610cbd5750505050565b60405160a0810181811067ffffffffffffffff82111761044157600192600592602092604052848060a01b038854168152848060a01b03858901541683820152848060a01b0360028901541660408201526003880154606082015260048801546080820152815201940191019092610cb0565b91908203918211610d3d57565b634e487b7160e01b600052601160045260246000fd5b8051821015610d675760209160051b010190565b634e487b7160e01b600052603260045260246000fd5b600354811015610d675760036000526005602060002091020190600090565b60ff8111610d3d576001901b90565b81810292918115918404141715610d3d57565b60009291839081908415610fd357610dd69042610d30565b92839462093a808501809511610fbf57610df09082610d30565b9484610f9b5750815b6005831115610f25575080915b6001811180610f16575b610e55575b5050916301dfe200610e2b610e39938295610d30565b910680610e50575082610dab565b04918201809211610d3d57610e4d91610d30565b90565b610dab565b919250906000198101908111610d3d57610e6e90610d9c565b8015610f0057670de0b6b3a764000004670de0b6b3a76400000390670de0b6b3a76400008211610d3d57670de0b6b3a764000091610eab91610dab565b049083610eba575b3880610e15565b9293506301dfe2009182610e2b610e3993808810600014610ef757610eea885b610ee48184610d30565b99610d30565b9693955093505050610eb3565b610eea81610eda565b634e487b7160e01b600052601260045260246000fd5b506301dfe20085061515610e10565b610f2e83610d9c565b8015610f8757670de0b6b3a764000004670de0b6b3a76400000390670de0b6b3a76400008211610f735750610f6c670de0b6b3a76400009183610dab565b0491610e06565b634e487b7160e01b81526011600452602490fd5b634e487b7160e01b82526012600452602482fd5b62093a7f01848111610fbf576301dfe200900460018101809111610fbf5791610df9565b634e487b7160e01b83526011600452602483fd5b50935050505090565b6001546001600160a01b03163303610ff057565b606460405162461bcd60e51b815260206004820152602060248201527f4f776e61626c653a2063616c6c6572206973206e6f7420746865206f776e65726044820152fd5b9190811015610d675760a0020190565b356001600160a01b03811681036101155790565b919290156110ba575081511561106c575090565b3b156110755790565b60405162461bcd60e51b815260206004820152601d60248201527f416464726573733a2063616c6c20746f206e6f6e2d636f6e74726163740000006044820152606490fd5b8251909150156110cd5750805190602001fd5b6040519062461bcd60e51b8252602060048301528181519182602483015260005b8381106111105750508160006044809484010152601f80199101168101030190fd5b602082820181015160448784010152859350016110ee56fea26469706673582212206b444bfcb41ec426b4f26d80fdc9b0b74444e4a021f9e8b2e1705a4322b9f78564736f6c634300081a0033","linkReferences":{}},"methodIdentifiers":{"acceptOwnership()":"79ba5097","curvePoolData()":"fc556876","initialize((address,address,address,uint256,uint256)[],address)":"f88edd11","owner()":"8da5cb5b","pendingOwner()":"e30c3978","renounceOwnership()":"715018a6","seedGauges()":"6bda44ab","transferOwnership(address)":"f2fde38b"},"id":98}